:100000000C9434000C9451000C9451000C94510049
:100010000C9451000C9451000C9451000C9451001C
:100020000C9451000C9451000C9451000C9451000C
:100030000C9451000C9451000C9451000C945100FC
:100040000C9451000C9451000C9451000C945100EC
:100050000C9451000C9451000C9451000C945100DC
:100060000C9451000C94510011241FBECFEFD8E026
:10007000DEBFCDBF11E0A0E0B1E0E4E5F6E002C0F4
:1000800005900D92AE31B107D9F711E0AEE1B1E0C4
:1000900001C01D92A033B107E1F70E9473000C94D8
:1000A00028030C940000ECE7F0E0808180648083FA
:1000B000808181608083EAE7F0E0808187608083CF
:1000C0008081806880830895EAE7F0E08081806421
:1000D0008083808186FDFDCF20917800309179006A
:1000E000822F932F0895EF92FF920F931F93CF9338
:1000F000DF930E9407030E94530000E011E00F2EDF
:10010000F0E1EF2EF7E2FF2EF02DC0E9D1E00E94E2
:10011000640000D000D000D0EDB7FEB73196118357
:100120000083938382839C01220F331F220F331F8E
:10013000280F391F832F86958695848315820E9408
:10014000600197018DB79EB706960FB6F8949EBFD3
:100150000FBE8DBFCE010197F1F721503040D1F78E
:10016000D6CFE0911E01F0911F018193F0931F0102
:10017000E0931E010895982F8A3014F480E307C09D
:1001800080912E01882311F487E501C087E3890F50
:100190000E94B10081E080932F010895AC0180910D
:1001A0002C0190912D018417950710F4E0E017C001
:1001B00066277727641B750B9C01241B350BE0E039
:1001C000EF5FF22FA32F260F371FC901840F951F52
:1001D00084179507A8F7F0932C01A0932D01809127
:1001E0002F01882311F4EE2319F08E2F0E94BB00FB
:1001F0000895EF92FF920F931F930F2EF0E3EF2ECF
:10020000F02D0F2EF0E3FF2EF02D00E30E942003CF
:10021000182F0E9414031D3021F0EF2CF02E012F17
:10022000F5CF802F805D24E69E2D9202900111244F
:10023000820F2AE09F2D920290011124820F1F91BC
:100240000F91FF90EF900895EF92FF920F931F93FD
:10025000CF93DF937C0170E0EB0121971C161D0604
:1002600014F000E012C000E00E942003182F0E944A
:1002700014031D3051F0F701E00FF11D10830F5FE3
:10028000802F90E08C179D077CF3F701E00FF11DA4
:100290001082DF91CF911F910F91FF90EF90089501
:1002A000CF93DF93FC018081882339F0EF010E9416
:1002B0001D03898121968823D1F7DF91CF9108957D
:1002C0002F923F924F925F926F927F928F929F9266
:1002D000AF92BF92CF92DF92EF92FF920F931F9354
:1002E000DF93CF93CDB7DEB70F2EF5E1EF2EFF24CE
:1002F000F02DEC0EFD1EF701C190D1907F010F2E65
:10030000F0E26F2EF1E07F2EF02D0F2EF0E34F2E56
:10031000F02D842C5524689455F80F2EFCE22F2ED6
:10032000F1E03F2EF02D5BC10894C11CD11C853239
:1003300021F00E941D03570151C1F60111916F0177
:10034000103311F0992404C011916F0199249394F2
:10035000912F812F80538A3010F000E012C000E00E
:10036000892F8053902F990F990F900F990F082F75
:10037000090FF60111916F01912F812F80538A305F
:1003800078F370921F0160921E0110922F011336B4
:1003900009F4C2C014369CF4183509F451C019355B
:1003A0005CF4123409F478C01334ACF4112309F46A
:1003B0001BC1153281F4C6C0123669F46DC0133703
:1003C00009F4B6C014371CF4143629F407C01537E5
:1003D00029F01837A9F15701D301B9C0F7012081DD
:1003E000318120932C0130932D01143669F433238D
:1003F0005CF488279927821B930B90932D0180939F
:100400002C018DE20E94B100AA24BB246894A1F8BB
:10041000AE0CBF1C80E197E20E94CE0088EE93E014
:100420000E94CE0084E690E00E94CE008AE090E038
:100430000E94CE00F10180810E94BB00D30187C0E1
:10044000842D0E94B10088E70E94B10010922E0115
:10045000183519F4F1E0F0932E01AA24BB24689416
:10046000A1F8AE0CBF1CF7018081918190932D0102
:1004700080932C0180E090E10E94CE0080E091E02A
:100480000E94CE0080E190E00E94CE00F1018081C8
:100490000E94BB00D3015BC0842D0E94B10082E6A4
:1004A0000E94B10010922E01123419F4F1E0F09381
:1004B0002E01AA24BB246894A1F8AE0CBF1CF7013E
:1004C00080819181907090932D0180932C01F1E0B7
:1004D000F0932F0180E890E00E94CE0080E490E04D
:1004E0000E94CE0080E290E00E94CE0080E190E089
:1004F0000E94CE0088E090E00E94CE0084E090E070
:100500000E94CE0082E090E00E94CE00F101808146
:100510000E94BB00D3011BC0AA24BB246894A1F88D
:10052000AE0CBF1CF70180810E94B100D3010FC047
:10053000AA24BB246894A1F8AE0CBF1CF701A081CB
:10054000B18105C085E20E94B1005701D301E0915D
:100550001E01F0911F011082B0931F01A0931E0194
:10056000FD0181917F01F0931F01E0931E0188231B
:1005700089F010163CF50150E0911E01F0911F0129
:100580008191F0931F01E0931E01882319F010164A
:1005900094F318C01016B4F48C918D3211F07D01D3
:1005A00003C08DE20E941D03102F1150992011F4F9
:1005B000852D01C0882D0E941D03111614F41150C1
:1005C000F5CFD7018C91882349F08D010E941D033E
:1005D000F80181810F5F1F4F8823C1F77501F60174
:1005E0008081882309F0A0CECF91DF911F910F91D8
:1005F000FF90EF90DF90CF90BF90AF909F908F9043
:100600007F906F905F904F903F902F90089587E676
:1006100090E09093C5008093C40088E18093C1006E
:1006200086E08093C2000895982FE0ECF0E080818E
:1006300085FFFDCF9093C60008950E94140308958E
:10064000E0ECF0E080818823ECF78091C60008950B
:04065000F894FFCF4C
:1006540076616C7565203D2025642C200920766F19
:0E0664006C74616765203D202564560D0A0008
:00000001FF
