:100000000C9434000C9449000C9449000C94490061
:100010000C9449000C9449000C9449000C9449003C
:100020000C9449000C9449000C9449000C9449002C
:100030000C9449000C9449000C9449000C9449001C
:100040000C9449000C9449000C9449000C9449000C
:100050000C9449000C9449000C9449000C944900FC
:100060000C9449000C94490011241FBECFEFD8E036
:10007000DEBFCDBF11E0A0E0B1E0E6EFF0E002C0EE
:1000800005900D92A230B107D9F70E944B000C9455
:1000900079000C940000E4E2F0E0808180628083CB
:1000A000EAE2F0E080818F778083EBE2F0E080810C
:1000B0008068808390E020E0A9E2B0E040E031E099
:1000C000E5E2F0E08C91882334F0222329F499238F
:1000D00051F4232F03C0242F913039F480818062A2
:1000E0008083932FEFCF942F232F80818F7D808368
:0600F000E9CFF894FFCFF8
:0200F600800088
:00000001FF
