:100000000C9434000C9449000C9449000C94490061
:100010000C9449000C9449000C9449000C9449003C
:100020000C9449000C9449000C9449000C9449002C
:100030000C9449000C9449000C9449000C9449001C
:100040000C9449000C9449000C9449000C9449000C
:100050000C9449000C9449000C9449000C944900FC
:100060000C9449000C94490011241FBECFEFD8E036
:10007000DEBFCDBF11E0A0E0B1E0E6EDF0E002C0F0
:1000800005900D92A230B107D9F70E944B000C9455
:1000900069000C940000E4E2F0E0808180628083DB
:1000A000EAE2F0E080818F778083EBE2F0E080810C
:1000B00080688083A9E2B0E0E5E2F0E08C918823DB
:1000C00024F0808180628083F9CF80818F7D80835E
:0600D000F5CFF894FFCF0C
:0200D6008000A8
:00000001FF
