:100000000C9434000C9451000C9451000C94510049
:100010000C9451000C9451000C9451000C9451001C
:100020000C9451000C9451000C9451000C9451000C
:100030000C9451000C9451000C9451000C945100FC
:100040000C9451000C9451000C9451000C945100EC
:100050000C9451000C9451000C9451000C945100DC
:100060000C9451000C94510011241FBECFEFD8E026
:10007000DEBFCDBF16E0A0E0B1E0EEE3F0E402C0E9
:1000800005900D92AE37B107D9F717E0AEE7B6E0AD
:1000900001C01D92A930B107E1F70E9453000C94F2
:1000A0001D200C940000EF92FF920F931F93CF93AB
:1000B000DF930E944C0300D080E091E0EDB7FEB7E3
:1000C000928381830E94A5010F900F900E94CE1809
:1000D000C3E2D1E000E117E20F2EF0E9EF2EF1E0EC
:1000E000FF2EF02D0FC000D0EDB7FEB7D283C18335
:1000F0000E94A501C8010F900F90F7013197F1F709
:100100000197D9F70E94790C8F3F69F30E94F20F93
:10011000DC018C91813364F400D08CE491E0EDB784
:10012000FEB7928381830E94A5010F900F9011C0AA
:1001300000D000D0EDB7FEB731968AE691E091830A
:100140008083B383A2830E94A5010F900F900F902C
:100150000F9008E813E1C0E9D1E08FEF60E040E0E4
:100160000E94D00F9801CE010197F1F72150304045
:10017000D1F780E06FEF40E00E94D00F9801CE01F0
:100180000197F1F721503040D1F780E060E04FEF68
:100190000E94D00F9801CE010197F1F72150304015
:1001A000D1F78FEF6FEF40E00E94D00F9801CE01A2
:1001B0000197F1F721503040D1F780E06FEF4FEF1A
:1001C0000E94D00F9801CE010197F1F721503040E5
:1001D000D1F78FEF60E04FEF0E94D00F9801CE0172
:1001E0000197F1F721503040D1F7B7CFE0917E066B
:1001F000F0917F068193F0937F06E0937E06089549
:10020000982F8A3014F480E307C080918E068823EB
:1002100011F487E501C087E3890F0E94F60081E0B1
:1002200080938F060895AC0180918C0690918D0685
:100230008417950710F4E0E017C066277727641B42
:10024000750B9C01241B350BE0E0EF5FF22FA32F11
:10025000260F371FC901840F951F84179507A8F72C
:10026000F0938C06A0938D0680918F06882311F45D
:10027000EE2319F08E2F0E9400010895EF92FF9255
:100280000F931F930F2EF0E3EF2EF02D0F2EF0E3C0
:10029000FF2EF02D00E30E946503182F0E945903E2
:1002A0001D3021F0EF2CF02E012FF5CF802F805D37
:1002B00024E69E2D920290011124820F2AE09F2DA8
:1002C000920290011124820F1F910F91FF90EF90E5
:1002D0000895EF92FF920F931F93CF93DF937C01CA
:1002E00070E0EB0121971C161D0614F000E012C00F
:1002F00000E00E946503182F0E9459031D3051F041
:10030000F701E00FF11D10830F5F802F90E08C1735
:100310009D077CF3F701E00FF11D1082DF91CF9173
:100320001F910F91FF90EF900895CF93DF93FC0101
:100330008081882339F0EF010E9462038981219630
:100340008823D1F7DF91CF9108952F923F924F925A
:100350005F926F927F928F929F92AF92BF92CF9255
:10036000DF92EF92FF920F931F93DF93CF93CDB75E
:10037000DEB70F2EF5E1EF2EFF24F02DEC0EFD1E63
:10038000F701C190D1907F010F2EF0E86F2EF6E0BB
:100390007F2EF02D0F2EF0E34F2EF02D842C5524C0
:1003A000689455F80F2EFCE82F2EF6E03F2EF02D26
:1003B0005BC10894C11CD11C853221F00E946203EC
:1003C000570151C1F60111916F01103311F09924B9
:1003D00004C011916F0199249394912F812F805320
:1003E0008A3010F000E012C000E0892F8053902F77
:1003F000990F990F900F990F082F090FF60111917E
:100400006F01912F812F80538A3078F370927F068D
:1004100060927E0610928F06133609F4C2C014361D
:100420009CF4183509F451C019355CF4123409F400
:1004300078C01334ACF4112309F41BC1153281F4D4
:10044000C6C0123669F46DC0133709F4B6C014374C
:100450001CF4143629F407C0153729F01837A9F110
:100460005701D301B9C0F7012081318120938C0657
:1004700030938D06143669F433235CF4882799276A
:10048000821B930B90938D0680938C068DE20E94C5
:10049000F600AA24BB246894A1F8AE0CBF1C80E12E
:1004A00097E20E94130188EE93E00E94130184E614
:1004B00090E00E9413018AE090E00E941301F10194
:1004C00080810E940001D30187C0842D0E94F60024
:1004D00088E70E94F60010928E06183519F4F1E0B4
:1004E000F0938E06AA24BB246894A1F8AE0CBF1C1E
:1004F000F7018081918190938D0680938C0680E036
:1005000090E10E94130180E091E00E94130180E1DC
:1005100090E00E941301F10180810E940001D3014B
:100520005BC0842D0E94F60082E60E94F6001092C5
:100530008E06123419F4F1E0F0938E06AA24BB243F
:100540006894A1F8AE0CBF1CF70180819181907076
:1005500090938D0680938C06F1E0F0938F0680E8EF
:1005600090E00E94130180E490E00E94130180E279
:1005700090E00E94130180E190E00E94130188E066
:1005800090E00E94130184E090E00E94130182E059
:1005900090E00E941301F10180810E940001D301CB
:1005A0001BC0AA24BB246894A1F8AE0CBF1CF701A1
:1005B00080810E94F600D3010FC0AA24BB24689456
:1005C000A1F8AE0CBF1CF701A081B18105C085E286
:1005D0000E94F6005701D301E0917E06F0917F065C
:1005E0001082B0937F06A0937E06FD0181917F016A
:1005F000F0937F06E0937E06882389F010163CF581
:100600000150E0917E06F0917F068191F0937F0684
:10061000E0937E06882319F0101694F318C0101684
:10062000B4F48C918D3211F07D0103C08DE20E94F3
:100630006203102F1150992011F4852D01C0882DCF
:100640000E946203111614F41150F5CFD7018C915A
:10065000882349F08D010E946203F80181810F5FB8
:100660001F4F8823C1F77501F6018081882309F0A7
:10067000A0CECF91DF911F910F91FF90EF90DF906F
:10068000CF90BF90AF909F908F907F906F905F9032
:100690004F903F902F90089587E690E09093C5008B
:1006A0008093C40088E18093C10086E08093C200FB
:1006B0000895982FE0ECF0E0808185FFFDCF9093C6
:1006C000C60008950E9459030895E0ECF0E080818F
:1006D0008823ECF78091C6000895A0E8B0E08C91E3
:1006E00082608C93E1E8F0E0808188618083808182
:1006F0008260808382EE94E09093870080938600EE
:100700008C9180688C931092890010928800E4E2AA
:10071000F0E0808182608083089524E0823E920729
:1007200010F081EE94E09093890080938800089502
:100730000E946D0310920207109201071092FF06AB
:1007400010920007089599231CF4909581959F4F6E
:100750009093020780930107EBE2F0E020819091F3
:10076000FF0680910007990F990F990F880F880F46
:10077000892B237F822B8083809101079091020730
:100780000E948D030895282F882359F483E090E078
:1007900090938201809381011092FF0610920007CE
:1007A0000895833061F482E090E090938201809319
:1007B000810181E08093FF068093000708958150B6
:1007C000823000F58091810190918201892B31F076
:1007D0008091810190918201019729F481E08093B9
:1007E000FF0680930007213031F481E08093FF06FB
:1007F000109200070895223029F41092FF0681E03C
:10080000809300070895E1ECF3E0808191810895E1
:10081000DF93CF9300D000D0CDB7DEB70E941A1877
:1008200000D000D0EDB7FEB7319623E831E0318338
:100830002083938382830E94A5010F900F900F90D5
:100840000F90CE0101960E94DC1700D08EE891E057
:10085000EDB7FEB7928381830E94A50129813A8179
:100860004B815C818DB79EB708970FB6F8949EBFF9
:100870000FBE8DBFEDB7FEB731968BE991E0918346
:100880008083852F9927AA27BB2793838283CA0158
:10089000AA27BB27907095838483BB27A52F942F0D
:1008A000832F9070978386833070318720870E94D2
:1008B000A501EDB7FEB73A960FB6F894FEBF0FBE8E
:1008C000EDBF0F900F900F900F90CF91DF91089593
:1008D0004F925F926F927F928F929F92AF92BF9250
:1008E000CF92DF92EF92FF920F931F93DF93CF93FC
:1008F000CDB7DEB72D970FB6F894DEBF0FBECDBFD4
:10090000C982DA82EB82FC820D831E832F833887B3
:1009100049875A876B877C878D87882483940F2E1D
:10092000FAE09F2EF02D0F2EF8EE6F2EF3E07F2EC3
:10093000F02D0F2EF0E9AF2EF1E0BF2EF02D552453
:1009400044244394C980DA80EB80FC800D811E81B1
:100950002F81388549855A856B857C858D850E94D8
:10096000C114892BD9F0C980DA80EB80FC800D811D
:100970001E812F81388549855A856B857C858D85BB
:100980000E946D158A3031F4882011F081E01CC07E
:10099000842C0CC08D3051F0852C08C09301C5010A
:1009A0000197F1F721503040D1F79A94992051F6F0
:1009B00000D08CEA91E0EDB7FEB7928381830E946C
:1009C000A50180E00F900F902D960FB6F894DEBF32
:1009D0000FBECDBFCF91DF911F910F91FF90EF9090
:1009E000DF90CF90BF90AF909F908F907F906F904F
:1009F0005F904F9008956F927F928F929F92AF92E7
:100A0000BF92CF92DF92EF92FF920F931F93DF93EB
:100A1000CF93CDB7DEB72D970FB6F894DEBF0FBEDC
:100A2000CDBFC982DA82EB82FC820D831E832F83C5
:100A3000388749875A876B877C878D873501982C43
:100A400083E6881508F441C0882011F488242AC060
:100A5000882415C0C980DA80EB80FC800D811E815E
:100A60002F81388549855A856B857C858D850E94C7
:100A70006D15F50181935F018394891488F4C98011
:100A8000DA80EB80FC800D811E812F8138854985BD
:100A90005A856B857C858D850E94C114892BD1F682
:100AA000891431F4F301E80DF11D108281E052C088
:100AB00000D08EEB91E0EDB7FEB7928381830E9468
:100AC000A50180E00F900F9045C000D081ED91E02E
:100AD000EDB7FEB7928381830E94A5010F900F901E
:100AE0000F2EF3EEAF2EF1E0BF2EF02D21C0C98006
:100AF000DA80EB80FC800D811E812F81388549854D
:100B00005A856B857C858D850E946D1500D000D03F
:100B1000EDB7FEB73196B182A082992787FD9095F7
:100B2000938382830E94A5010F900F900F900F90E6
:100B3000C980DA80EB80FC800D811E812F81388591
:100B400049855A856B857C858D850E94C114892BCA
:100B500071F680E02D960FB6F894DEBF0FBECDBFC4
:100B6000CF91DF911F910F91FF90EF90DF90CF9089
:100B7000BF90AF909F908F907F906F9008958F92CD
:100B80009F92BF92CF92DF92EF92FF920F931F93AB
:100B9000DF93CF93CDB7DEB769970FB6F894DEBF7A
:100BA0000FBECDBFCD86DE86EF86F88A098B1A8B05
:100BB0002B8B3C8B4D8B5E8B6F8B788F898FBB24FF
:100BC0004E010894811C911C33C0CD84DE84EF84D7
:100BD000F88809891A892B893C894D895E896F8932
:100BE000788D898D0E94C114892B11F1CD84DE840A
:100BF000EF84F88809891A892B893C894D895E8997
:100C00006F89788D898D0E946D158A3029F4FE01D7
:100C1000EB0DF11D11821EC08D3051F0F401EB0D72
:100C2000F11D8083B39489E0B81611F41A8612C0BE
:100C3000CD84DE84EF84F88809891A892B893C8960
:100C40004D895E896F89788D898D0E94BD158823B5
:100C500009F0BBCFCE010196BE01655F7F4F40E139
:100C600050E00E94091E862F69960FB6F894DEBFE9
:100C70000FBECDBFCF91DF911F910F91FF90EF90ED
:100C8000DF90CF90BF909F908F9008952F923F92CA
:100C90004F925F926F927F928F929F92AF92BF928C
:100CA000CF92DF92EF92FF920F931F93DF93CF9338
:100CB000CDB7DEB7AB970FB6F894DEBF0FBECDBF92
:100CC000CF8ED8A2E9A2FAA20BA31CA32DA33EA308
:100CD0004FA358A769A77AA78BA725011401DE01A6
:100CE0001196E5E6F2E087E001900D928150E1F780
:100CF000FE0138968DE0DF011D928A95E9F70F2EEF
:100D0000F5E18F2E9924F02D8C0E9D1E2396BFADFC
:100D100023978B2F992787FD9095B4014AE050E0E7
:100D20000E948C1F3E010894611C711CC301B40118
:100D30000E94671FF30101900020E9F73197CF016E
:100D400086199709B4014AE050E00E948C1FCF8CAD
:100D5000D8A0E9A0FAA00BA11CA12DA13EA14FA1F2
:100D600058A569A57AA58BA50F2EF6EEAF2EF1E05A
:100D7000BF2EF02D0E943B12CF8CD8A0E9A0FAA084
:100D80000BA11CA12DA13EA14FA158A569A57AA533
:100D90008BA50F2EF8EBAF2EF3E0BF2EF02D0E94A7
:100DA0003B12CF8CD8A0E9A0FAA00BA11CA12DA1C9
:100DB0003EA14FA158A569A57AA58BA552010E9415
:100DC0003B12CF8CD8A0E9A0FAA00BA11CA12DA1A9
:100DD0003EA14FA158A569A57AA58BA50F2EFCEEC3
:100DE000AF2EF1E0BF2EF02D0E943B12CF8CD8A089
:100DF000E9A0FAA00BA11CA12DA13EA14FA158A5CD
:100E000069A57AA58BA52296AEACBFAC22970E94AD
:100E10003B12CF8CD8A0E9A0FAA00BA11CA12DA158
:100E20003EA14FA158A569A57AA58BA50F2EF4EF79
:100E3000AF2EF1E0BF2EF02D0E943B12CF8CD8A038
:100E4000E9A0FAA00BA11CA12DA13EA14FA158A57C
:100E500069A57AA58BA551010E943B12CF8CD8A021
:100E6000E9A0FAA00BA11CA12DA13EA14FA158A55C
:100E700069A57AA58BA50F2EF5E0AF2EF2E0BF2E67
:100E8000F02D0E943B12CF8CD8A0E9A0FAA00BA1B4
:100E90001CA12DA13EA14FA158A569A57AA58BA59E
:100EA0000F2EF1E1AF2EF2E0BF2EF02D0E943B128B
:100EB000CF8CD8A0E9A0FAA00BA11CA12DA13EA126
:100EC0004FA158A569A57AA58BA50F2EF8EAAF2EDC
:100ED000F3E0BF2EF02D0E943B12CF8CD8A0E9A0EA
:100EE000FAA00BA11CA12DA13EA14FA158A569A557
:100EF0007AA58BA50F2EF8E1AF2EF2E0BF2EF02DD4
:100F00000E943B12CF8CD8A0E9A0FAA00BA11CA193
:100F10002DA13EA14FA158A569A57AA58BA50F2E9D
:100F2000FCE4AF2EF2E0BF2EF02D0E943B12CF8CDE
:100F3000D8A0E9A0FAA00BA11CA12DA13EA14FA110
:100F400058A569A57AA58BA554010E943B12CF8CA8
:100F5000D8A0E9A0FAA00BA11CA12DA13EA14FA1F0
:100F600058A569A57AA58BA50F2EFDE5AF2EF2E059
:100F7000BF2EF02D0E943B12CF8CD8A0E9A0FAA082
:100F80000BA11CA12DA13EA14FA158A569A57AA531
:100F90008BA553010E943B12CF8CD8A0E9A0FAA0E8
:100FA0000BA11CA12DA13EA14FA158A569A57AA511
:100FB0008BA50F2EF2E6AF2EF2E0BF2EF02D0E9491
:100FC0003B12AB960FB6F894DEBF0FBECDBFCF91EC
:100FD000DF911F910F91FF90EF90DF90CF90BF9026
:100FE000AF909F908F907F906F905F904F903F90C9
:100FF0002F9008952F923F924F925F926F927F921F
:101000008F929F92AF92BF92CF92DF92EF92FF9218
:101010000F931F93DF93CF93CDB7DEB760970FB6D3
:10102000F894DEBF0FBECDBFCE86C982DF86DA82DE
:10103000E88AEB82FC820D831E832F8338874987E1
:101040005A876B877C878D8725010F2EF9E7AF2E96
:10105000F2E0BF2EF02D0E943B12C980DA80EB80B7
:10106000FC800D811E812F81388549855A856B85CD
:101070007C858D850F2EF8EBAF2EF3E0BF2EF02D83
:101080000E943B12C980DA80EB80FC800D811E81BA
:101090002F81388549855A856B857C858D855201E0
:1010A0000E943B12C980DA80EB80FC800D811E819A
:1010B0002F81388549855A856B857C858D850F2ED6
:1010C000FCEEAF2EF1E0BF2EF02D0E943B12C98046
:1010D000DA80EB80FC800D811E812F813885498567
:1010E0005A856B857C858D85ADA0BEA00E943B1284
:1010F000C980DA80EB80FC800D811E812F813885CC
:1011000049855A856B857C858D850F2EFEE7AF2E30
:10111000F2E0BF2EF02D0E943B12C980DA80EB80F6
:10112000FC800D811E812F81388549855A856B850C
:101130007C858D85AFA0B8A40E943B12C980DA805F
:10114000EB80FC800D811E812F81388549855A8571
:101150006B857C858D850F2EF5E9AF2EF2E0BF2ED5
:10116000F02D0E943B12C980DA80EB80FC800D815B
:101170001E812F81388549855A856B857C858D85B3
:1011800054010E943B12C980DA80EB80FC800D8103
:101190001E812F81388549855A856B857C858D8593
:1011A0000F2EF5E0AF2EF2E0BF2EF02D0E943B1285
:1011B000C980DA80EB80FC800D811E812F8138850B
:1011C00049855A856B857C858D850F2EF1E1AF2E83
:1011D000F2E0BF2EF02D0E943B12C980DA80EB8036
:1011E000FC800D811E812F81388549855A856B854C
:1011F0007C858D850F2EF8EAAF2EF3E0BF2EF02D03
:101200000E943B12C980DA80EB80FC800D811E8138
:101210002F81388549855A856B857C858D850F2E74
:10122000F2E6AF2EF2E0BF2EF02D0E943B12C980F5
:10123000DA80EB80FC800D811E812F813885498505
:101240005A856B857C858D850F2EF1EAAF2EF2E0F5
:10125000BF2EF02D0E943B1260960FB6F894DEBFB1
:101260000FBECDBFCF91DF911F910F91FF90EF90F7
:10127000DF90CF90BF90AF909F908F907F906F90B6
:101280005F904F903F902F900895AF92BF92CF9272
:10129000DF92EF92FF920F931F93CF93DF936C0136
:1012A0005B0107EB12E00F2EF0E1EF2EF7E2FF2ECD
:1012B000F02DC0E9D1E010C000D0EDB7FEB7128329
:1012C00001830E94A50197010F900F90CE01019715
:1012D000F1F721503040D1F70E94790C8F3F61F334
:1012E0000E94F20FDC018C9181336CF400D084ED0C
:1012F00092E0EDB7FEB7928381830E94A50180E062
:101300000F900F902DC000D000D0EDB7FEB73196F2
:1013100087EE92E091838083B383A2830E94A5012C
:1013200010E00F900F900F900F900F2EF8EEEF2E11
:10133000F3E0FF2EF02DC0E9D1E0C601B5010E9417
:101340000B119701FE013197F1F721503040D1F791
:10135000039711F481E004C01F5F123371F780E03E
:10136000DF91CF911F910F91FF90EF90DF90CF9081
:10137000BF90AF900895EF92FF920F931F93CF937A
:10138000DF93EC01162F072F7A010E94721F00973E
:1013900011F1A12FB02FFD0101900020E9F7EA1B08
:1013A000FB0B32969C012E0F3F1FAC2FBD2FFD0172
:1013B00001900020E9F73197EA1BFB0BCE018E0F5D
:1013C0009F1F2817390738F4C9010E94381FF701F9
:1013D000808381E001C080E0DF91CF911F910F9168
:1013E000FF90EF9008957F928F929F92AF92BF925D
:1013F000CF92DF92EF92FF920F931F93CF93DF93E1
:101400005C014B01702E00D00F92EDB7FEB7319604
:10141000518340832283C090CE03D090CF03E090CD
:10142000D003F090D1030091D2031091D303209107
:10143000D4033091D5034091D6035091D7036091E6
:10144000D8037091D9038091DA030E9446060F9069
:101450000F900F90772009F491C000D08EEF92E0AA
:10146000EDB7FEB7928381830E94A5010F900F9084
:10147000C3EED1E02EC0C090CE03D090CF03E09059
:10148000D003F090D1030091D2031091D3032091A7
:10149000D4033091D5034091D6035091D703609186
:1014A000D8037091D9038091DA030E946D1500D0A2
:1014B00000D0EDB7FEB73196D183C083992787FD61
:1014C0009095938382830E94A5010F900F900F90B7
:1014D0000F90C090CE03D090CF03E090D003F09057
:1014E000D1030091D2031091D3032091D403309102
:1014F000D5034091D6035091D7036091D8037091E2
:10150000D9038091DA030E94C114892B09F0B3CF6B
:10151000C090CE03D090CF03E090D003F090D103E1
:101520000091D2031091D3032091D4033091D503BD
:101530004091D6035091D7036091D8037091D9039D
:101540008091DA030E94BD15882319F600D082E647
:1015500092E0EDB7FEB7928381830E94A50181E1FD
:1015600093E0EDB7FEB7928381830E94A5010F90AF
:101570000F908EEC93E00E94BD0D04C08EEC93E0C2
:101580000E94BD0DDF91CF911F910F91FF90EF90C1
:10159000DF90CF90BF90AF909F908F907F900895F5
:1015A0006F927F928F929F92AF92BF92CF92DF9273
:1015B000EF92FF920F931F93DF93CF93CDB7DEB7D8
:1015C000C456D0400FB6F894DEBF0FBECDBF5C014D
:1015D0004B01390100D000D0EDB7FEB731965183F1
:1015E00040838EE293E093838283C090CE03D090B9
:1015F000CF03E090D003F090D1030091D20310917B
:10160000D3032091D4033091D5034091D603509158
:10161000D7036091D8037091D9038091DA030E94B7
:10162000FA070F900F900F900F90C090CE03D090BC
:10163000CF03E090D003F090D1030091D20310913A
:10164000D3032091D4033091D5034091D603509118
:10165000D7036091D8037091D9038091DA030E9477
:101660006804882389F400D084E393E0EDB7FEB7E3
:10167000928381830E94A5010F900F908EEC93E0DE
:101680000E94BD0D80E08AC0C090CE03D090CF03F1
:10169000E090D003F090D1030091D2031091D303D6
:1016A0002091D4033091D5034091D6035091D703B4
:1016B0006091D8037091D9038091DA030E94BF052D
:1016C000882E882389F400D08DE493E0EDB7FEB72F
:1016D000928381830E94A5010F900F908EEC93E07E
:1016E0000E94BD0D80E05AC0C090CE03D090CF03C1
:1016F000E090D003F090D1030091D2031091D30376
:101700002091D4033091D5034091D6035091D70353
:101710006091D8037091D9038091DA035E01089437
:10172000A11CB11C0E94FB04882389F400D082E72D
:1017300093E0EDB7FEB7928381830E94A5010F90DD
:101740000F908EEC93E00E94BD0D80E027C0CE018B
:1017500001966EE273E0A3010E94BB098823C9F4DD
:1017600000D000D0EDB7FEB731968DE893E09183BD
:101770008083CE010196938382830E94A5010F90FE
:101780000F900F900F908EEC93E00E94BD0D80E0C3
:1017900005C08EEC93E00E94BD0D81E0CC59DF4F77
:1017A0000FB6F894DEBF0FBECDBFCF91DF911F9172
:1017B0000F91FF90EF90DF90CF90BF90AF909F90F0
:1017C0008F907F906F9008956BEC73E02FEFFB018B
:1017D00021938BEB91E091838083E8EDF3E020830C
:1017E0006A507040CF010A970E94441608958A30CB
:1017F00018F020E030E00CC090E0880F991F82952F
:101800009295907F9827807F98279C0123583B4F83
:10181000822F932F0895CF93DF93EC01FC01EE0FFD
:10182000FF1FE80FF91FEE0FFF1FEE53F94F8081E6
:1018300091810097E9F00E94B11D9E01220F331F94
:101840002C0F3D1FC9010196A2ECB6E0880F991F2D
:10185000FD01E80FF91F11821082220F331FA20F22
:10186000B31F11961C921E9215961C921E921497ED
:10187000DF91CF9108950F931F93DF93CF9300D003
:10188000CDB7DEB7E9E2F0E080818823ECF305E232
:1018900010E0F80180818B7F80831A828FEF89832B
:1018A0008FE360E00E949819F80180818460808352
:1018B000E9E2F0E080818823ECF305E210E0F80132
:1018C00080818B7F80838FE361E0AE014F5F5F4F4C
:1018D0009E012E5F3F4F0E94AA1BF8018081846009
:1018E000808389810F900F90CF91DF911F910F918D
:1018F00008950F931F93DF93CF9300D0CDB7DEB73A
:10190000E9E2F0E080818823ECF305E210E0F801E1
:1019100080818B7F808380E260E00E949819F801CB
:10192000808184608083E9E2F0E080818823ECF3A9
:1019300005E210E0F80180818B7F80838FEF89833F
:101940001A8280E261E0AE014F5F5F4F9E012E5F21
:101950003F4F0E94AA1BF8018081846080838981A7
:101960000F900F90CF91DF911F910F9108952F92BB
:101970003F924F925F926F927F928F929F92AF921F
:10198000BF92CF92DF92EF92FF920F931F93DF935C
:10199000CF9300D00F92CDB7DEB78B8319821A8216
:1019A000AA24BB240F2EF9E2CF2EDD24F02D0F2E1A
:1019B000F5E2EF2EFF24F02D0F2EF3E08F2E992469
:1019C000F02D8C0E9D1E66247724689461F86C0EB1
:1019D0007D1E2E010894411C511C0F2EF8EE2F2E57
:1019E000F3E03F2EF02D00E911E0F601808188231D
:1019F000E4F3F70180818B7F80838AE261E00E94BB
:101A00009819C40161E041E00E944C190E9421191B
:101A10000E942119F701808184608083F601808112
:101A20008823E4F3F70180818B7F80838AE261E081
:101A3000A20193010E94AA1B892B59F400D08BEDBF
:101A400093E0EDB7FEB7928381830E94A5010F90CA
:101A50000F90F7018081846080838981882359F405
:101A60000894A11CB11C9101C8010197F1F7215004
:101A70003040D1F71EC0AA24BB2480E0F9E1AF16A4
:101A8000B10409F081E00F900F900F90CF91DF919A
:101A90001F910F91FF90EF90DF90CF90BF90AF908C
:101AA0009F908F907F906F905F904F903F902F907E
:101AB000089589E1A816B10409F097CFDECF0F93FE
:101AC0001F93DF93CF9300D00F92CDB7DEB78B83F8
:101AD000E9E2F0E080818823ECF305E210E0F80110
:101AE00080818B7F80831A8219828FE261E00E945D
:101AF0009819CE01039661E041E00E944C190E94C2
:101B000021190E942119F801808184608083E9E213
:101B1000F0E080818823ECF3E5E2F0E080818B7FC8
:101B200080838FE261E0AE014F5F5F4F9E012E5FC9
:101B30003F4F0E94AA1B892B59F400D08BEF93E0F2
:101B4000EDB7FEB7928381830E94A5010F900F909D
:101B5000E5E2F0E080818460808389810F900F90BE
:101B60000F90CF91DF911F910F9108958F3F11F446
:101B700080E008950E945F0D0895AF92BF92CF92CA
:101B8000DF92EF92FF920F931F93DF93CF9300D0DA
:101B90000F92CDB7DEB75C01FC0192859F3F09F43F
:101BA0006DC0E9E2F0E080818823ECF305E210E00B
:101BB000F80180818B7F808399838EE261E00E94AF
:101BC0009819CE01019661E041E00E944C190E94F3
:101BD00021190E942119F801808184608083E9E243
:101BE000F0E080818823ECF3E5E2F0E080818B7FF8
:101BF00080831A821B828EE261E0AE014E5F5F4FEE
:101C00009E012D5F3F4F0E94AA1B892B59F400D0E3
:101C10008BEF93E0EDB7FEB7928381830E94A5011D
:101C20000F900F90E5E2F0E0808184608083EE24E5
:101C3000FF240F2EF8EECF2EF3E0DF2EF02D00E97B
:101C400011E007C09601C8010197F1F7215030401B
:101C5000D1F789818F3F59F00E945F0D882339F0B9
:101C60000894E11CF11CF2E3EF16F10459F78981A5
:101C700090E00E940B0C8FEFF50182870F900F9080
:101C80000F90CF91DF911F910F91FF90EF90DF9018
:101C9000CF90BF90AF900895CF92DF92EF92FF92D6
:101CA0000F931F93DF93CF9300D0CDB7DEB78C0196
:101CB000D62E7A01C22EE9E2F0E080818823ECF38F
:101CC000E5E2F0E080818B7F808381E162E00E9429
:101CD0009819C8016D2D40E00E944C19C7016C2D68
:101CE00041E00E944C198D2D90E006968C010C0D60
:101CF000111DC80183709070892B49F00E94211931
:101D00000F5F1F4FC80183709070892BB9F7E5E210
:101D1000F0E0808184608083E9E2F0E080818823C4
:101D2000ECF3E5E2F0E080818B7F808319821A82F8
:101D300081E161E0AE014F5F5F4F9E012E5F3F4F3B
:101D40000E94AA1B892B69F400D08BEF93E0EDB7BA
:101D5000FEB7928381830E94A5018FEF89830F9044
:101D60000F90E5E2F0E080818460808389810F90AC
:101D70000F90CF91DF911F910F91FF90EF90DF9027
:101D8000CF9008950F931F93DF93CF9300D0CDB7DB
:101D9000DEB7E9E2F0E080818823ECF305E210E0B1
:101DA000F80180818B7F808386E360E00E94981930
:101DB000F801808184608083E9E2F0E080818823FB
:101DC000ECF3E5E2F0E080818B7F808319821A8258
:101DD00086E361E0AE014F5F5F4F9E012E5F3F4F94
:101DE0000E94AA1B892B91F400D08BEF93E0EDB7F2
:101DF000FEB7928381830E94A501E5E2F0E0808135
:101E0000846080838FEF0F900F900BC0E5E2F0E0CD
:101E100080818460808389818F3F11F081E001C0DF
:101E20008FEF0F900F90CF91DF911F910F91089539
:101E30000F931F93DF93CF9300D000D0CDB7DEB7C1
:101E40008B836C83E9E2F0E080818823ECF305E288
:101E500010E0F80180818B7F808382E562E00E9440
:101E60009819CE01039661E040E00E944C19CE0122
:101E7000049661E041E00E944C190E942119F8018A
:101E8000808184608083E9E2F0E080818823ECF344
:101E9000E5E2F0E080818B7F808319821A8282E5FF
:101EA00061E0AE014F5F5F4F9E012E5F3F4F0E948A
:101EB000AA1B892B59F400D080E194E0EDB7FEB75E
:101EC000928381830E94A5010F900F90E5E2F0E0DC
:101ED0008081846080830F900F900F900F90CF913E
:101EE000DF911F910F9108950F931F93DF93CF936D
:101EF00000D000D0CDB7DEB78B836C83E9E2F0E091
:101F000080818823ECF305E210E0F80180818B7F6B
:101F1000808380E562E00E949819CE01039661E01B
:101F200040E00E944C19CE01049661E041E00E941D
:101F30004C190E942119F801808184608083E9E2B4
:101F4000F0E080818823ECF3E5E2F0E080818B7F94
:101F5000808319821A8280E561E0AE014F5F5F4F96
:101F60009E012E5F3F4F0E94AA1B892B59F400D07F
:101F700080E194E0EDB7FEB7928381830E94A501D2
:101F80000F900F90E5E2F0E08081846080830F90F5
:101F90000F900F900F90CF91DF911F910F910895A7
:101FA000FF920F931F93182F062FF42E89E161E003
:101FB0000E94740F8AE161E00E94740F8BE161E07E
:101FC0000E94740F89E1602F0E94180F8AE1612F2F
:101FD0000E94180F8BE16F2D0E94180F1F910F9117
:101FE000FF9008950F931F93DF93CF930F92CDB778
:101FF000DEB7E9E2F0E080818823ECF305E210E04F
:10200000F80180818B7F808387E360E00E949819CC
:10201000F801808184608083E9E2F0E08081882398
:10202000ECF3E5E2F0E080818B7F8083198287E327
:1020300061E04CEB56E09E012F5F3F4F0E94AA1BD0
:10204000892B59F400D08BEF93E0EDB7FEB7928364
:1020500081830E94A5010F900F90E5E2F0E080815E
:10206000846080838CEB96E00F90CF91DF911F917D
:102070000F910895CF92DF92EF92FF920F931F93EB
:10208000DF93CF9300D0CDB7DEB7182F092F6B01A8
:10209000E9E2F0E080818823ECF3E5E2F0E0808182
:1020A0008B7F80831A82198284E361E00E949819F1
:1020B000E12FF02FDF010D900020E9F71197AE1B03
:1020C000BF0B812F902F6A2F41E00E944C19A12F46
:1020D000B02FFD0101900020E9F7EA1BFB0B8F01F7
:1020E0000C5F1F4FC80183709070892B49F00E94CC
:1020F00021190F5F1F4FC80183709070892BB9F7AA
:10210000E5E2F0E0808184608083E9E2F0E08081B4
:102110008823ECF305E210E0F80180818B7F808357
:1021200084E361E0AE014F5F5F4F9E012E5F3F4F42
:102130000E94AA1B7C01F801808184608083E114E5
:10214000F10409F45BC0EE24FF248981813019F485
:10215000EE24FF24E394E114F10409F44FC0E9E212
:10216000F0E080818823ECF305E210E0F801808143
:102170008B7F808385E360E00E949819F80180815D
:1021800084608083E9E2F0E080818823ECF3E5E27B
:10219000F0E080818B7F80831A8285E361E0A60175
:1021A0009E012E5F3F4F0E94AA1B892B61F400D035
:1021B0008BEF93E0EDB7FEB7928381830E94A50178
:1021C0000F900F9016C0F60180818F3F79F48181C6
:1021D0008F3F61F482818F3F49F4EE24FF24838195
:1021E0008F3F39F0EE24FF24E39403C0EE24FF2454
:1021F000E394E5E2F0E08081846080838E2D9F2D62
:102200000F900F90CF91DF911F910F91FF90EF9062
:10221000DF90CF900895EF92FF921F93CF93DF93BB
:10222000462F572FE82FF92FDF010D900020E9F7F7
:102230009D01215030402E1B3F0BE62FF72FDF0171
:102240000D900020E9F71197AE1BBF0B622F2A2FCC
:102250000E944C0E8F3F11F484E016C01AE00F2E3E
:10226000F0E5EF2EF3ECFF2EF02DC0E9D1E0970161
:10227000CE010197F1F721503040D1F70E94790C3F
:10228000833010F4115099F790E0DF91CF911F91B6
:10229000FF90EF900895EF92FF920F931F93DF93BB
:1022A000CF9300D000D0CDB7DEB78C837B018A01FD
:1022B000E9E2F0E080818823ECF3E5E2F0E0808160
:1022C0008B7F808384E462E00E949819CE0104969B
:1022D00061E070E040E00E94AE19C701B80141E042
:1022E0000E94AE19075F1F4FC80183709070892B41
:1022F00049F00E9421190F5F1F4FC8018370907031
:10230000892BB9F7E5E2F0E0808184608083E9E21F
:10231000F0E080818823ECF3E5E2F0E080818B7FC0
:1023200080831A8219821B8284E4BE016F5F7F4F13
:10233000AE014D5F5F4F0E94281A892B59F400D0DF
:102340008BEF93E0EDB7FEB7928381830E94A501E6
:102350000F900F90E5E2F0E08081846080838981B6
:102360009A810F900F900F900F90CF91DF911F9156
:102370000F91FF90EF9008958F929F92AF92BF922E
:10238000CF92DF92EF92FF920F931F93DF93CF9341
:10239000CDB7DEB72D970FB6F894DEBF0FBECDBF19
:1023A000C982DA82EB82FC820D831E832F833887F9
:1023B00049875A876B877C878D87F62E8FEF681742
:1023C00071F400D085E294E0EDB7FEB7928381838B
:1023D0000E94A50100E010E00F900F9037C081141B
:1023E000910471F400D085E294E0EDB7FEB79283DA
:1023F00081830E94A50100E010E00F900F9026C09D
:10240000862FB501A4010E944B118C01009761F445
:1024100000D085E294E0EDB7FEB7928381830E94FD
:10242000A5010F900F9012C08F2D0E94B70C88232A
:1024300069F400D085E294E0EDB7FEB79283818322
:102440000E94A50100E010E00F900F90802F912FC7
:102450002D960FB6F894DEBF0FBECDBFCF91DF91A2
:102460001F910F91FF90EF90DF90CF90BF90AF90B2
:102470009F908F9008958F929F92AF92BF92CF922C
:10248000DF92EF92FF920F931F93DF93CF93CDB71D
:10249000DEB72D970FB6F894DEBF0FBECDBFC98251
:1024A000DA82EB82FC820D831E832F833887498773
:1024B0005A876B877C878D8700D000D0EDB7FEB739
:1024C000319683E394E091838083A282B3820E9459
:1024D000A501EA2DFB2DDF010D900020E9F71197F2
:1024E000AE1BBF0B0F900F900F900F90C980DA803A
:1024F000EB80FC800D811E812F81388549855A85AE
:102500006B857C858D854D010E94BC112D960FB683
:10251000F894DEBF0FBECDBFCF91DF911F910F9119
:10252000FF90EF90DF90CF90BF90AF909F908F90F3
:102530000895CF92DF92EF92FF920F931F93DF9354
:10254000CF93CDB7DEB728970FB6F894DEBF0FBE96
:10255000CDBF7C018B01842F4887FB012681378109
:102560004085518529833A834B835C83C384D4841B
:10257000F70192859D831E821F82882351F5E9E22F
:10258000F0E080818823ECF305E210E0F80180811F
:102590008B7F80838DE264E00E949819CE010196C2
:1025A00064E040E00E944C19C60160E00E943319CB
:1025B000CE01059661E040E00E944C19CE010896DC
:1025C00061E041E00E944C19F801808184608083C1
:1025D00064C0823009F052C019821A821B821C82A8
:1025E000FB01A081B181FD0101900020E9F7319745
:1025F000FE2EFA1AE9E2F0E080818823ECF3E5E2AE
:10260000F0E080818B7F80838DE265E00E949819E5
:10261000F801808191816F2D40E00E944C19CE011C
:10262000019664E040E00E944C19C60160E00E94FF
:102630003319CE01059661E040E00E944C19CE01AD
:10264000089661E041E00E944C198F2D90E08C01CA
:102650000F5E1F4FC80183709070892B49F00E9454
:1026600021190F5F1F4FC80183709070892BB9F734
:10267000E5E2F0E08081846080830FC000D086E3D3
:1026800094E0EDB7FEB7928381830E94A5018FEF9E
:10269000F70182870F900F9026C0E9E2F0E0808179
:1026A0008823ECF3E5E2F0E080818B7F80838DE28C
:1026B00061E0AE014A5F5F4F9E01295F3F4F0E947C
:1026C000AA1B892B59F400D08BEF93E0EDB7FEB72E
:1026D000928381830E94A5010F900F90E5E2F0E0C4
:1026E00080818460808328960FB6F894DEBF0FBE89
:1026F000CDBFCF91DF911F910F91FF90EF90DF90B1
:10270000CF900895CF92DF92EF92FF920F931F9395
:10271000DF93CF930F92CDB7DEB789836B017A0138
:10272000E9E2F0E080818823ECF305E210E0F801B3
:1027300080818B7F808385E462E00E949819CE01BE
:10274000019661E070E040E00E94AE19C70162E0CE
:1027500070E041E00E94AE190E942119F8018081C9
:1027600084608083E9E2F0E080818823ECF3E5E295
:10277000F0E080818B7F808385E4B601A7010E9411
:10278000911A892B59F400D08BEF93E0EDB7FEB787
:10279000928381830E94A5010F900F90E5E2F0E003
:1027A000808184608083F70140815181411551050A
:1027B00011F041E050E0842F952F0F90CF91DF91E1
:1027C0001F910F91FF90EF90DF90CF9008950F939E
:1027D0001F93DF93CF9300D0CDB7DEB78C01FC0100
:1027E000EE0FFF1FE80FF91FEE0FFF1FEA53F94F1F
:1027F00080819181892B09F05CC0F801EE0FFF1FE9
:10280000E00FF11FEE0FFF1FEE53F94F8081918112
:10281000892BF1F480E490E00E94041DA801440F8C
:10282000551F400F511F9A012F5F3F4FE2ECF6E01A
:10283000220F331FDF01A20FB31F8C9311969C93BD
:10284000440F551FE40FF51F808391831582148276
:1028500080E490E09A838983F801EE0FFF1FE00F78
:10286000F11FEE0FFF1FEE53F94F60817181802F32
:10287000AE014F5F5F4F0E948213892BD1F0980108
:10288000220F331F200F311FC9010196E2ECF6E041
:10289000880F991FDF01A80FB91F220F331FE20F06
:1028A000F31F808191818D939C9389819A81958377
:1028B0008483F801EE0FFF1FE00FF11FEE0FFF1FE3
:1028C000EA53F94F808191810F900F90CF91DF9162
:1028D0001F910F9108958F929F92AF92BF92CF92C6
:1028E000DF92EF92FF920F931F93CF93DF93EC0150
:1028F000962E872E5A010E94E713009719F440E0A4
:1029000050E030C08A159B050CF45C016E01CC0CC4
:10291000DD1CCC0EDD1EC601019602EC16E0880F10
:10292000991F7801E80EF91EF70160817181892DE8
:10293000982D4A2D5B2D0E945E1FF70180819181A9
:102940008A0D9B1D91838083CC0CDD1C0C0D1D1DFD
:102950000C5F1F4FF801808191818A199B09918337
:102960008083A501842F952FDF91CF911F910F9127
:10297000FF90EF90DF90CF90BF90AF909F908F909F
:102980000895CF92DF92EF92FF920F931F93DF9300
:10299000CF93CDB7DEB72F970FB6F894DEBF0FBE3B
:1029A000CDBFCB82DC82ED82FE820F831887298720
:1029B0003A874B875C876D877E878F87F62E8FEFF0
:1029C000681719F420E030E077C0062F10E0F80116
:1029D000EE0FFF1FE00FF11FEE0FFF1FEA53F94F3D
:1029E00080819181892B09F05CC0F801EE0FFF1FF7
:1029F000E00FF11FEE0FFF1FEE53F94F8081918121
:102A0000892BF1F480E490E00E94041DA801440F9A
:102A1000551F400F511F9A012F5F3F4FE2ECF6E028
:102A2000220F331FDF01A20FB31F8C9311969C93CB
:102A3000440F551FE40FF51F808391831582148284
:102A400080E490E09A838983F801EE0FFF1FE00F86
:102A5000F11FEE0FFF1FEE53F94F608171818F2D33
:102A6000AE014F5F5F4F0E948213892BD1F0980116
:102A7000220F331F200F311FC9010196E2ECF6E04F
:102A8000880F991FDF01A80FB91F220F331FE20F14
:102A9000F31F808191818D939C9389819A81958385
:102AA0008483F801EE0FFF1FE00FF11FEE0FFF1FF1
:102AB000EA53F94F20813181822F932F2F960FB641
:102AC000F894DEBF0FBECDBFCF91DF911F910F9164
:102AD000FF90EF90DF90CF9008955F926F927F927A
:102AE0008F929F92AF92BF92CF92DF92EF92FF921E
:102AF0000F931F93DF93CF93CDB7DEB72E970FB60B
:102B0000F894DEBF0FBECDBFCA82DB82EC82FD82AD
:102B10000E831F83288739874A875B877D878E8747
:102B2000562E6C870E94C114892B19F42FEF3FEFAA
:102B30000CC0852D90E0BE016F5F7F4F41E050E0FB
:102B40000E946B148981282F30E0822F932F2E96BC
:102B50000FB6F894DEBF0FBECDBFCF91DF911F91AE
:102B60000F91FF90EF90DF90CF90BF90AF909F902C
:102B70008F907F906F905F900895BF92CF92DF9279
:102B8000EF92FF920F931F93DF93CF93CDB7DEB7F2
:102B90002D970FB6F894DEBF0FBECDBFC982DA8283
:102BA000EB82FC820D831E832F83388749875A87E7
:102BB0007C878D87B62E8FEF681711F480E043C0B5
:102BC0006B87C980DA80EB80FC800D811E812F81AC
:102BD000388549855A857C858D850E94C114892B4D
:102BE00089F58B2D0E94B60D8230E8F18530D9F140
:102BF0008630C9F18A30B9F18230A9F1833099F178
:102C0000873001F530C00E94B11D9801220F331F9B
:102C1000200F311FC9010196A2ECB6E0880F991F61
:102C2000FD01E80FF91F11821082220F331FA20F3E
:102C3000B31F11961C921E9215961C921E92149709
:102C400080E001C081E02D960FB6F894DEBF0FBE84
:102C5000CDBFCF91DF911F910F91FF90EF90DF904B
:102C6000CF90BF9008950B2D10E0F801EE0FFF1FDD
:102C7000E00FF11FEE0FFF1FEE53F94F808191819E
:102C8000009709F680E0DFCF8F929F92AF92BF92BC
:102C9000CF92DF92EF92FF920F931F93CF93DF9328
:102CA000EC018B018A858F3F71F000D08AE494E0BB
:102CB000EDB7FEB7928381830E94A50121E030E049
:102CC0000F900F9061C00E943B0C8A878F3F09F4E0
:102CD0004EC0CE01B80142E00E949912AA24BB2442
:102CE0000F2EF0EA8F2EFFE09F2EF02D03C0C401BF
:102CF0000197F1F7C880D980EA80FB800C811D81A3
:102D00002E813F81488559856A857B858C850E9407
:102D1000BD15882341F40894A11CB11CF1EAAF163B
:102D2000FFE0BF0621F7C880D980EA80FB800C81D4
:102D30001D812E813F81488559856A857B858C85DB
:102D40000E94BD15882319F020E030E01DC000D09E
:102D500087E594E0EDB7FEB7928381830E94A501D9
:102D60008FEF8A8722E030E00F900F900DC000D0E7
:102D700087E694E0EDB7FEB7928381830E94A501B8
:102D800023E030E00F900F90822F932FDF91CF91AF
:102D90001F910F91FF90EF90DF90CF90BF90AF9079
:102DA0009F908F9008958F929F92AF92BF92CF92F3
:102DB000DF92EF92FF920F931F93CF93DF93EC017B
:102DC0008B01FB0181919191BF010E943A10F801A2
:102DD000258130E040E050E0522F4427332722275E
:102DE000848190E0A0E0B0E0DC0199278827280FDB
:102DF000391F4A1F5B1F8281280F311D411D511D44
:102E0000838190E0A0E0B0E0BA2FA92F982F882707
:102E1000280F391F4A1F5B1F26833783408751873E
:102E20008A858F3F71F000D08AE494E0EDB7FEB759
:102E3000928381830E94A50120E030E00F900F90E3
:102E400056C00E943B0C8A878F3F09F443C0CE01D5
:102E5000B80140E00E949912AA24BB240F2EF0EA88
:102E60008F2EFFE09F2EF02D03C0C4010197F1F7D4
:102E7000C880D980EA80FB800C811D812E813F8132
:102E8000488559856A857B858C850E94BD15882378
:102E900041F40894A11CB11CF1EAAF16FFE0BF0693
:102EA00021F7C880D980EA80FB800C811D812E81AA
:102EB0003F81488559856A857B858C850E94BD1533
:102EC000882319F021E030E012C08FEF8A8720E0DC
:102ED00030E00DC000D087E694E0EDB7FEB79283F6
:102EE00081830E94A50120E030E00F900F90822F97
:102EF000932FDF91CF911F910F91FF90EF90DF9073
:102F0000CF90BF90AF909F908F9008950F931F9395
:102F1000DF93CF93CDB7DEB72A970FB6F894DEBF15
:102F20000FBECDBF9C01E9E2F0E080818823ECF385
:102F300005E210E0F80180818B7F808319823B835A
:102F40002A831C827E836D831F825987488781E292
:102F500061E00E9498198FEF8A87CE010A9661E09E
:102F600041E00E944C190E9421190E942119F80188
:102F7000808184608083E9E2F0E080818823ECF343
:102F800005E210E0F80180818B7F808381E263E0BD
:102F9000AE014F5F5F4F0E94FB1AF8018081846091
:102FA00080832A960FB6F894DEBF0FBECDBFCF91B7
:102FB000DF911F910F910895EF92FF920F931F934E
:102FC0007C0100E916E0C80164E976E048E956E0D2
:102FD0000E948617F801219130E040E050E0522F26
:102FE000442733272227808190E0A0E0B0E0DC0175
:102FF00099278827280F391F4A1F5B1FF8018381F3
:10300000280F311D411D511D828190E0A0E0B0E0EC
:10301000BA2FA92F982F8827280F391F4A1F5B1F07
:10302000F70120833183428353831F910F91FF90D7
:10303000EF900895EF92FF920F931F93DF93CF933A
:1030400000D0CDB7DEB7E9E2F0E080818823ECF371
:1030500005E210E0F80180818B7F808383E261E0EC
:103060000E9498198FEF8983CE01019661E041E0BB
:103070000E944C190E9421190E942119F801808197
:1030800084608083E9E2F0E080818823ECF305E24C
:1030900010E0F80180818B7F80830F2EFCE9EF2EFA
:1030A000F6E0FF2EF02D80E2F70111928A95E9F704
:1030B0001A8283E261E0A7019E012E5F3F4F0E94CA
:1030C000AA1BF801808184608083C7010F900F9054
:1030D000CF91DF911F910F91FF90EF9008950F9383
:1030E0001F93DF93CF930F92CDB7DEB7E9E2F0E005
:1030F00080818823ECF305E210E0F80180818B7F6A
:10310000808387E260E00E949819F80180818460E2
:103110008083E9E2F0E080818823ECF305E210E0AF
:10312000F80180818B7F8083198287E2BE016F5F07
:103130007F4F4DE754E02AE00E943B1CF80180815C
:103140008460808389810F90CF91DF911F910F91CF
:103150000895EF92FF921F93CF93DF930E94C20EC8
:103160008F3FB1F01AE00F2EF0E2EF2EFEE4FF2EBB
:10317000F02DC0E9D1E09701CE010197F1F7215080
:103180003040D1F70E946F18882311F4115099F73D
:10319000DF91CF911F91FF90EF900895A4E2B0E0EE
:1031A0008C9184608C93E5E2F0E080818460808380
:1031B0008C9188608C938081806180838C91806207
:1031C0008C93ECE4F0E08081826080838081806178
:1031D000808380818F7D8083808180648083EAE228
:1031E000F0E080818062808380818F778083EBE252
:1031F000F0E080818F7D808380E49CE90197F1F786
:103200008081806280832CE43DE140E951E0CA0185
:103210000197F1F721503040D1F708958EBDEDE4CC
:10322000F0E080818823ECF78EB508950F931F930B
:103230008C018FEF0E940E19F80180831F910F916E
:103240000895DF93CF930F92CDB7DEB71982CE01E9
:1032500001960E94161989810F90CF91DF910895F0
:103260000E940E190895FF920F931F93182F092F94
:10327000F62E82E00E943019802F0E940E19812FB5
:103280000E940E1981E0F81619F48EEE0E940E19B4
:103290001F910F91FF900895DF92EF92FF920F938D
:1032A0001F93CF93DF937C01162FD42E862F0E947D
:1032B0003019012F10E01016110664F4C0E0D0E0C0
:1032C000F701EC0FFD1F80810E940E192196C01797
:1032D000D107B4F381E0D81619F48EEE0E940E19CE
:1032E000DF91CF911F910F91FF90EF90DF900895A4
:1032F0001F93182F892F0E940E19812F0E940E19DB
:103300001F910895FF920F931F93F82E8B01CB010D
:103310000E94161920E030E0F80180818F1511F429
:1033200021E030E0822F932F1F910F91FF9008959D
:103330000F931F93182F062F80EE0E940E19812FD6
:103340008F770E940E19802F0E940E19002319F406
:103350008EEE0E940E191F910F910895DF92EF9249
:10336000FF920F931F93CF93DF937C018B01D42E99
:10337000CB010E9478190115110561F0C0E0D0E081
:10338000F701EC0FFD1F80810E940E192196C017D6
:10339000D107B0F381E0D81619F48EEE0E940E1911
:1033A000DF91CF911F910F91FF90EF90DF900895E3
:1033B000CF93DF93EC018FEF0E940E19209709F055
:1033C0008883DF91CF9108951F93CF93DF93EC0112
:1033D0008FEF0E940E19182F8FEF0E940E19312FB8
:1033E00020E090E0282B392B209711F03983288397
:1033F000822F932FDF91CF911F9108951F93CF9329
:10340000DF93182FC8EED3E00E9421198F3E71F48C
:1034100000D08DEB95E0EDB7FEB7928381830E94DB
:10342000A5012FEF3FEF0F900F900CC0209721F0D8
:10343000811711F02197E8CF20E030E0811711F4D7
:1034400021E030E0822F932FDF91CF911F910895DB
:10345000CF92DF92EF92FF920F931F93DF93CF9360
:103460000F92CDB7DEB7182F6B017A01198280EE6B
:103470000E94FE19892B71F400D080ED95E0EDB724
:10348000FEB7928381830E94A50120E030E00F9077
:103490000F903BC0812F8068BE016F5F7F4F0E94FD
:1034A0008219892B71F400D08AEE95E0EDB7FEB752
:1034B000928381830E94A50120E030E00F900F905D
:1034C00024C00E9421198823C1F0C7010E94D81985
:1034D000F7018081882389F000E010E08FEF0E94DF
:1034E0000E19F601E00FF11F80830F5F1F4FF701E8
:1034F000808190E0081719078CF38EEEBE016F5F94
:103500007F4F0E94821921E030E0822F932F0F908D
:10351000CF91DF911F910F91FF90EF90DF90CF90AF
:103520000895CF92DF92EF92FF920F931F93DF9354
:10353000CF930F92CDB7DEB7182F6B017A011982A6
:1035400080EE0E94FE19892B71F400D080ED95E089
:10355000EDB7FEB7928381830E94A50120E030E0A1
:103560000F900F903CC0812F8068BE016F5F7F4F2E
:103570000E948219892B71F400D08AEE95E0EDB794
:10358000FEB7928381830E94A50120E030E00F9076
:103590000F9025C00E9421198823C9F0C7010E94FD
:1035A000E419F70180819181892B89F000E010E016
:1035B0008FEF0E940E19F601E00FF11F80830F5F5D
:1035C0001F4FF701808191810817190788F38EEE4C
:1035D000BE016F5F7F4F0E94821921E030E0822F91
:1035E000932F0F90CF91DF911F910F91FF90EF904C
:1035F000DF90CF9008956F927F928F929F92AF92BB
:10360000BF92CF92DF92EF92FF920F931F93DF93BF
:10361000CF930F92CDB7DEB7082F662EF42EE52E8E
:10362000198280EE0E94FE19892B71F400D080ED82
:1036300095E0EDB7FEB7928381830E94A50120E05B
:1036400030E00F900F9074C0802F8068BE016F5FD4
:103650007F4F0E948219892B71F400D08AEE95E089
:10366000EDB7FEB7928381830E94A50120E030E090
:103670000F900F905DC00E942119782E882391F140
:10368000882E992418141904DCF52F2D3E2D69017C
:10369000AA24BB2480E090E00E94D819F601808320
:1036A0008823A9F0EE24FF24F601018112810E0D7A
:1036B0001F1D8FEF0E940E19F80180830894E11CF2
:1036C000F11CF601808190E0E816F9066CF308948D
:1036D000A11CB11C83E090E0C80ED91EA814B90447
:1036E000CCF20EC000D088EF95E0EDB7FEB7928324
:1036F00081830E94A50120E030E00F900F9018C058
:10370000671471F000D08EE096E0EDB7FEB79283BB
:1037100081830E94A50120E030E00F900F9008C047
:103720008EEEBE016F5F7F4F0E94821921E030E074
:10373000822F932F0F90CF91DF911F910F91FF90C8
:10374000EF90DF90CF90BF90AF909F908F907F9041
:103750006F900895CF92DF92EF92FF920F931F9395
:10376000DF93CF930F92CDB7DEB7182F062F6A01E4
:103770007901198280EE0E94FE19892B71F400D024
:1037800080ED95E0EDB7FEB7928381830E94A5019D
:1037900020E030E00F900F9062C0812F8068BE0162
:1037A0006F5F7F4F0E948219892B71F400D082E2F3
:1037B00096E0EDB7FEB7928381830E94A50120E0D9
:1037C00030E00F900F904BC0802FBE016F5F7F4F96
:1037D0000E948219892B29F500D000D000D0EDB7C6
:1037E000FEB7319682E396E0918380830283138251
:1037F0008981992787FD9095958384830E94A501EF
:103800000F900F900F900F9081E596E0EDB7FEB707
:10381000928381830E94A50120E030E00F900F90F9
:103820001EC0C7010E94D819F7018081882379F052
:1038300000E010E0C601800F911F0E9416190F5F73
:103840001F4FF701808190E0081719079CF38EEE57
:10385000BE016F5F7F4F0E94821921E030E0822F0E
:10386000932F0F90CF91DF911F910F91FF90EF90C9
:10387000DF90CF9008956F927F928F929F92AF9238
:10388000BF92CF92DF92EF92FF920F931F93DF933D
:10389000CF93CDB7DEB7C154D0400FB6F894DEBF9A
:1038A0000FBECDBFF82E8B01E22E88249924689498
:1038B00081F88C0E9D1E842F952FF4019E012A5EA7
:1038C0003F4F819391938096E217F307D1F71982C6
:1038D00080EE0E94FE19892B81F400D080ED95E0E6
:1038E000ADB7BEB712969C938E9311970E94A50117
:1038F00020E030E00F900F906FC08F2D8068BE01E8
:103900006F5F7F4F0E948219892B71F400D08AEE7D
:1039100095E0EDB7FEB7928381830E94A50120E078
:1039200030E00F900F9058C00E942119E81608F45B
:103930008E2DD8018C93882399F1682E7724161444
:1039400017040CF041C0AA24BB2480E090E00E9440
:10395000D819E82EFF241E141F041CF0EE24FF24A7
:1039600011C0F401C080D18000E010E08FEF0E9410
:103970000E19F601E00FF11F80830F5F1F4F0E1528
:103980001F05A4F3D401ED91FD914D01EE0DFF1D36
:1039900010820894A11CB11CA614B704B4F214C080
:1039A00000D081E696E0EDB7FEB7928381830E9456
:1039B000A5010F900F908EEEBE016F5F7F4F0E94AA
:1039C000821920E030E008C08EEEBE016F5F7F4FAD
:1039D0000E94821921E030E0822F932FCF5BDF4FCE
:1039E0000FB6F894DEBF0FBECDBFCF91DF911F9110
:1039F0000F91FF90EF90DF90CF90BF90AF909F908E
:103A00008F907F906F900895CF93DF93BC018230A9
:103A1000910510F462E070E0A0910507B0910607EF
:103A2000ED01E0E0F0E040E050E021C088819981C4
:103A30008617970769F48A819B81309719F09383E1
:103A4000828304C09093060780930507FE0134C06B
:103A50006817790738F44115510519F0841795074F
:103A600008F4AC01FE018A819B819C01E901209749
:103A7000E9F641155105A9F1CA01861B970B049778
:103A800008F4BA01E0E0F0E02AC08D919C91119712
:103A900084179507F9F46417750781F412968D91D0
:103AA0009C911397309719F09383828304C090936D
:103AB000060780930507FD0132964FC0CA01861B99
:103AC000970BFD01E80FF91F6193719302978D9396
:103AD0009C9343C0FD01828193819C01D901109781
:103AE000A1F68091030790910407892B41F48091FE
:103AF0007A0690917B069093040780930307409188
:103B00007C0650917D064115510541F44DB75EB7D5
:103B10008091780690917906481B590B20910307F4
:103B20003091040724173507B0F4CA01821B930BA8
:103B30008617970780F0AB014E5F5F4F841795079C
:103B400050F0420F531F5093040740930307F901AD
:103B50006193719302C0E0E0F0E0CF01DF91CF917B
:103B60000895CF93DF93009709F450C0EC0122979A
:103B70001B821A82A0910507B0910607109709F1E0
:103B800040E050E0AC17BD0708F1BB83AA83FE01FB
:103B900021913191E20FF31FAE17BF0779F48D9198
:103BA0009C911197280F391F2E5F3F4F398328832F
:103BB00012968D919C9113979B838A834115510591
:103BC00071F4D0930607C093050720C012968D911B
:103BD0009C911397AD01009711F0DC01D3CFFA014E
:103BE000D383C28321913191E20FF31FCE17DF07F8
:103BF00069F488819981280F391F2E5F3F4FFA01A0
:103C0000318320838A819B8193838283DF91CF914B
:103C100008952F923F925F926F927F928F929F9220
:103C2000AF92BF92CF92DF92EF92FF920F931F93CA
:103C3000CF93DF938C011B01EA016115710519F027
:103C4000FB0191838083209749F0CE0102978397EF
:103C500028F020E030E040E050E0F6C0F801A1900C
:103C60008F018A2D90E00E94561F892BB9F7FDE243
:103C7000AF1631F4F801A1908F015524539407C079
:103C8000FBE2AF1619F4F801A1908F01552420979B
:103C900019F0C031D105C1F4F0E3AF1679F4F801A1
:103CA0008081883711F0883549F4F801A1800E5FD2
:103CB0001F4FF2E05F2AC0E1D0E006C0209721F458
:103CC00080E3A816E9F427C0C830D10531F1C93026
:103CD000D10524F4C230D10531F50CC0CA30D1056C
:103CE00089F0C031D105F9F4C12CD12CE12CB8E018
:103CF000FB2E28C0C12CD12CE12CA0E4FA2E22C02E
:103D0000CAE0D0E0FCECCF2EFCECDF2EFCECEF2E7A
:103D1000FCE0FF2E17C0C8E0D0E0C12CD12CE12C74
:103D2000E0E1FE2E0FC09E01442737FD4095542F41
:103D300060E070E080E090E80E94FB1FC901DA01BA
:103D40006C017D0120E030E040E050E060E03E01A9
:103D5000882477FC8094982C70EDB72EBA0CE9E09B
:103D6000EB1570F48A2D81548A3118F499ECB92E30
:103D700006C08A2D81568A3150F589EAB82EBA0CD0
:103D80008B2D90E08C179D0714F56F3FE1F0C21664
:103D9000D306E406F506B0F0CA01B901A401930107
:103DA0000E94C81F9B01AC012B0D311D411D511DEF
:103DB0002130F0E03F07F0E04F07F0E85F0710F434
:103DC00061E001C06FEFF801A1908F01C5CF211410
:103DD000310481F0662331F001501040F10111836C
:103DE000008308C051FE1AC002501040F101118337
:103DF000008314C067FF12C050FC05C02FEF3FEFD7
:103E00004FEF5FE704C020E030E040E050E882E29E
:103E100090E0909308078093070716C050FE08C0F3
:103E200050954095309521953F4F4F4F5F4F0CC0B7
:103E300057FF0AC082E290E090930807809307073B
:103E40002FEF3FEF4FEF5FE7B901CA01DF91CF914D
:103E50001F910F91FF90EF90DF90CF90BF90AF90A8
:103E60009F908F907F906F905F903F902F900895DC
:103E7000FC0188279927E89421912032E9F3293021
:103E800010F02E30C8F32B3241F02D3239F4689403
:103E900004C00E94AD1F820F911D219120532A3032
:103EA000C0F31EF4909581959F4F089591115DC0C8
:103EB000803219F089508550D0F70895FB01DC015C
:103EC00002C001900D9241505040D8F70895FB0177
:103ED000DC010D900020E9F7119701900D92002070
:103EE000E1F70895FB0151915523A9F0BF01DC01D1
:103EF0004D9145174111E1F759F4CD010190002092
:103F000049F04D9140154111C9F3FB014111EFCF2B
:103F100081E090E001970895FB019F01E894423011
:103F2000C4F04532B4F44A3029F497FB1EF490955E
:103F300081959F4F642F77270E94E71F805D8A330A
:103F40000CF0895D8193CB010097A1F716F45DE237
:103F500051931082C9010C94B81F7AE0979F902D5D
:103F6000879F802D910D1124089599278827089502
:103F7000DC01FC01672F71917723E1F7329704C0D0
:103F80007C916D9370836291AE17BF07C8F308955B
:103F9000629FD001739FF001829FE00DF11D649F2D
:103FA000E00DF11D929FF00D839FF00D749FF00DB9
:103FB000659FF00D9927729FB00DE11DF91F639F5A
:103FC000B00DE11DF91FBD01CF0111240895AA1BF9
:103FD000BB1B51E107C0AA1FBB1FA617B70710F0F4
:103FE000A61BB70B881F991F5A95A9F78095909526
:103FF000BC01CD010895A1E21A2EAA1BBB1BFD0135
:104000000DC0AA1FBB1FEE1FFF1FA217B307E407B7
:10401000F50720F0A21BB30BE40BF50B661F771F0F
:10402000881F991F1A9469F76095709580959095EF
:0E4030009B01AC01BD01CF010895F894FFCFB4
:10403E005769666920536869656C6420696E697496
:10404E0069616C697A6174696F6E2074657374202E
:10405E000A0D00436F6D6D756E69636174696F6EE5
:10406E0020776974682057694669206D6F64756C96
:10407E0065206661696C6564210A0D00506C65618E
:10408E00736520757067726164652074686520665B
:10409E0069726D776172650D0A004669726D77619E
:1040AE0072652076657273696F6E2025732E0D0A08
:1040BE00000300535349443A2025730D0A0049501A
:1040CE0020416464726573733A200025642E256462
:1040DE002E25642E2564200D0A0D0A0048656164A4
:1040EE0065722074696D656F75742E0D0A004572C8
:1040FE00726F7220626F647920726561642E0D0A90
:10410E0000426F647920746F6F206C617267652E48
:10411E000D0A00256300504F535420002F6665652D
:10412E0064732F002F646174613F782D61696F2D68
:10413E006B65793D0020485454502F312E310D0AB5
:10414E0000486F73743A20000D0A436F6E74656EEB
:10415E00742D547970653A206170706C6963617466
:10416E00696F6E2F782D7777772D666F726D2D753F
:10417E00726C656E636F6465640D0A00436F6E74D6
:10418E00656E742D4C656E6774683A20000D0A0DCD
:10419E000A000D0A0076616C75653D000000000096
:1041AE0000000000000000000047455420002F646E
:1041BE006174613F6C696D69743D3126696E636C23
:1041CE007564653D0026782D61696F2D6B65793DAF
:1041DE0000436F6E6E656374696F6E3A20636C6F29
:1041EE0073650D0A0D0A00455350333220636F6D0F
:1041FE006D756E69636174696F6E206572726F7230
:10420E00210A0D0055706772616465206669726DD2
:10421E00776172650D0A004669726D77617265206D
:10422E0076657273696F6E2025732E0D0A005365C5
:10423E007276657220726573706F6E73653A0D0AD1
:10424E0000646973636F6E6E656374696E67206672
:10425E00726F6D207365727665722E0D0A0076612F
:10426E006C756500556E61626C6520746F20736BA2
:10427E006970206865616465722E0D0A0045727260
:10428E006F722072656164696E67206C656E67740B
:10429E0068206F66206874747020626F64792E0DCA
:1042AE000A004572726F722072656164696E6720D2
:1042BE006A736F6E20626F64792E0D0A00457272FA
:1042CE006F722070617273696E6720626F64793AE3
:1042DE00200D0A25730D0A00696F2E6164616672E6
:1042EE007569742E636F6D002F6170692F76322F92
:1042FE0000A8030000000000000000FFBB0100004A
:10430E000000000000000000FF00006572726F7276
:10431E002077616974526573706F6E73652069736F
:10432E004461746153656E740D0A006572726F722A
:10433E002077616974526573706F6E73650D0A0034
:10434E006572726F722077616974526573706F6EE9
:10435E0073650A0D005772697465204572726F722B
:10436E000D0A00257300556E6B6E6F776E2070729E
:10437E006F744D6F64652E0D0A004E6F20736F6360
:10438E006B65742E0D0A006E6F20636F6E6E656323
:10439E0074696F6E0D0A004E6F20536F636B6574F8
:1043AE0020617661696C61626C650D0A00310000F6
:1043BE0000000000000000000000000000000000EF
:1043CE0000000000000000000000000000320000AD
:1043DE0000000000000000000000000000000000CF
:1043EE00000000000000000000000000003300008C
:1043FE0000000000000000000000000000000000AF
:10440E00000000000000000000000000003400006A
:10441E00000000000000000000000000000000008E
:10442E000000000000000000000000000035000049
:10443E00000000000000000000000000000000006E
:10444E00000000000000000000000000000000005E
:10445E00000000000000000000000000000000004E
:10446E00000000000000000000000000000000003E
:10447E00000000000000000000000000000000002E
:10448E00000000000000000000000000000000001E
:10449E00000000000000000000000000000000000E
:1044AE0000000000000000000000000000000000FE
:1044BE0000000000000000000000000000000000EE
:1044CE0000000000000000000000000000000000DE
:1044DE0000000000000000000000000000000000CE
:1044EE000000000000000000000000000045727295
:1044FE0020636D642072656365697665640A0D00DC
:10450E004572726F722077616974696E67205354B9
:10451E004152545F434D440A0D005265706C792030
:10452E006572726F720A0D004572726F72206E752F
:10453E006D506172616D203D3D20300A0D004D6958
:10454E00736D61746368206E756D506172616D0A72
:10455E000D005265706C792031206572726F720A8F
:10456E000D00457870656374656420256420616E66
:10457E00642072656365697665642025642E0D0A74
:10458E00005265706C792032206572726F720A0D5E
:10459E00004572726F72206E756D506172616D732F
:0E45AE00203D3D20300A0D00200009070000CE
:00000001FF
