:100000000C9434000C9451000C9453000C94510047
:100010000C9451000C9451000C9451000C9451001C
:100020000C9451000C9451000C9451000C9451000C
:100030000C9451000C9451000C9451000C945100FC
:100040000C9451000C9451000C9451000C945100EC
:100050000C9451000C9451000C9451000C945100DC
:100060000C9451000C94510011241FBECFEFD8E026
:10007000DEBFCDBF11E0A0E0B1E0E8EAF6E002C0EB
:1000800005900D92A634B107D9F711E0A6E4B1E0CE
:1000900001C01D92A935B107E1F70E946E000C94D2
:1000A00052030C9400001F920F920FB60F9211246E
:1000B0008F9381E0809358018F910F900FBE0F9026
:1000C0001F901895EDE3F0E0808182608083E9E67F
:1000D000F0E080818860808378940895CF92DF92E9
:1000E000EF92FF920F931F93CF93DF93EAE2F0E03A
:1000F0008081877F8083EBE2F0E08081886080836D
:100100000E9431030E9462001092580100D080E0EA
:1001100091E0EDB7FEB7928381830E948A0182E26B
:1001200091E0EDB7FEB7928381830E948A0110E0CF
:100130000F900F900F2EF9E3EF2EF1E0FF2EF02D30
:100140000F2EF0E2CF2EFEE4DF2EF02DC0E9D1E03D
:1001500000E001C0102F8DB79EB708970FB6F89436
:100160009EBF0FBE8DBFEDB7FEB73196F182E08224
:100170001283138214831582168317820E948A01C8
:100180009601EDB7FEB738960FB6F894FEBF0FBED6
:10019000EDBFCE010197F1F721503040D1F78091AA
:1001A0005801882321F000935801102FD4CF133623
:1001B00089F21F5FD0CFE0914601F0914701819312
:1001C000F0934701E09346010895982F8A3014F484
:1001D00080E307C080915601882311F487E501C0B0
:1001E00087E3890F0E94DB0081E080935701089527
:1001F000AC0180915401909155018417950710F43A
:10020000E0E017C066277727641B750B9C01241B51
:10021000350BE0E0EF5FF22FA32F260F371FC90148
:10022000840F951F84179507A8F7F0935401A093A6
:10023000550180915701882311F4EE2319F08E2F78
:100240000E94E5000895EF92FF920F931F930F2EE7
:10025000F0E3EF2EF02D0F2EF0E3FF2EF02D00E354
:100260000E944A03182F0E943E031D3021F0EF2CFC
:10027000F02E012FF5CF802F805D24E69E2D920277
:1002800090011124820F2AE09F2D920290011124E7
:10029000820F1F910F91FF90EF900895EF92FF92C0
:1002A0000F931F93CF93DF937C0170E0EB012197B5
:1002B0001C161D0614F000E012C000E00E944A0364
:1002C000182F0E943E031D3051F0F701E00FF11D81
:1002D00010830F5F802F90E08C179D077CF3F70150
:1002E000E00FF11D1082DF91CF911F910F91FF90D0
:1002F000EF900895CF93DF93FC018081882339F03C
:10030000EF010E944703898121968823D1F7DF916D
:10031000CF9108952F923F924F925F926F927F926A
:100320008F929F92AF92BF92CF92DF92EF92FF9205
:100330000F931F93DF93CF93CDB7DEB70F2EF5E169
:10034000EF2EFF24F02DEC0EFD1EF701C190D19091
:100350007F010F2EF8E46F2EF1E07F2EF02D0F2E8F
:10036000F0E34F2EF02D842C5524689455F80F2E71
:10037000F4E52F2EF1E03F2EF02D5BC10894C11C57
:10038000D11C853221F00E944703570151C1F6016B
:1003900011916F01103311F0992404C011916F0174
:1003A00099249394912F812F80538A3010F000E08C
:1003B00012C000E0892F8053902F990F990F900F52
:1003C000990F082F090FF60111916F01912F812FBD
:1003D00080538A3078F37092470160924601109200
:1003E0005701133609F4C2C014369CF4183509F4C9
:1003F00051C019355CF4123409F478C01334ACF4EC
:10040000112309F41BC1153281F4C6C0123669F4F8
:100410006DC0133709F4B6C014371CF4143629F430
:1004200007C0153729F01837A9F15701D301B9C012
:10043000F701208131812093540130935501143606
:1004400069F433235CF488279927821B930B9093DC
:100450005501809354018DE20E94DB00AA24BB2445
:100460006894A1F8AE0CBF1C80E197E20E94F800EE
:1004700088EE93E00E94F80084E690E00E94F80085
:100480008AE090E00E94F800F10180810E94E5007E
:10049000D30187C0842D0E94DB0088E70E94DB0027
:1004A00010925601183519F4F1E0F0935601AA2480
:1004B000BB246894A1F8AE0CBF1CF7018081918128
:1004C000909355018093540180E090E10E94F800E0
:1004D00080E091E00E94F80080E190E00E94F80046
:1004E000F10180810E94E500D3015BC0842D0E9450
:1004F000DB0082E60E94DB0010925601123419F4F0
:10050000F1E0F0935601AA24BB246894A1F8AE0C44
:10051000BF1CF70180819181907090935501809369
:100520005401F1E0F093570180E890E00E94F80058
:1005300080E490E00E94F80080E290E00E94F800E1
:1005400080E190E00E94F80088E090E00E94F800CE
:1005500084E090E00E94F80082E090E00E94F800C1
:10056000F10180810E94E500D3011BC0AA24BB24B5
:100570006894A1F8AE0CBF1CF70180810E94DB00DB
:10058000D3010FC0AA24BB246894A1F8AE0CBF1CF1
:10059000F701A081B18105C085E20E94DB0057010F
:1005A000D301E0914601F09147011082B0934701D9
:1005B000A0934601FD0181917F01F0934701E093F3
:1005C0004601882389F010163CF50150E091460160
:1005D000F09147018191F0934701E0934601882310
:1005E00019F0101694F318C01016B4F48C918D32D3
:1005F00011F07D0103C08DE20E944703102F1150BE
:10060000992011F4852D01C0882D0E9447031116F1
:1006100014F41150F5CFD7018C91882349F08D0146
:100620000E944703F80181810F5F1F4F8823C1F7A4
:100630007501F6018081882309F0A0CECF91DF916A
:100640001F910F91FF90EF90DF90CF90BF90AF90F0
:100650009F908F907F906F905F904F903F902F90E2
:10066000089587E690E09093C5008093C40088E1E8
:100670008093C10086E08093C2000895982FE0EC3B
:10068000F0E0808185FFFDCF9093C60008950E9421
:100690003E030895E0ECF0E080818823ECF7809140
:0806A000C6000895F894FFCF95
:1006A800436F756E7465722077697468207365721C
:1006B80069616C206F75747075742064656D6F0D59
:1006C8000A0042696E6172792009486578200944F8
:1006D8006563696D616C0D0A002562092578092535
:0606E800640D0A00800011
:00000001FF
