:100000000C9434000C9451000C9451000C94510049
:100010000C9451000C9451000C9451000C9451001C
:100020000C9451000C9451000C9451000C946600F7
:100030000C9451000C9451000C9451000C945100FC
:100040000C9451000C9451000C9451000C945100EC
:100050000C9451000C9451000C9451000C945100DC
:100060000C9451000C94510011241FBECFEFD8E026
:10007000DEBFCDBF11E0A0E0B1E0EAE9F8E002C0E8
:1000800005900D92A231B107D9F711E0A2E1B1E0DC
:1000900001C01D92A532B107E1F70E9475000C94D2
:1000A0004B040C940000A1E8B0E02C9128602C9344
:1000B000EFE6F0E020812260208390938900809316
:1000C00088008C9184608C93789408951F920F928D
:1000D0000FB60F9211248F9381E0809312018F91BC
:1000E0000F900FBE0F901F901895CF92DF92EF9256
:1000F000FF920F931F93DF93CF93CDB7DEB72A976D
:100100000FB6F894DEBF0FBECDBF0E9436030E942B
:100110001C040E94150384E294EF0E9453008FE0B8
:100120000E94F4038FE390E09A8389839C838B83FE
:100130001E821D8298878F839A878987CE010196B8
:100140000E94D10300E010E0CC24DD247E0108945D
:10015000E11CF11C80911201882321F00F5F1F4FD9
:100160001092120187E20031180708F08601C801D9
:10017000B7010E946503C7010E94D103EBCFE09154
:100180001301F09114018193F0931401E093130192
:100190000895982F8A3014F480E307C080912301DA
:1001A000882311F487E501C087E3890F0E94BF000F
:1001B00081E0809324010895AC0180912101909108
:1001C00022018417950710F4E0E017C0662777270F
:1001D000641B750B9C01241B350BE0E0EF5FF22FD5
:1001E000A32F260F371FC901840F951F841795076A
:1001F000A8F7F0932101A093220180912401882384
:1002000011F4EE2319F08E2F0E94C9000895EF9289
:10021000FF920F931F930F2EF0E3EF2EF02D0F2E72
:10022000F0E3FF2EF02D00E30E942E03182F0E9412
:1002300022031D3021F0EF2CF02E012FF5CF802F5F
:10024000805D24E69E2D920290011124820F2AE007
:100250009F2D920290011124820F1F910F91FF9008
:10026000EF900895EF92FF920F931F93CF93DF9338
:100270007C0170E0EB0121971C161D0614F000E0D4
:1002800012C000E00E942E03182F0E9422031D308E
:1002900051F0F701E00FF11D10830F5F802F90E008
:1002A0008C179D077CF3F701E00FF11D1082DF91A1
:1002B000CF911F910F91FF90EF900895CF93DF930F
:1002C000FC018081882339F0EF010E942B03898192
:1002D00021968823D1F7DF91CF9108952F923F92F5
:1002E0004F925F926F927F928F929F92AF92BF9246
:1002F000CF92DF92EF92FF920F931F93DF93CF93F2
:10030000CDB7DEB70F2EF5E1EF2EFF24F02DEC0E6A
:10031000FD1EF701C190D1907F010F2EF5E16F2EE8
:10032000F1E07F2EF02D0F2EF0E34F2EF02D842CD8
:100330005524689455F80F2EF1E22F2EF1E03F2E50
:10034000F02D5BC10894C11CD11C853221F00E94A4
:100350002B03570151C1F60111916F01103311F0B8
:10036000992404C011916F0199249394912F812FA6
:1003700080538A3010F000E012C000E0892F8053D3
:10038000902F990F990F900F990F082F090FF601D1
:1003900011916F01912F812F80538A3078F37092E1
:1003A00014016092130110922401133609F4C2C0A3
:1003B00014369CF4183509F451C019355CF4123424
:1003C00009F478C01334ACF4112309F41BC11532BD
:1003D00081F4C6C0123669F46DC0133709F4B6C093
:1003E00014371CF4143629F407C0153729F01837D0
:1003F000A9F15701D301B9C0F701208131812093C0
:10040000210130932201143669F433235CF48827E8
:100410009927821B930B90932201809321018DE2F7
:100420000E94BF00AA24BB246894A1F8AE0CBF1C94
:1004300080E197E20E94DC0088EE93E00E94DC00FD
:1004400084E690E00E94DC008AE090E00E94DC00FC
:10045000F10180810E94C900D30187C0842D0E94D0
:10046000BF0088E70E94BF0010922301183519F4DD
:10047000F1E0F0932301AA24BB246894A1F8AE0C08
:10048000BF1CF7018081918190932201809321010B
:1004900080E090E10E94DC0080E091E00E94DC00BE
:1004A00080E190E00E94DC00F10180810E94C9009F
:1004B000D3015BC0842D0E94BF0082E60E94BF0072
:1004C00010922301123419F4F1E0F0932301AA24CD
:1004D000BB246894A1F8AE0CBF1CF7018081918108
:1004E00090709093220180932101F1E0F093240118
:1004F00080E890E00E94DC0080E490E00E94DC0054
:1005000080E290E00E94DC0080E190E00E94DC004C
:1005100088E090E00E94DC0084E090E00E94DC0033
:1005200082E090E00E94DC00F10180810E94C9001D
:10053000D3011BC0AA24BB246894A1F8AE0CBF1C35
:10054000F70180810E94BF00D3010FC0AA24BB2401
:100550006894A1F8AE0CBF1CF701A081B18105C061
:1005600085E20E94BF005701D301E0911301F09191
:1005700014011082B0931401A0931301FD01819125
:100580007F01F0931401E0931301882389F0101682
:100590003CF50150E0911301F09114018191F09329
:1005A0001401E0931301882319F0101694F318C076
:1005B0001016B4F48C918D3211F07D0103C08DE2E0
:1005C0000E942B03102F1150992011F4852D01C08A
:1005D000882D0E942B03111614F41150F5CFD7016A
:1005E0008C91882349F08D010E942B03F8018181B1
:1005F0000F5F1F4F8823C1F77501F60180818823A3
:1006000009F0A0CECF91DF911F910F91FF90EF9055
:10061000DF90CF90BF90AF909F908F907F906F9022
:100620005F904F903F902F90089587E690E09093D1
:10063000C5008093C40088E18093C10086E0809368
:10064000C2000895982FE0ECF0E0808185FFFDCF97
:100650009093C60008950E9422030895E0ECF0E014
:1006600080818823ECF78091C600089588E4809308
:10067000B80084E48093BC000895ECEBF0E0808146
:100680008823ECF7089584EA8093BC000E943D0320
:10069000089584E98093BC00089584EC8093BC00A5
:1006A0000E943D038091BB00089584E88093BC00C4
:1006B0000E943D038091BB0008958093BB0084E8B5
:1006C0008093BC000E943D030895EF92FF921F9318
:1006D000CF93DF93EC017B0187E2C031D807C8F0EC
:1006E00049E750E020E031E002C02F5F3F5F223059
:1006F00021F4F70115821482F8CF822F90E0880F41
:10070000991FF701E80FF91F51834083353068F3D3
:1007100042C0CE0168EE73E00E94370421E031E070
:10072000F901E60FF71F8081F70180831182CE0166
:1007300068EE73E00E943704482F192F64E670E0DA
:100740000E943704F901E60FF71F8081F7018283C9
:10075000138215821482842F912F64E670E00E9428
:100760003704482F192F6AE070E00E943704F9011E
:10077000E60FF71F8081F70186831782842F912F60
:100780006AE070E00E943704280F391FF901808168
:10079000F70180871186DF91CF911F91FF90EF9035
:1007A00008950F931F93CF93DF938C010E9443030F
:1007B00080EE0E945D0380E00E945D03C0E0D0E017
:1007C000F801EC0FFD1F80810E945D0380E00E9414
:1007D0005D032296CA30D10599F70E944903DF9143
:1007E000CF911F910F9108951F93182F0E944303DB
:1007F00080EE0E945D03812F806E0E945D030E9447
:1008000049031F9108951F93182F0E94430380EE00
:100810000E945D03112321F481E80E945D0305C05D
:10082000123018F083E80E945D0385E80E945D03A2
:100830000E9449031F9108950E94430380EE0E9485
:100840005D0381E20E945D030E94430380EE0E94EB
:100850005D0381E80E945D030E94430380EE0E94D5
:100860005D0387EE0E945D030E9449030895AA1B61
:10087000BB1B51E107C0AA1FBB1FA617B70710F08B
:10088000A61BB70B881F991F5A95A9F780959095BD
:0A089000BC01CD010895F894FFCFDC
:10089A00703F065B4F666D7D077F6F777C395E79A7
:0208AA007100DB
:00000001FF
