:100000000C9434000C9451000C9451000C94510049
:100010000C9451000C9451000C9451000C9451001C
:100020000C9451000C9451000C9451000C946600F7
:100030000C9451000C9451000C9451000C945100FC
:100040000C9451000C9451000C9451000C945100EC
:100050000C9451000C9451000C9451000C945100DC
:100060000C9451000C94510011241FBECFEFD8E026
:10007000DEBFCDBF11E0A0E0B1E0ECEDF9E002C0E1
:1000800005900D92A231B107D9F711E0A2E1B1E0DC
:1000900001C01D92A532B107E1F70E9475000C94D2
:1000A000EC040C940000A1E8B0E02C9128602C93A3
:1000B000EFE6F0E020812260208390938900809316
:1000C00088008C9184608C93789408951F920F928D
:1000D0000FB60F9211248F9381E0809312018F91BC
:1000E0000F900FBE0F901F9018958F929F92AF9216
:1000F000BF92CF92DF92EF92FF920F931F93DF9305
:10010000CF93CDB7DEB72A970FB6F894DEBF0FBEF8
:10011000CDBF0E9468030E944E0484E294EF0E94C7
:1001200053008FE00E9426042FE330E03A832983B6
:100130003C832B838FEF90E09E838D8338872F83C2
:100140003A872987CE0101960E94030400E010E05F
:10015000EE24FF240F2EFFEF8F2E9924F02D0F2E6B
:10016000F4E6AF2EBB24F02D6E010894C11CD11C07
:1001700080911201882321F00F5F1F4F109212010E
:100180000C33110551F40894E11CF11C8CE3E816C2
:10019000F104D1F4EE24FF2417C0EA9CC001EB9CCB
:1001A000900DFA9C900D1124800F911FB6010E94B2
:1001B000970300FD03C09E828D8202C01E821D82B5
:1001C000C6010E940304D4CFEA9CC001EB9C900DB1
:1001D000FA9C900D1124B6010E94970300E010E0F4
:1001E000EACFE0911301F09114018193F09314018F
:1001F000E09313010895982F8A3014F480E307C028
:1002000080912301882311F487E501C087E3890FDA
:100210000E94F10081E0809324010895AC01809157
:100220002101909122018417950710F4E0E017C096
:1002300066277727641B750B9C01241B350BE0E0B8
:10024000EF5FF22FA32F260F371FC901840F951FD1
:1002500084179507A8F7F0932101A09322018091BC
:100260002401882311F4EE2319F08E2F0E94FB0045
:100270000895EF92FF920F931F930F2EF0E3EF2E4E
:10028000F02D0F2EF0E3FF2EF02D00E30E9460030F
:10029000182F0E9454031D3021F0EF2CF02E012F57
:1002A000F5CF802F805D24E69E2D920290011124CF
:1002B000820F2AE09F2D920290011124820F1F913C
:1002C0000F91FF90EF900895EF92FF920F931F937D
:1002D000CF93DF937C0170E0EB0121971C161D0684
:1002E00014F000E012C000E00E946003182F0E948A
:1002F00054031D3051F0F701E00FF11D10830F5F23
:10030000802F90E08C179D077CF3F701E00FF11D23
:100310001082DF91CF911F910F91FF90EF90089580
:10032000CF93DF93FC018081882339F0EF010E9495
:100330005D03898121968823D1F7DF91CF910895BC
:100340002F923F924F925F926F927F928F929F92E5
:10035000AF92BF92CF92DF92EF92FF920F931F93D3
:10036000DF93CF93CDB7DEB70F2EF5E1EF2EFF244D
:10037000F02DEC0EFD1EF701C190D1907F010F2EE4
:10038000F5E16F2EF1E07F2EF02D0F2EF0E34F2ED2
:10039000F02D842C5524689455F80F2EF1E22F2E61
:1003A000F1E03F2EF02D5BC10894C11CD11C8532B9
:1003B00021F00E945D03570151C1F60111916F01B7
:1003C000103311F0992404C011916F019924939472
:1003D000912F812F80538A3010F000E012C000E08E
:1003E000892F8053902F990F990F900F990F082FF5
:1003F000090FF60111916F01912F812F80538A30DF
:1004000078F3709214016092130110922401133654
:1004100009F4C2C014369CF4183509F451C01935DA
:100420005CF4123409F478C01334ACF4112309F4E9
:100430001BC1153281F4C6C0123669F46DC0133782
:1004400009F4B6C014371CF4143629F407C0153764
:1004500029F01837A9F15701D301B9C0F70120815C
:1004600031812093210130932201143669F4332322
:100470005CF488279927821B930B90932201809329
:1004800021018DE20E94F100AA24BB246894A1F806
:10049000AE0CBF1C80E197E20E940E0188EE93E053
:1004A0000E940E0184E690E00E940E018AE090E036
:1004B0000E940E01F10180810E94FB00D30187C0E0
:1004C000842D0E94F10088E70E94F1001092230120
:1004D000183519F4F1E0F0932301AA24BB246894A1
:1004E000A1F8AE0CBF1CF70180819181909322018D
:1004F0008093210180E090E10E940E0180E091E074
:100500000E940E0180E190E00E940E01F1018081C5
:100510000E94FB00D3015BC0842D0E94F10082E6A3
:100520000E94F10010922301123419F4F1E0F093CB
:100530002301AA24BB246894A1F8AE0CBF1CF701C8
:100540008081918190709093220180932101F1E04C
:10055000F093240180E890E00E940E0180E490E096
:100560000E940E0180E290E00E940E0180E190E086
:100570000E940E0188E090E00E940E0184E090E06D
:100580000E940E0182E090E00E940E01F101808144
:100590000E94FB00D3011BC0AA24BB246894A1F8CD
:1005A000AE0CBF1CF70180810E94F100D3010FC087
:1005B000AA24BB246894A1F8AE0CBF1CF701A0814B
:1005C000B18105C085E20E94F1005701D301E0919D
:1005D0001301F09114011082B0931401A093130140
:1005E000FD0181917F01F0931401E09313018823B1
:1005F00089F010163CF50150E0911301F0911401BF
:100600008191F0931401E0931301882319F01016DF
:1006100094F318C01016B4F48C918D3211F07D0152
:1006200003C08DE20E945D03102F1150992011F438
:10063000852D01C0882D0E945D03111614F4115000
:10064000F5CFD7018C91882349F08D010E945D037D
:10065000F80181810F5F1F4F8823C1F77501F601F3
:100660008081882309F0A0CECF91DF911F910F9157
:10067000FF90EF90DF90CF90BF90AF909F908F90C2
:100680007F906F905F904F903F902F90089587E6F6
:1006900090E09093C5008093C40088E18093C100EE
:1006A00086E08093C2000895982FE0ECF0E080810E
:1006B00085FFFDCF9093C60008950E9454030895CE
:1006C000E0ECF0E080818823ECF78091C60008958B
:1006D00088E48093B80084E48093BC000895ECEB38
:1006E000F0E080818823ECF7089584EA8093BC00D1
:1006F0000E946F03089584E98093BC00089584EC00
:100700008093BC000E946F038091BB00089584E831
:100710008093BC000E946F038091BB00089580937A
:10072000BB0084E88093BC000E946F030895EF92A1
:10073000FF921F93CF93DF93EC017B0187E2C031DF
:10074000D807C8F049E750E020E031E002C02F5F51
:100750003F5F223021F4F70115821482F8CF822FF7
:1007600090E0880F991FF701E80FF91F518340832C
:10077000353068F342C0CE0168EE73E00E94D804C1
:1007800021E031E0F901E60FF71F8081F701808356
:100790001182CE0168EE73E00E94D804482F192F11
:1007A00064E670E00E94D804F901E60FF71F80812B
:1007B000F7018283138215821482842F912F64E6BD
:1007C00070E00E94D804482F192F6AE070E00E9460
:1007D000D804F901E60FF71F8081F701868317829D
:1007E000842F912F6AE070E00E94D804280F391FEF
:1007F000F9018081F70180871186DF91CF911F91E8
:10080000FF90EF9008950F931F93CF93DF938C0188
:100810000E94750380EE0E948F0380E00E948F0388
:10082000C0E0D0E0F801EC0FFD1F80810E948F0333
:1008300080E00E948F032296CA30D10599F70E946A
:100840007B03DF91CF911F910F9108951F93182F74
:100850000E94750380EE0E948F03812F806E0E949C
:100860008F030E947B031F9108951F93182F0E94EE
:10087000750380EE0E948F03112321F481E80E940A
:100880008F0305C0123018F083E80E948F0385E8BB
:100890000E948F030E947B031F9108950E9475039D
:1008A00080EE0E948F0381E20E948F030E947503F5
:1008B00080EE0E948F0381E80E948F030E947503DF
:1008C00080EE0E948F0387EE0E948F030E947B03BD
:1008D0000895EAE7F0E0808180648083808186FD6E
:1008E000FDCF2091780030917900822F932F0895C9
:1008F000982F882331F4ECE7F0E08081807F8083BB
:1009000021C0813049F4ECE7F0E08081807F808372
:1009100080818160808321C0823049F4ECE7F0E07F
:100920008081807F8083808182608083089583308E
:1009300049F4ECE7F0E08081807F808380818360F0
:1009400080830895943049F4ECE7F0E08081807F63
:1009500080838081846080830895953041F4ECE742
:10096000F0E08081807F808380818560808308952E
:10097000853049F4ECE7F0E08081806480838081F9
:100980008F7780830895ECE7F0E08081806C80832E
:10099000089585E00E94B80480E00E947804EAE7A8
:1009A000F0E0808187608083808180688083089503
:1009B000AA1BBB1B51E107C0AA1FBB1FA617B70785
:1009C00010F0A61BB70B881F991F5A95A9F78095A1
:0C09D0009095BC01CD010895F894FFCF74
:1009DC00703F065B4F666D7D077F6F777C395E7964
:0209EC00710098
:00000001FF
