:100000000C9434000C9451000C9451000C94510049
:100010000C9451000C9451000C9451000C9451001C
:100020000C9451000C9451000C9451000C9451000C
:100030000C9451000C9451000C9451000C945100FC
:100040000C9451000C9451000C9451000C945100EC
:100050000C9451000C9451000C9451000C945100DC
:100060000C9451000C94510011241FBECFEFD8E026
:10007000DEBFCDBF11E0A0E0B1E0E6E7F8E002C0EE
:1000800005900D92A231B107D9F711E0A2E1B1E0DC
:1000900001C01D92A432B107E1F70E9453000C94F5
:1000A00039040C940000AF92BF92CF92DF92FF927E
:1000B0000F931F93DF93CF93CDB7DEB72A970FB679
:1000C000F894DEBF0FBECDBF0E9425030E940A0434
:1000D00080E00E94E30386E790E09A8389838FE3C0
:1000E00090E09C838B831E821D8288E390E098873A
:1000F0008F8387E790E09A878987CE0101960E94D7
:10010000C003FF240F2EF0EDAF2EF7E0BF2EF02D31
:1001100000E911E00F2EF8E6CF2EFFEBDF2EF02DD9
:100120000BC08F2D0E94E3039501C8010197F1F7E1
:1001300021503040D1F7F3948FE08F1590F782E093
:100140000E94F2039601C8010197F1F72150304057
:10015000D1F780E00E94F203FF24EECFE09112017C
:10016000F09113018193F0931301E093120108952C
:10017000982F8A3014F480E307C0809122018823ED
:1001800011F487E501C087E3890F0E94AE0081E08A
:10019000809323010895AC01809120019091210169
:1001A0008417950710F4E0E017C066277727641BD3
:1001B000750B9C01241B350BE0E0EF5FF22FA32FA2
:1001C000260F371FC901840F951F84179507A8F7BD
:1001D000F0932001A093210180912301882311F441
:1001E000EE2319F08E2F0E94B8000895EF92FF922F
:1001F0000F931F930F2EF0E3EF2EF02D0F2EF0E351
:10020000FF2EF02D00E30E941D03182F0E94110302
:100210001D3021F0EF2CF02E012FF5CF802F805DC7
:1002200024E69E2D920290011124820F2AE09F2D38
:10023000920290011124820F1F910F91FF90EF9075
:100240000895EF92FF920F931F93CF93DF937C015A
:1002500070E0EB0121971C161D0614F000E012C09F
:1002600000E00E941D03182F0E9411031D3051F061
:10027000F701E00FF11D10830F5F802F90E08C17C6
:100280009D077CF3F701E00FF11D1082DF91CF9104
:100290001F910F91FF90EF900895CF93DF93FC0192
:1002A0008081882339F0EF010E941A038981219609
:1002B0008823D1F7DF91CF9108952F923F924F92EB
:1002C0005F926F927F928F929F92AF92BF92CF92E6
:1002D000DF92EF92FF920F931F93DF93CF93CDB7EF
:1002E000DEB70F2EF5E1EF2EFF24F02DEC0EFD1EF4
:1002F000F701C190D1907F010F2EF4E16F2EF1E054
:100300007F2EF02D0F2EF0E34F2EF02D842C552450
:10031000689455F80F2EF0E22F2EF1E03F2EF02DCD
:100320005BC10894C11CD11C853221F00E941A03C4
:10033000570151C1F60111916F01103311F0992449
:1003400004C011916F0199249394912F812F8053B0
:100350008A3010F000E012C000E0892F8053902F07
:10036000990F990F900F990F082F090FF60111910E
:100370006F01912F812F80538A3078F3709213018F
:100380006092120110922301133609F4C2C0143690
:100390009CF4183509F451C019355CF4123409F491
:1003A00078C01334ACF4112309F41BC1153281F465
:1003B000C6C0123669F46DC0133709F4B6C01437DD
:1003C0001CF4143629F407C0153729F01837A9F1A1
:1003D0005701D301B9C0F701208131812093200159
:1003E00030932101143669F433235CF4882799276C
:1003F000821B930B90932101809320018DE20E9438
:10040000AE00AA24BB246894A1F8AE0CBF1C80E106
:1004100097E20E94CB0088EE93E00E94CB0084E636
:1004200090E00E94CB008AE090E00E94CB00F101B6
:1004300080810E94B800D30187C0842D0E94AE0045
:1004400088E70E94AE0010922201183519F4F1E0FD
:10045000F0932201AA24BB246894A1F8AE0CBF1C1F
:10046000F70180819181909321018093200180E0A8
:1004700090E10E94CB0080E091E00E94CB0080E1FF
:1004800090E00E94CB00F10180810E94B800D3016E
:100490005BC0842D0E94AE0082E60E94AE001092E6
:1004A0002201123419F4F1E0F0932201AA24BB24B2
:1004B0006894A1F8AE0CBF1CF70180819181907007
:1004C0009093210180932001F1E0F093230180E8D3
:1004D00090E00E94CB0080E490E00E94CB0080E29C
:1004E00090E00E94CB0080E190E00E94CB0088E089
:1004F00090E00E94CB0084E090E00E94CB0082E07C
:1005000090E00E94CB00F10180810E94B800D301ED
:100510001BC0AA24BB246894A1F8AE0CBF1CF70131
:1005200080810E94AE00D3010FC0AA24BB2468942E
:10053000A1F8AE0CBF1CF701A081B18105C085E216
:100540000E94AE005701D301E0911201F091130116
:100550001082B0931301A0931201FD0181917F01DC
:10056000F0931301E0931201882389F010163CF5F3
:100570000150E0911201F09113018191F093130168
:10058000E0931201882319F0101694F318C0101686
:10059000B4F48C918D3211F07D0103C08DE20E9484
:1005A0001A03102F1150992011F4852D01C0882DA8
:1005B0000E941A03111614F41150F5CFD7018C9133
:1005C000882349F08D010E941A03F80181810F5F91
:1005D0001F4F8823C1F77501F6018081882309F038
:1005E000A0CECF91DF911F910F91FF90EF90DF9000
:1005F000CF90BF90AF909F908F907F906F905F90C3
:100600004F903F902F90089587E690E09093C5001B
:100610008093C40088E18093C10086E08093C2008B
:100620000895982FE0ECF0E0808185FFFDCF909356
:10063000C60008950E9411030895E0ECF0E0808167
:100640008823ECF78091C600089588E48093B80071
:1006500084E48093BC000895ECEBF0E08081882373
:10066000ECF7089584EA8093BC000E942C0308955F
:1006700084E98093BC00089584EC8093BC000E94C0
:100680002C038091BB00089584E88093BC000E94F5
:100690002C038091BB0008958093BB0084E8809375
:1006A000BC000E942C030895EF92FF921F93CF93FA
:1006B000DF93EC017B0187E2C031D807C8F049E73E
:1006C00050E020E031E002C02F5F3F5F223021F494
:1006D000F70115821482F8CF822F90E0880F991FBE
:1006E000F701E80FF91F51834083353068F342C0AA
:1006F000CE0168EE73E00E94250421E031E0F901AB
:10070000E60FF71F8081F70180831182CE0168EE2A
:1007100073E00E942504482F192F64E670E00E94C0
:100720002504F901E60FF71F8081F7018283138208
:1007300015821482842F912F64E670E00E942504B4
:10074000482F192F6AE070E00E942504F901E60F96
:10075000F71F8081F70186831782842F912F6AE02B
:1007600070E00E942504280F391FF9018081F701EC
:1007700080871186DF91CF911F91FF90EF900895B0
:100780000F931F93CF93DF938C010E94320380EE6F
:100790000E944C0380E00E944C03C0E0D0E0F801CE
:1007A000EC0FFD1F80810E944C0380E00E944C03EF
:1007B0002296CA30D10599F70E943803DF91CF9174
:1007C0001F910F9108951F93182F0E94320380EEFE
:1007D0000E944C03812F806E0E944C030E943803BC
:1007E0001F9108951F93182F0E94320380EE0E94DC
:1007F0004C03123018F083E80E944C03112319F4C3
:1008000087E80E944C0385E80E944C030E9438034D
:100810001F9108950E94320380EE0E944C0381E2F2
:100820000E944C030E94320380EE0E944C0381E838
:100830000E944C030E94320380EE0E944C0387EE1C
:100840000E944C030E9438030895AA1BBB1B51E170
:1008500007C0AA1FBB1FA617B70710F0A61BB70B30
:10086000881F991F5A95A9F780959095BC01CD01D5
:060870000895F894FFCF8B
:10087600703F065B4F666D7D077F6F777C395E79CB
:020886007100FF
:00000001FF
