:100000000C9434000C9451000C9475000C94510025
:100010000C9451000C9451000C9451000C9451001C
:100020000C9451000C9451000C9451000C946600F7
:100030000C9451000C9451000C9451000C945100FC
:100040000C9451000C9451000C9451000C945100EC
:100050000C9451000C9451000C9451000C945100DC
:100060000C9451000C94510011241FBECFEFD8E026
:10007000DEBFCDBF12E0A0E0B1E0E6ECF8E102C0E7
:1000800005900D92A83CB107D9F712E0A8ECB2E0B8
:1000900001C01D92AC3DB107E1F70E9490000C94A5
:1000A000610C0C940000A1E8B0E02C9128602C9326
:1000B000EFE6F0E020812260208390938900809316
:1000C00088008C9184608C93789408951F920F928D
:1000D0000FB60F9211248F9381E08093C8028F9105
:1000E0000F900FBE0F901F9018951F920F920FB692
:1000F0000F9211248F9381E08093C9028F910F900A
:100100000FBE0F901F901895EDE3F0E080818260A4
:100110008083E9E6F0E080818860808378940895A8
:100120002F923F924F925F926F927F928F929F9207
:10013000AF92BF92CF92DF92EF92FF920F931F93F5
:10014000DF93CF93CDB7DEB72B970FB6F894DEBF12
:100150000FBECDBFEAE2F0E08081806880838081BD
:10016000806480838081877F8083EBE2F0E0808100
:10017000886080830E9454050E9433050E94A60671
:1001800081E00E94950684E294EF0E9453000E9451
:100190003A060E9484008FE00E9412068FE390E0EE
:1001A0009A8389839C838B831E821D8298878F8389
:1001B0009A878987CE0101960E94EF0500E010E042
:1001C000AA24BB241B860F2EF8ED4F2EFFEF5F2EC7
:1001D000F02D0F2EF8ED2F2EFFEF3F2EF02D662481
:1001E00077240F2EFBE2CF2EDD24F02D8091C80264
:1001F000882309F43CC10E945506A0E0B0E0BC0190
:10020000CD012CE434E040E050E00E94A70B20E058
:1002100034E040E050E00E94ED0BDA01C901845F58
:1002200091406AE070E00E94DA0B862F972F8C01D4
:10023000B801882777FD8095982F0E94590926E6F6
:1002400036E646EE5FE30E945F0820E030E040E0E3
:1002500052E40E9432080E94B7095B011092C80262
:100260008B858F5F8B8781E00E9464060E94550614
:10027000A0E0B0E0BC01CD012CE434E040E050E06F
:100280000E94A70B20E034E040E050E00E94ED0B1C
:10029000DA01C901845F91406AE070E00E94DA0BE4
:1002A000862F972F7C0180E00E946406B701882783
:1002B00077FD8095982F0E94590926E636E646EE8E
:1002C0005FE30E945F0820E030E040E052E40E94DB
:1002D00032080E94B7094B01C801BE016F5F7F4F12
:1002E0000E94830591E06916710409F057C08A14D1
:1002F0009B04ACF0A214B30474F100D000D0EDB7AD
:10030000FEB7319680E091E091838083B382A28230
:100310000E948C030F900F900F900F901CC0EBEF7A
:10032000FFEF8E0E9F1E00D000D000D0EDB7FEB7BD
:1003300031968FE091E09183808393828282B582AF
:10034000A4820E948C03EDB7FEB736960FB6F894E0
:10035000FEBF0FBEEDBFF8EDAF16FFEFBF060CF00E
:1003600071C085E090E0280E391E00D000D000D08A
:10037000EDB7FEB731968DE391E0918380833382B0
:100380002282B582A4820E948C03EDB7FEB7369616
:100390000FB6F894FEBF0FBEEDBF54C0E016F106D5
:1003A000ACF00415150574F100D000D0EDB7FEB720
:1003B00031968CE691E091838083138302830E94BF
:1003C0008C030F900F900F900F901CC0EBEFFFEF7E
:1003D000EE0EFF1E00D000D000D0EDB7FEB7319674
:1003E0008FE091E091838083F382E282158304831E
:1003F0000E948C03EDB7FEB736960FB6F894FEBF99
:100400000FBEEDBFFFEF083D1F07E4F485E090E06D
:10041000480E591E00D000D000D0EDB7FEB731967F
:1004200089E791E09183808353824282158304831C
:100430000E948C03EDB7FEB736960FB6F894FEBF58
:100440000FBEEDBF8091C902882389F080E090E063
:10045000382F292FF1E06F16710421F081E090E030
:10046000382F292F832F922F3C011092C90281E04F
:1004700068167104C1F58A149B0424F1A214B30414
:100480000CF1F60180818068808380818F7B80837E
:10049000C501880F991F9501220F331F220F331FAB
:1004A000220F331F820F931FBE016F5F7F4F0E9489
:1004B000830581E790E09A878987CE0101960E94A3
:1004C000EF0548C0F60180818F778083FB85F0FDC2
:1004D00005C0F6018081806480833CC0F601808184
:1004E0008F7B808337C0E016F10624F104151505D3
:1004F0000CF1F60180818068808380818F7B80830E
:10050000C801880F991F9801220F331F220F331F34
:10051000220F331F820F931FBE016F5F7F4F0E9418
:10052000830589E390E09A878987CE0101960E942E
:10053000EF055CCEF60180818F778083FB85F0FD2F
:1005400005C0F60180818064808304C0F60180814B
:100550008F7B8083E016F106BCF48A149B04A4F41C
:1005600086E790E09A838983E9E7F0E0FC83EB83F8
:1005700088E390E098878F83E3E7F0E0FA87E987E4
:10058000CE0101960E94EF05041515050CF02ECE44
:10059000A214B3040CF02ACE8CE790E09A838983EE
:1005A000E1E3F0E0FC83EB83F887EF83FA87E987E8
:1005B000CE0101960E94EF0519CEE091CA02F0919A
:1005C000CB028193F093CB02E093CA020895982F57
:1005D0008A3014F480E307C08091DA02882311F492
:1005E00087E501C087E3890F0E94DD0281E08093E7
:1005F000DB020895AC018091D8029091D902841752
:10060000950710F4E0E017C066277727641B750B89
:100610009C01241B350BE0E0EF5FF22FA32F260F88
:10062000371FC901840F951F84179507A8F7F0930A
:10063000D802A093D9028091DB02882311F4EE2323
:1006400019F08E2F0E94E7020895EF92FF920F9308
:100650001F930F2EF0E3EF2EF02D0F2EF0E3FF2E61
:10066000F02D00E30E944C05182F0E9440051D301C
:1006700021F0EF2CF02E012FF5CF802F805D24E6A6
:100680009E2D920290011124820F2AE09F2D92024A
:1006900090011124820F1F910F91FF90EF90089508
:1006A000EF92FF920F931F93CF93DF937C0170E043
:1006B000EB0121971C161D0614F000E012C000E0AB
:1006C0000E944C05182F0E9440051D3051F0F70183
:1006D000E00FF11D10830F5F802F90E08C179D07B6
:1006E0007CF3F701E00FF11D1082DF91CF911F9194
:1006F0000F91FF90EF900895CF93DF93FC018081DD
:10070000882339F0EF010E944905898121968823C9
:10071000D1F7DF91CF9108952F923F924F925F9240
:100720006F927F928F929F92AF92BF92CF92DF9201
:10073000EF92FF920F931F93DF93CF93CDB7DEB766
:100740000F2EF5E1EF2EFF24F02DEC0EFD1EF7012C
:10075000C190D1907F010F2EFCEC6F2EF2E07F2E26
:10076000F02D0F2EF0E34F2EF02D842C552468949D
:1007700055F80F2EF8ED2F2EF2E03F2EF02D5BC135
:100780000894C11CD11C853221F00E9449055701F3
:1007900051C1F60111916F01103311F0992404C079
:1007A00011916F0199249394912F812F80538A3056
:1007B00010F000E012C000E0892F8053902F990FB5
:1007C000990F900F990F082F090FF60111916F01E2
:1007D000912F812F80538A3078F37092CB026092F0
:1007E000CA021092DB02133609F4C2C014369CF41C
:1007F000183509F451C019355CF4123409F478C085
:100800001334ACF4112309F41BC1153281F4C6C0B2
:10081000123669F46DC0133709F4B6C014371CF4EE
:10082000143629F407C0153729F01837A9F15701F4
:10083000D301B9C0F701208131812093D8023093D0
:10084000D902143669F433235CF488279927821B74
:10085000930B9093D9028093D8028DE20E94DD021F
:10086000AA24BB246894A1F8AE0CBF1C80E197E2D7
:100870000E94FA0288EE93E00E94FA0284E690E079
:100880000E94FA028AE090E00E94FA02F10180815F
:100890000E94E702D30187C0842D0E94DD0288E711
:1008A0000E94DD021092DA02183519F4F1E0F0939B
:1008B000DA02AA24BB246894A1F8AE0CBF1CF7018D
:1008C000808191819093D9028093D80280E090E159
:1008D0000E94FA0280E091E00E94FA0280E190E03A
:1008E0000E94FA02F10180810E94E702D3015BC0FD
:1008F000842D0E94DD0282E60E94DD021092DA025F
:10090000123419F4F1E0F093DA02AA24BB246894BB
:10091000A1F8AE0CBF1CF70180819181907090937B
:10092000D9028093D802F1E0F093DB0280E890E0F6
:100930000E94FA0280E490E00E94FA0280E290E0D5
:100940000E94FA0280E190E00E94FA0288E090E0C2
:100950000E94FA0284E090E00E94FA0282E090E0B5
:100960000E94FA02F10180810E94E702D3011BC0BC
:10097000AA24BB246894A1F8AE0CBF1CF7018081A7
:100980000E94DD02D3010FC0AA24BB246894A1F801
:10099000AE0CBF1CF701A081B18105C085E20E94A9
:1009A000DD025701D301E091CA02F091CB0210821F
:1009B000B093CB02A093CA02FD0181917F01F09315
:1009C000CB02E093CA02882389F010163CF501504F
:1009D000E091CA02F091CB028191F093CB02E093B7
:1009E000CA02882319F0101694F318C01016B4F434
:1009F0008C918D3211F07D0103C08DE20E9449057A
:100A0000102F1150992011F4852D01C0882D0E94BE
:100A10004905111614F41150F5CFD7018C91882394
:100A200049F08D010E944905F80181810F5F1F4F38
:100A30008823C1F77501F6018081882309F0A0CED3
:100A4000CF91DF911F910F91FF90EF90DF90CF90AA
:100A5000BF90AF909F908F907F906F905F904F90DE
:100A60003F902F90089587E690E09093C500809383
:100A7000C40088E18093C10086E08093C20008959D
:100A8000982FE0ECF0E0808185FFFDCF9093C600C9
:100A900008950E9440050895E0ECF0E080818823ED
:100AA000ECF78091C600089588E48093B80084E450
:100AB0008093BC000895ECEBF0E080818823ECF794
:100AC000089584EA8093BC000E945B05089584E940
:100AD0008093BC00089584EC8093BC000E945B0569
:100AE0008091BB00089584E88093BC000E945B0560
:100AF0008091BB0008958093BB0084E88093BC0084
:100B00000E945B050895EF92FF921F93CF93DF93AE
:100B1000EC017B0187E2C031D807C8F049E750E01B
:100B200020E031E002C02F5F3F5F223021F4F70167
:100B300015821482F8CF822F90E0880F991FF70159
:100B4000E80FF91F51834083353068F342C0CE016E
:100B500068EE73E00E94C60B20EB31E0F901E60F6E
:100B6000F71F8081F70180831182CE0168EE73E068
:100B70000E94C60B482F192F64E670E00E94C60B36
:100B8000F901E60FF71F8081F70182831382158236
:100B90001482842F912F64E670E00E94C60B482FC8
:100BA000192F6AE070E00E94C60BF901E60FF71FEB
:100BB0008081F70186831782842F912F6AE070E08D
:100BC0000E94C60B280F391FF9018081F701808729
:100BD0001186DF91CF911F91FF90EF9008950F93B1
:100BE0001F93CF93DF938C010E94610580EE0E94DA
:100BF0007B0580E00E947B05C0E0D0E0F801EC0FAF
:100C0000FD1F80810E947B0580E00E947B0522966B
:100C1000CA30D10599F70E946705DF91CF911F91E6
:100C20000F9108951F93182F0E94610580EE0E9476
:100C30007B05812F806E0E947B050E9467051F91B6
:100C400008951F93182F0E94610580EE0E947B0576
:100C5000112321F481E80E947B0505C0123018F0B1
:100C600083E80E947B0585E80E947B050E9467055A
:100C70001F9108950E94610580EE0E947B0581E22C
:100C80000E947B050E94610580EE0E947B0581E841
:100C90000E947B050E94610580EE0E947B0587EE25
:100CA0000E947B050E9467050895EAE7F0E08081D5
:100CB00080648083808186FDFDCF20917800309113
:100CC0007900822F932F0895982F882331F4ECE731
:100CD000F0E08081807F808318C0813031F4ECE7C0
:100CE000F0E080818160808318C0823031F4ECE7CD
:100CF000F0E08081826080830895833031F4ECE7F6
:100D0000F0E08081836080830895943031F4ECE7D3
:100D1000F0E08081846080830895953029F4ECE7C9
:100D2000F0E08081856080830895853049F4ECE7A8
:100D3000F0E080818064808380818F778083089554
:100D4000ECE7F0E08081806C8083089585E00E946C
:100D5000950680E00E946406EAE7F0E08081876003
:100D600080838081806880830895A0E0B0E0EBEB11
:100D7000F6E00C942A0CDC012B01FA019C919230D4
:100D800008F439C1EB018881823008F433C1943012
:100D900069F4843009F02FC111969C9111978981D3
:100DA000981709F428C1A0ECB1E025C1843009F4FA
:100DB00021C18230A9F4923009F01DC19A01AD0120
:100DC00088E0EA010990AE01E90109929E01815093
:100DD000C1F7E201898111969C918923818308C121
:100DE000923009F407C112962D903C901397EB01B5
:100DF0008A819B811496AD90BD90CD90DC90179721
:100E0000EC80FD800E811F819101281B390BB901F7
:100E100037FF04C066277727621B730B60327105AA
:100E20000CF061C0121613066CF537014801062E4E
:100E300004C096948794779467940A94D2F721E03B
:100E400030E040E050E004C0220F331F441F551F24
:100E50006A95D2F721503040404050402E213F212A
:100E600040235123211531054105510521F021E091
:100E700030E040E050E079018A01E628F7280829AF
:100E800019293CC0232BD1F1260E371E350146010E
:100E9000062E04C096948794779467940A94D2F7A8
:100EA00021E030E040E050E004C0220F331F441F37
:100EB000551F6A95D2F721503040404050402A21BA
:100EC0003B214C215D21211531054105510521F0C2
:100ED00021E030E040E050E059016A01A628B7283F
:100EE000C828D9280BC0821593052CF01C01AA2410
:100EF000BB24650103C0EE24FF24870111969C9159
:100F0000D20111968C91981709F445C0992339F0B4
:100F1000A80197012A193B094C095D0906C0A601E1
:100F200095012E193F09400B510B57FD08C0118246
:100F30003382228224833583468357831DC081E018
:100F400081833382228288279927DC01821B930BBD
:100F5000A40BB50B84839583A683B7830DC0220FA2
:100F6000331F441F551F2483358346835783828153
:100F700093810197938382832481358146815781B0
:100F8000DA01C9010197A109B1098F5F9F4FAF4FE6
:100F9000BF4328F30BC0918333822282EA0CFB1CEF
:100FA0000C1D1D1DE482F5820683178383E0808378
:100FB000248135814681578157FF1AC0C901AA276C
:100FC00097FDA095BA2F81709070A070B070569563
:100FD000479537952795822B932BA42BB52B84838C
:100FE0009583A683B78382819381019693838283BD
:100FF000DF0101C0D201CD01CDB7DEB7E2E10C9433
:10100000460CA0E2B0E0E7E0F8E00C94360C69830F
:101010007A838B839C832D833E834F835887E9E0BB
:10102000EE2EF12CEC0EFD1ECE010196B7010E94B2
:101030002F0B8E010F5E1F4FCE010596B8010E9447
:101040002F0B8A8991E089278A8BC701B801AE01ED
:10105000475E5F4F0E94B5060E945A0AA096E6E0DE
:101060000C94520CA0E2B0E0E8E3F8E00C94360CEB
:1010700069837A838B839C832D833E834F83588738
:10108000F9E0EF2EF12CEC0EFD1ECE010196B7011A
:101090000E942F0B8E010F5E1F4FCE010596B801E7
:1010A0000E942F0BC701B801AE01475E5F4F0E943F
:1010B000B5060E945A0AA096E6E00C94520CA0E2F3
:1010C000B0E0E5E6F8E00C942A0C69837A838B8320
:1010D0009C832D833E834F835887CE010196BE01AA
:1010E000675F7F4F0E942F0BCE010596BE016F5E9A
:1010F0007F4F0E942F0B9985923088F0898982302A
:10110000C8F0943019F4823051F404C0843029F4CA
:10111000923081F480EC91E0C6C0923049F420E036
:101120009A858A89981321E02A87CE010996BBC047
:10113000823049F420E09A858A89981321E02A8B2D
:10114000CE014196B0C02D843E844F8458886D886E
:101150007E888F88988CEE24FF248701AA24BB24E4
:10116000650140E050E060E070E0E0E0F0E0C101E7
:1011700081709070892BE9F0E60CF71C081D191D91
:101180009A01AB012A0D3B1D4C1D5D1D80E090E0D6
:10119000A0E0B0E0E614F7040805190520F481E0AA
:1011A00090E0A0E0B0E0BA01A901480F591F6A1F02
:1011B0007B1FAA0CBB1CCC1CDD1C97FE08C081E069
:1011C00090E0A0E0B0E0A82AB92ACA2ADB2A31962A
:1011D000E032F10549F0660C771C881C991C569486
:1011E000479437942794C3CFFA85EA892B893C89A1
:1011F0008B859C85280F391F2E5F3F4F17C0CA0172
:1012000081709070892B61F016950795F794E7949B
:1012100080E090E0A0E0B0E8E82AF92A0A2B1B2B36
:1012200076956795579547952F5F3F4F77FDE7CFA9
:101230000CC0440F551F661F771F17FD4160EE0C51
:10124000FF1C001F111F21503040403090E0590713
:1012500090E0690790E4790760F32B8F3C8FDB0106
:10126000CA018F779070A070B07080349105A1058D
:10127000B10561F447FD0AC0E114F104010511054F
:1012800029F0405C5F4F6F4F7F4F40781A8EFE17FA
:1012900011F081E08A8F4D8F5E8F6F8F78A383E08E
:1012A000898FCE0149960E945A0AA096E2E10C94D9
:1012B000460CA8E0B0E0EFE5F9E00C94330C9B019C
:1012C000AC0183E08983DA01C9018827B7FD8395E2
:1012D0009927AA27BB27B82E2115310541055105AD
:1012E00019F482E089833AC08823A9F0203080E095
:1012F000380780E0480780E8580729F460E070E08C
:1013000080E09FEC30C0EE24FF248701E21AF30A4C
:10131000040B150B02C079018A018EE1C82ED12C75
:10132000DC82CB82ED82FE820F831887C801B70171
:101330000E940B0A01971816190684F4082E04C09F
:10134000EE0CFF1C001F111F0A94D2F7ED82FE82E3
:101350000F831887C81AD90ADC82CB82BA82CE01E1
:1013600001960E945A0A2896E9E00C944F0CACE0D2
:10137000B0E0EDEBF9E00C943A0C69837A838B834F
:101380009C83CE010196BE016B5F7F4F0E942F0BA5
:101390008D81823061F1823050F1843021F48E8170
:1013A000882351F12EC02F81388537FD20C06E81F2
:1013B0002F3131051CF06623F9F023C08EE190E057
:1013C000821B930B29853A854B855C8504C0569515
:1013D0004795379527958A95D2F76623B1F05095B2
:1013E0004095309521953F4F4F4F5F4F0EC020E005
:1013F00030E040E050E009C02FEF3FEF4FEF5FE7F4
:1014000004C020E030E040E050E8B901CA012C9669
:10141000E2E00C94560CEF92FF920F931F937B0126
:101420008C0180E0E81680E0F80681E0080780E0A3
:10143000180788F48FEFE816F1040105110531F063
:1014400028F088E090E0A0E0B0E017C080E090E0F5
:10145000A0E0B0E012C080E0E81680E0F80680E08E
:10146000080781E0180728F088E190E0A0E0B0E0EC
:1014700004C080E190E0A0E0B0E020E230E040E095
:1014800050E0281B390B4A0B5B0B04C016950795DF
:10149000F794E7948A95D2F7F701E853FE4F8081DD
:1014A000281B310941095109C9011F910F91FF9072
:1014B000EF900895DF92EF92FF920F931F93FC013C
:1014C000E480F58006811781D1808081823048F4E4
:1014D00080E090E0A0E1B0E0E82AF92A0A2B1B2B7B
:1014E000A5C0843009F49FC0823021F4EE24FF248B
:1014F000870105C0E114F1040105110519F4E0E0CC
:10150000F0E096C0628173819FEF623879070CF03A
:101510005BC022E83FEF261B370B2A3131052CF048
:1015200020E030E040E050E02AC0B801A701022EE0
:1015300004C076956795579547950A94D2F781E050
:1015400090E0A0E0B0E004C0880F991FAA1FBB1F65
:101550002A95D2F70197A109B1098E219F21A023D5
:10156000B1230097A105B10521F081E090E0A0E052
:10157000B0E09A01AB01282B392B4A2B5B2BDA0107
:10158000C9018F779070A070B07080349105A1056B
:10159000B10539F427FF09C0205C3F4F4F4F5F4F23
:1015A00004C0215C3F4F4F4F5F4FE0E0F0E0203040
:1015B000A0E03A07A0E04A07A0E45A0710F0E1E0F3
:1015C000F0E079018A0127C06038710564F5FB01FC
:1015D000E158FF4FD801C7018F779070A070B070AD
:1015E00080349105A105B10539F4E7FE0DC080E412
:1015F00090E0A0E0B0E004C08FE390E0A0E0B0E0B5
:10160000E80EF91E0A1F1B1F17FF05C01695079548
:10161000F794E794319687E016950795F794E79449
:101620008A95D1F705C0EE24FF248701EFEFF0E0A3
:101630006E2F679566276795902F9F77D794DD2447
:10164000D7948E2F8695492F462B582F5D29B701A9
:10165000CA011F910F91FF90EF90DF900895FC0158
:10166000DB01408151812281622F6F7770E0221F60
:101670002227221F9381892F880F822B282F30E069
:10168000991F9927991F11969C9311972115310540
:10169000A9F5411551056105710511F482E037C0C6
:1016A00082E89FEF13969C938E9312979A01AB0159
:1016B00067E0220F331F441F551F6A95D1F783E05F
:1016C0008C930DC0220F331F441F551F12968D910E
:1016D0009C911397019713969C938E9312972030A9
:1016E00080E0380780E0480780E4580758F31496F4
:1016F0002D933D934D935C93179708952F3F31059C
:1017000079F4411551056105710519F484E08C9354
:10171000089564FF03C081E08C9312C01C9210C036
:101720002F57304013963C932E93129783E08C935F
:1017300087E0440F551F661F771F8A95D1F77064A5
:1017400014964D935D936D937C9317970895629FC4
:10175000D001739FF001829FE00DF11D649FE00DA9
:10176000F11D929FF00D839FF00D749FF00D659F0A
:10177000F00D9927729FB00DE11DF91F639FB00D09
:10178000E11DF91FBD01CF0111240895AA1BBB1B48
:1017900051E107C0AA1FBB1FA617B70710F0A61B71
:1017A000B70B881F991F5A95A9F780959095BC0192
:1017B000CD01089597FB092E07260AD077FD04D0A6
:1017C000E5DF06D000201AF4709561957F4F0895EB
:1017D000F6F7909581959F4F089597FB092E052662
:1017E0000ED057FD04D014D00AD0001C38F4509508
:1017F0004095309521953F4F4F4F5F4F0895F6F735
:1018000090958095709561957F4F8F4F9F4F08956C
:10181000A1E21A2EAA1BBB1BFD010DC0AA1FBB1FF4
:10182000EE1FFF1FA217B307E407F50720F0A21B66
:10183000B30BE40BF50B661F771F881F991F1A94D3
:1018400069F760957095809590959B01AC01BD01FD
:10185000CF0108952F923F924F925F926F927F92A5
:101860008F929F92AF92BF92CF92DF92EF92FF92B0
:101870000F931F93CF93DF93CDB7DEB7CA1BDB0B5C
:101880000FB6F894DEBF0FBECDBF09942A88398801
:1018900048885F846E847D848C849B84AA84B98408
:1018A000C884DF80EE80FD800C811B81AA81B98114
:1018B000CE0FD11D0FB6F894DEBF0FBECDBFED0128
:0618C0000895F894FFCF2B
:1018C600256420666172656E686569740D0A007428
:1018D600656D7020746F2062652075706461746533
:1018E6006420746F202564202E2E2E2E2E2E2E2E52
:1018F6002E2066726F6D202564200D0A0074656DBA
:101906007020746F20626520757064617465642050
:10191600746F202564202E2E2E2E2E2E2E2E2E2E49
:101926002066726F6D202564200D0A0025642063F1
:10193600656C636975730D0A0074656D7065726117
:101946007475726520746F206265207570646174A9
:10195600656420746F202564202E2E2E2E2E2E2EAA
:101966002E2E2E2066726F6D202564200D0A0070C3
:101976003F065B4F666D7D077F6F777C395E7971B9
:101986000000000000000000000102020303030340
:1019960004040404040404040505050505050505F9
:1019A60005050505050505050606060606060606D9
:1019B60006060606060606060606060606060606C1
:1019C60006060606060606060707070707070707A9
:1019D6000707070707070707070707070707070791
:1019E6000707070707070707070707070707070781
:1019F6000707070707070707070707070707070771
:101A06000707070707070707080808080808080858
:101A16000808080808080808080808080808080840
:101A26000808080808080808080808080808080830
:101A36000808080808080808080808080808080820
:101A46000808080808080808080808080808080810
:101A56000808080808080808080808080808080800
:101A660008080808080808080808080808080808F0
:101A760008080808080808080808080808080808E0
:081A8600080808080808080818
:00000001FF
