:100000000C9434000C9451000C9451000C94510049
:100010000C9451000C9451000C9451000C9451001C
:100020000C9451000C9451000C9451000C9451000C
:100030000C9451000C9451000C9451000C945100FC
:100040000C9451000C9451000C9451000C945100EC
:100050000C9451000C9451000C9451000C945100DC
:100060000C9451000C94510011241FBECFEFD8E026
:10007000DEBFCDBF12E0A0E0B1E0ECE5F3E102C0ED
:1000800005900D92A63EB107D9F712E0A6EEB2E0B8
:1000900001C01D92A83FB107E1F70E9473000C94C4
:1000A000AC090C940000ECE7F0E080818064808370
:1000B0008081807F8083EAE7F0E0808187608083B1
:1000C0008081806880830895EAE7F0E08081806421
:1000D0008083808186FDFDCF20917800309179006A
:1000E000822F932F08952F923F924F925F926F929B
:1000F0007F928F929F92AF92BF92CF92DF92EF92B8
:10010000FF920F931F93CF93DF930E94DF030E9410
:10011000530000D080E091E0EDB7FEB79283818379
:100120000E943802AA24BB246894A1F80F900F9073
:100130000F2EF0EC6F2E7724F02D0F2EF8EA4F2EB5
:10014000F1E05F2EF02D0F2EF3E72F2EF1E03F2E82
:10015000F02D0F2EF0E18F2EF7E29F2EF02D0E9452
:1001600064007C01BC0180E090E02CE933E140E0D8
:1001700050E00E94F20820E034E040E050E00E94AD
:100180002409E901C901845F91406AE070E00E949E
:100190001109862F972F6C01F30180818823ACF41D
:1001A0000E94F803833429F0833619F0863441F035
:1001B00002C0AA24BB24863619F0823461F003C041
:1001C000AA24BB24A394823631F0F2E0AF16B10426
:1001D00009F03FC004C0AA24BB246894A1F88DB7DD
:1001E0009EB70A970FB6F8949EBF0FBE8DBF0DB78E
:1001F0001EB70F5F1F4F8DE291E0F801918380835E
:10020000F382E282D583C483D782C682B60188276F
:1002100077FD8095982F0E94A40626E636E646EEE6
:100220005FE30E94AA0520E030E040E052E40E9433
:100230007D050E940207F801718760870E943802DD
:100240008DB79EB70A960FB6F8949EBF0FBE8DBFAE
:100250005EC091E0A916B104B1F5EDB7FEB73897CD
:100260000FB6F894FEBF0FBEEDBF0DB71EB70F5F00
:100270001F4FF80131822082F382E282D583C4834A
:10028000B601882777FD8095982F0E94A40626E660
:1002900036E646EE5FE30E94AA0520E030E040E04B
:1002A00052E40E947D050E940207F801778366836D
:1002B0000E9438028DB79EB708960FB6F8949EBF7D
:1002C0000FBE8DBF24C0EDB7FEB738970FB6F894B8
:1002D000FEBF0FBEEDBF319651824082F382E282B3
:1002E000D583C483D782C6820E9438028DB79EB759
:1002F00008960FB6F8949EBF0FBE8DBF08C0E0E908
:10030000F1E03197F1F7019709F429CFF8CFC40153
:10031000F6CFE091E602F091E7028193F093E702D5
:10032000E093E6020895982F8A3014F480E307C022
:100330008091F602882311F487E501C087E3890FD5
:100340000E94890181E08093F7020895AC018091B9
:10035000F4029091F5028417950710F4E0E017C0BD
:1003600066277727641B750B9C01241B350BE0E087
:10037000EF5FF22FA32F260F371FC901840F951FA0
:1003800084179507A8F7F093F402A093F5028091E3
:10039000F702882311F4EE2319F08E2F0E949301A7
:1003A0000895EF92FF920F931F930F2EF0E3EF2E1D
:1003B000F02D0F2EF0E3FF2EF02D00E30E94F80346
:1003C000182F0E94EC031D3021F0EF2CF02E012F8E
:1003D000F5CF802F805D24E69E2D9202900111249E
:1003E000820F2AE09F2D920290011124820F1F910B
:1003F0000F91FF90EF900895EF92FF920F931F934C
:10040000CF93DF937C0170E0EB0121971C161D0652
:1004100014F000E012C000E00E94F803182F0E94C0
:10042000EC031D3051F0F701E00FF11D10830F5F59
:10043000802F90E08C179D077CF3F701E00FF11DF2
:100440001082DF91CF911F910F91FF90EF9008954F
:10045000CF93DF93FC018081882339F0EF010E9464
:10046000F503898121968823D1F7DF91CF910895F3
:100470002F923F924F925F926F927F928F929F92B4
:10048000AF92BF92CF92DF92EF92FF920F931F93A2
:10049000DF93CF93CDB7DEB70F2EF5E1EF2EFF241C
:1004A000F02DEC0EFD1EF701C190D1907F010F2EB3
:1004B000F8EE6F2EF2E07F2EF02D0F2EF0E34F2E90
:1004C000F02D842C5524689455F80F2EF4EF2F2E20
:1004D000F2E03F2EF02D5BC10894C11CD11C853287
:1004E00021F00E94F503570151C1F60111916F01EE
:1004F000103311F0992404C011916F019924939441
:10050000912F812F80538A3010F000E012C000E05C
:10051000892F8053902F990F990F900F990F082FC3
:10052000090FF60111916F01912F812F80538A30AD
:1005300078F37092E7026092E6021092F7021336A7
:1005400009F4C2C014369CF4183509F451C01935A9
:100550005CF4123409F478C01334ACF4112309F4B8
:100560001BC1153281F4C6C0123669F46DC0133751
:1005700009F4B6C014371CF4143629F407C0153733
:1005800029F01837A9F15701D301B9C0F70120812B
:1005900031812093F4023093F502143669F4332349
:1005A0005CF488279927821B930B9093F502809324
:1005B000F4028DE20E948901AA24BB246894A1F868
:1005C000AE0CBF1C80E197E20E94A60188EE93E08A
:1005D0000E94A60184E690E00E94A6018AE090E0D5
:1005E0000E94A601F10180810E949301D30187C07E
:1005F000842D0E94890188E70E9489011092F602E9
:10060000183519F4F1E0F093F602AA24BB2468949B
:10061000A1F8AE0CBF1CF701808191819093F50287
:100620008093F40280E090E10E94A60180E091E0D6
:100630000E94A60180E190E00E94A601F101808164
:100640000E949301D3015BC0842D0E94890182E640
:100650000E9489011092F602123419F4F1E0F0932D
:10066000F602AA24BB246894A1F8AE0CBF1CF701C3
:100670008081918190709093F5028093F402F1E073
:10068000F093F70280E890E00E94A60180E490E0F9
:100690000E94A60180E290E00E94A60180E190E025
:1006A0000E94A60188E090E00E94A60184E090E00C
:1006B0000E94A60182E090E00E94A601F1018081E3
:1006C0000E949301D3011BC0AA24BB246894A1F803
:1006D000AE0CBF1CF70180810E948901D3010FC0BD
:1006E000AA24BB246894A1F8AE0CBF1CF701A0811A
:1006F000B18105C085E20E9489015701D301E091D3
:10070000E602F091E7021082B093E702A093E602BE
:10071000FD0181917F01F093E702E093E6028823D7
:1007200089F010163CF50150E091E602F091E702E5
:100730008191F093E702E093E602882319F0101606
:1007400094F318C01016B4F48C918D3211F07D0121
:1007500003C08DE20E94F503102F1150992011F46F
:10076000852D01C0882D0E94F503111614F4115037
:10077000F5CFD7018C91882349F08D010E94F503B4
:10078000F80181810F5F1F4F8823C1F77501F601C2
:100790008081882309F0A0CECF91DF911F910F9126
:1007A000FF90EF90DF90CF90BF90AF909F908F9091
:1007B0007F906F905F904F903F902F90089587E6C5
:1007C00090E09093C5008093C40088E18093C100BD
:1007D00086E08093C2000895982FE0ECF0E08081DD
:1007E00085FFFDCF9093C60008950E94EC03089505
:1007F000E0ECF0E080818823ECF78091C60008955A
:10080000A0E0B0E0E6E0F4E00C947509DC012B0117
:10081000FA019C91923008F439C1EB018881823051
:1008200008F433C1943069F4843009F02FC1119673
:100830009C9111978981981709F428C1ADEDB1E019
:1008400025C1843009F421C18230A9F4923009F025
:100850001DC19A01AD0188E0EA010990AE01E901EC
:1008600009929E018150C1F7E201898111969C9104
:100870008923818308C1923009F407C112962D9013
:100880003C901397EB018A819B811496AD90BD90AB
:10089000CD90DC901797EC80FD800E811F81910137
:1008A000281B390BB90137FF04C066277727621B65
:1008B000730B603271050CF061C0121613066CF5F3
:1008C00037014801062E04C0969487947794679464
:1008D0000A94D2F721E030E040E050E004C0220F5B
:1008E000331F441F551F6A95D2F7215030404040B6
:1008F00050402E213F214023512321153105410530
:10090000510521F021E030E040E050E079018A011A
:10091000E628F728082919293CC0232BD1F1260EF7
:10092000371E35014601062E04C0969487947794AD
:1009300067940A94D2F721E030E040E050E004C030
:10094000220F331F441F551F6A95D2F721503040A4
:10095000404050402A213B214C215D212115310589
:100960004105510521F021E030E040E050E059011F
:100970006A01A628B728C828D9280BC08215930574
:100980002CF01C01AA24BB24650103C0EE24FF2423
:10099000870111969C91D20111968C91981709F4B8
:1009A00045C0992339F0A80197012A193B094C0940
:1009B0005D0906C0A60195012E193F09400B510B98
:1009C00057FD08C0118233822282248335834683F7
:1009D00057831DC081E08183338222828827992733
:1009E000DC01821B930BA40BB50B84839583A68338
:1009F000B7830DC0220F331F441F551F2483358337
:100A000046835783828193810197938382832481D4
:100A1000358146815781DA01C9010197A109B109E0
:100A20008F5F9F4FAF4FBF4328F30BC0918333823B
:100A30002282EA0CFB1C0C1D1D1DE482F58206833C
:100A4000178383E08083248135814681578157FF56
:100A50001AC0C901AA2797FDA095BA2F817090707E
:100A6000A070B0705695479537952795822B932B9C
:100A7000A42BB52B84839583A683B783828193812E
:100A8000019693838283DF0101C0D201CD01CDB7EE
:100A9000DEB7E2E10C949109A0E2B0E0E2E5F5E016
:100AA0000C94810969837A838B839C832D833E8395
:100AB0004F835887E9E0EE2EF12CEC0EFD1ECE019F
:100AC0000196B7010E947A088E010F5E1F4FCE017A
:100AD0000596B8010E947A088A8991E089278A8B55
:100AE000C701B801AE01475E5F4F0E9400040E943B
:100AF000A507A096E6E00C949D09A0E2B0E0E3E82B
:100B0000F5E00C94810969837A838B839C832D8320
:100B10003E834F835887F9E0EF2EF12CEC0EFD1E3B
:100B2000CE010196B7010E947A088E010F5E1F4F19
:100B3000CE010596B8010E947A08C701B801AE013E
:100B4000475E5F4F0E9400040E94A507A096E6E062
:100B50000C949D09A0E2B0E0E0EBF5E00C9475097F
:100B600069837A838B839C832D833E834F8358874D
:100B7000CE010196BE01675F7F4F0E947A08CE01C9
:100B80000596BE016F5E7F4F0E947A08998592306C
:100B900088F089898230C8F0943019F4823051F499
:100BA00004C0843029F4923081F48DED91E0C6C008
:100BB000923049F420E09A858A89981321E02A87A7
:100BC000CE010996BBC0823049F420E09A858A891B
:100BD000981321E02A8BCE014196B0C02D843E842B
:100BE0004F8458886D887E888F88988CEE24FF24E7
:100BF0008701AA24BB24650140E050E060E070E07A
:100C0000E0E0F0E0C10181709070892BE9F0E60C22
:100C1000F71C081D191D9A01AB012A0D3B1D4C1D27
:100C20005D1D80E090E0A0E0B0E0E614F704080568
:100C3000190520F481E090E0A0E0B0E0BA01A9013C
:100C4000480F591F6A1F7B1FAA0CBB1CCC1CDD1C44
:100C500097FE08C081E090E0A0E0B0E0A82AB92AA1
:100C6000CA2ADB2A3196E032F10549F0660C771C7E
:100C7000881C991C5694479437942794C3CFFA85BF
:100C8000EA892B893C898B859C85280F391F2E5F2B
:100C90003F4F17C0CA0181709070892B61F0169583
:100CA0000795F794E79480E090E0A0E0B0E8E82AA8
:100CB000F92A0A2B1B2B76956795579547952F5F39
:100CC0003F4F77FDE7CF0CC0440F551F661F771FBE
:100CD00017FD4160EE0CFF1C001F111F215030401A
:100CE000403090E0590790E0690790E4790760F39D
:100CF0002B8F3C8FDB01CA018F779070A070B07092
:100D000080349105A105B10561F447FD0AC0E114E5
:100D1000F1040105110529F0405C5F4F6F4F7F4FD3
:100D200040781A8EFE1711F081E08A8F4D8F5E8F0A
:100D30006F8F78A383E0898FCE0149960E94A50723
:100D4000A096E2E10C949109A8E0B0E0EAEAF6E0AE
:100D50000C947E099B01AC0183E08983DA01C9010F
:100D60008827B7FD83959927AA27BB27B82E211579
:100D700031054105510519F482E089833AC0882381
:100D8000A9F0203080E0380780E0480780E8580765
:100D900029F460E070E080E09FEC30C0EE24FF2496
:100DA0008701E21AF30A040B150B02C079018A01CC
:100DB0008EE1C82ED12CDC82CB82ED82FE820F83A5
:100DC0001887C801B7010E9456070197181619061F
:100DD00084F4082E04C0EE0CFF1C001F111F0A949F
:100DE000D2F7ED82FE820F831887C81AD90ADC82F7
:100DF000CB82BA82CE0101960E94A5072896E9E02F
:100E00000C949A09ACE0B0E0E8E0F7E00C948509B6
:100E100069837A838B839C83CE010196BE016B5FCD
:100E20007F4F0E947A088D81823061F1823050F1CB
:100E3000843021F48E81882351F12EC02F81388592
:100E400037FD20C06E812F3131051CF06623F9F08B
:100E500023C08EE190E0821B930B29853A854B8558
:100E60005C8504C056954795379527958A95D2F7A6
:100E70006623B1F050954095309521953F4F4F4FE7
:100E80005F4F0EC020E030E040E050E009C02FEF9F
:100E90003FEF4FEF5FE704C020E030E040E050E874
:100EA000B901CA012C96E2E00C94A109EF92FF92DD
:100EB0000F931F937B018C0180E0E81680E0F80619
:100EC00081E0080780E0180788F48FEFE816F10446
:100ED0000105110531F028F088E090E0A0E0B0E0D5
:100EE00017C080E090E0A0E0B0E012C080E0E8161B
:100EF00080E0F80680E0080781E0180728F088E124
:100F000090E0A0E0B0E004C080E190E0A0E0B0E0BC
:100F100020E230E040E050E0281B390B4A0B5B0B2D
:100F200004C016950795F794E7948A95D2F7F701D0
:100F3000EB51FE4F8081281B310941095109C9013C
:100F40001F910F91FF90EF900895DF92EF92FF9223
:100F50000F931F93FC01E480F58006811781D180F7
:100F60008081823048F480E090E0A0E1B0E0E82A9F
:100F7000F92A0A2B1B2BA5C0843009F49FC08230AC
:100F800021F4EE24FF24870105C0E114F1040105DA
:100F9000110519F4E0E0F0E096C0628173819FEFE3
:100FA000623879070CF05BC022E83FEF261B370B55
:100FB0002A3131052CF020E030E040E050E02AC03A
:100FC000B801A701022E04C07695679557954795FD
:100FD0000A94D2F781E090E0A0E0B0E004C0880F6E
:100FE000991FAA1FBB1F2A95D2F70197A109B10922
:100FF0008E219F21A023B1230097A105B10521F0E7
:1010000081E090E0A0E0B0E09A01AB01282B392B01
:101010004A2B5B2BDA01C9018F779070A070B070FA
:1010200080349105A105B10539F427FF09C0205C82
:101030003F4F4F4F5F4F04C0215C3F4F4F4F5F4FBB
:10104000E0E0F0E02030A0E03A07A0E04A07A0E4AA
:101050005A0710F0E1E0F0E079018A0127C060381A
:10106000710564F5FB01E158FF4FD801C7018F7787
:101070009070A070B07080349105A105B10539F46D
:10108000E7FE0DC080E490E0A0E0B0E004C08FE394
:1010900090E0A0E0B0E0E80EF91E0A1F1B1F17FF4A
:1010A00005C016950795F794E794319687E0169555
:1010B0000795F794E7948A95D1F705C0EE24FF24AD
:1010C0008701EFEFF0E06E2F679566276795902F09
:1010D0009F77D794DD24D7948E2F8695492F462B62
:1010E000582F5D29B701CA011F910F91FF90EF9012
:1010F000DF900895FC01DB01408151812281622F44
:101100006F7770E0221F2227221F9381892F880F7B
:10111000822B282F30E0991F9927991F11969C93B5
:10112000119721153105A9F5411551056105710585
:1011300011F482E037C082E89FEF13969C938E9360
:1011400012979A01AB0167E0220F331F441F551F0E
:101150006A95D1F783E08C930DC0220F331F441F93
:10116000551F12968D919C911397019713969C93FE
:101170008E931297203080E0380780E0480780E4A3
:10118000580758F314962D933D934D935C931797FE
:1011900008952F3F310579F4411551056105710519
:1011A00019F484E08C93089564FF03C081E08C936C
:1011B00012C01C9210C02F57304013963C932E93B0
:1011C000129783E08C9387E0440F551F661F771FAB
:1011D0008A95D1F7706414964D935D936D937C93CB
:1011E00017970895629FD001739FF001829FE00DD1
:1011F000F11D649FE00DF11D929FF00D839FF00D96
:10120000749FF00D659FF00D9927729FB00DE11D41
:10121000F91F639FB00DE11DF91FBD01CF0111241E
:10122000089597FB092E07260AD077FD04D027D012
:1012300006D000201AF4709561957F4F0895F6F757
:10124000909581959F4F089597FB092E05260ED006
:1012500057FD04D028D00AD0001C38F45095409592
:10126000309521953F4F4F4F5F4F0895F6F790957A
:101270008095709561957F4F8F4F9F4F0895AA1B62
:10128000BB1B51E107C0AA1FBB1FA617B70710F071
:10129000A61BB70B881F991F5A95A9F780959095A3
:1012A000BC01CD010895A1E21A2EAA1BBB1BFD01B2
:1012B0000DC0AA1FBB1FEE1FFF1FA217B307E40735
:1012C000F50720F0A21BB30BE40BF50B661F771F8D
:1012D000881F991F1A9469F760957095809590956D
:1012E0009B01AC01BD01CF0108952F923F924F9217
:1012F0005F926F927F928F929F92AF92BF92CF92A6
:10130000DF92EF92FF920F931F93CF93DF93CDB7AE
:10131000DEB7CA1BDB0B0FB6F894DEBF0FBECDBF26
:1013200009942A88398848885F846E847D848C84F7
:101330009B84AA84B984C884DF80EE80FD800C8100
:101340001B81AA81B981CE0FD11D0FB6F894DEBFE3
:0C1350000FBECDBFED010895F894FFCF53
:10135C0054657374696E67204144432077697468DF
:10136C002061207661726961626C6520766F6C74A5
:10137C0061676520736F757263650A0D00414443A4
:10138C002076616C7565203D2025642C2009207623
:10139C006F6C74616765203D2025646D562C2009A7
:1013AC002054656D70284329203D202564432C2052
:1013BC00092054656D70284629203D20256446205F
:1013CC000D0A004144432076616C7565203D202553
:1013DC00642C200920766F6C74616765203D202594
:1013EC00646D562C20092054656D70284629203DCB
:1013FC0020256446200D0A004144432076616C751B
:10140C0065203D2025642C200920766F6C74616763
:10141C0065203D2025646D562C20092054656D7087
:10142C00284329203D20256443200D0A000000009C
:10143C000000000000000102020303030304040483
:10144C000404040404050505050505050505050545
:10145C000505050505060606060606060606060625
:10146C000606060606060606060606060606060610
:10147C0006060606060707070707070707070707F5
:10148C0007070707070707070707070707070707E0
:10149C0007070707070707070707070707070707D0
:1014AC0007070707070707070707070707070707C0
:1014BC0007070707070808080808080808080808A5
:1014CC000808080808080808080808080808080890
:1014DC000808080808080808080808080808080880
:1014EC000808080808080808080808080808080870
:1014FC000808080808080808080808080808080860
:10150C00080808080808080808080808080808084F
:10151C00080808080808080808080808080808083F
:10152C00080808080808080808080808080808082F
:06153C0008080808080081
:00000001FF
