:100000000C9434000C9451000C9451000C94510049
:100010000C9451000C9451000C9451000C9451001C
:100020000C9451000C9451000C9451000C9451000C
:100030000C9451000C9451000C9451000C945100FC
:100040000C9492000C9451000C9451000C945100AB
:100050000C9451000C9451000C9451000C945100DC
:100060000C9451000C94510011241FBECFEFD8E026
:10007000DEBFCDBF11E0A0E0B1E0E4E4FCE002C0EF
:1000800005900D92AE35B107D9F711E0AEE5B1E0BC
:1000900001C01D92A237B107E1F70E94A1000C94A4
:1000A00020060C940000A0E8B0E08C9182608C9354
:1000B000E1E8F0E0808188618083808182608083D4
:1000C00080E49CE990938700809386008C918068FF
:1000D0008C9380ED97E09093890080938800E4E210
:1000E000F0E080818260808308952FE0813A92075A
:1000F00018F080EA9FE006C027E0803D920710F4E8
:1001000080ED97E090938900809388000895E5E45E
:10011000F0E0808185608083EEE6F0E080818160A0
:10012000808308951F920F920FB60F9211248F9320
:1001300081E080935E018F910F900FBE0F901F9012
:1001400018952F923F924F925F927F928F929F923B
:10015000AF92BF92CF92DF92EF92FF920F931F93D5
:10016000DF93CF93CDB7DEB72A970FB6F894DEBFF3
:100170000FBECDBF0E94D8030E944B0583E00E94B2
:1001800009050E9453000E9487000E94F9030E9403
:10019000DF04789400D080E091E0EDB7FEB7928361
:1001A00081830E9431020F900F908FE00E94B7046C
:1001B0001A8219821C821B821E821D8218861F824F
:1001C0001A861986CE0101960E9494040F2EF0ED36
:1001D000CF2EF7E0DF2EF02D77240F2EF0ED2F2E0F
:1001E000F7E03F2EF02D5E010894A11CB11C4424C1
:1001F0005524689446F80F2EF1E28F2EF1E09F2EE1
:10020000F02D972D80915E01813009F49F5F92302F
:10021000C9F70E94FA04872D0E9409050E94FA047A
:100220007C0181E00E9409050E94FA048C0183E0B0
:100230000E94090501561040C8018E199F097C01D2
:100240001AF4909581959F4F0697BCF0C6018E19C0
:100250009F09E7E0803D9E0714F461010BC06C012B
:10026000FFE0813A9F0734F00F2EF0EACF2EFFE037
:10027000DF2EF02DC6010E947500B601882777FD9C
:100280008095982F28E730E040E050E00E94CB05B1
:1002900020ED37E040E050E00E94FE058901045B5C
:1002A0001040C8011AF4909581959F4FB5010E94A6
:1002B0002804112334F45A824982C5010E9494040F
:1002C00003C0C5010E9494048DB79EB708970FB66E
:1002D000F8949EBF0FBE8DBFEDB7FEB731969182E9
:1002E0008082F382E28215830483D782C6820E94D1
:1002F0003102EDB7FEB738960FB6F894FEBF0FBEC9
:10030000EDBF7FCFE0916001F09161018193F093A7
:100310006101E09360010895982F8A3014F480E31E
:1003200007C080917001882311F487E501C087E33D
:10033000890F0E94820181E0809371010895AC01D0
:1003400080916E0190916F018417950710F4E0E0A1
:1003500017C066277727641B750B9C01241B350B80
:10036000E0E0EF5FF22FA32F260F371FC901840FA4
:10037000951F84179507A8F7F0936E01A0936F015E
:1003800080917101882311F4EE2319F08E2F0E94C1
:100390008C010895EF92FF920F931F930F2EF0E3BD
:1003A000EF2EF02D0F2EF0E3FF2EF02D00E30E9434
:1003B000F103182F0E94E5031D3021F0EF2CF02EE1
:1003C000012FF5CF802F805D24E69E2D92029001B3
:1003D0001124820F2AE09F2D920290011124820F96
:1003E0001F910F91FF90EF900895EF92FF920F935E
:1003F0001F93CF93DF937C0170E0EB0121971C16D4
:100400001D0614F000E012C000E00E94F103182F56
:100410000E94E5031D3051F0F701E00FF11D10833C
:100420000F5F802F90E08C179D077CF3F701E00FA2
:10043000F11D1082DF91CF911F910F91FF90EF90EE
:100440000895CF93DF93FC018081882339F0EF0179
:100450000E94EE03898121968823D1F7DF91CF9105
:1004600008952F923F924F925F926F927F928F9258
:100470009F92AF92BF92CF92DF92EF92FF920F9333
:100480001F93DF93CF93CDB7DEB70F2EF5E1EF2E9D
:10049000FF24F02DEC0EFD1EF701C190D1907F01DD
:1004A0000F2EF2E66F2EF1E07F2EF02D0F2EF0E3EF
:1004B0004F2EF02D842C5524689455F80F2EFEE60F
:1004C0002F2EF1E03F2EF02D5BC10894C11CD11CF2
:1004D000853221F00E94EE03570151C1F6011191BE
:1004E0006F01103311F0992404C011916F01992408
:1004F0009394912F812F80538A3010F000E012C026
:1005000000E0892F8053902F990F990F900F990F2A
:10051000082F090FF60111916F01912F812F805340
:100520008A3078F3709261016092600110927101DB
:10053000133609F4C2C014369CF4183509F451C0BE
:1005400019355CF4123409F478C01334ACF4112377
:1005500009F41BC1153281F4C6C0123669F46DC0AE
:10056000133709F4B6C014371CF4143629F407C045
:10057000153729F01837A9F15701D301B9C0F70190
:100580002081318120936E0130936F01143669F41C
:1005900033235CF488279927821B930B90936F0178
:1005A00080936E018DE20E948201AA24BB2468948C
:1005B000A1F8AE0CBF1C80E197E20E949F0188EE7B
:1005C00093E00E949F0184E690E00E949F018AE0F0
:1005D00090E00E949F01F10180810E948C01D30173
:1005E00087C0842D0E94820188E70E9482011092B8
:1005F0007001183519F4F1E0F0937001AA24BB24BE
:100600006894A1F8AE0CBF1CF70180819181909392
:100610006F0180936E0180E090E10E949F0180E075
:1006200091E00E949F0180E190E00E949F01F10112
:1006300080810E948C01D3015BC0842D0E948201C5
:1006400082E60E94820110927001123419F4F1E0E6
:10065000F0937001AA24BB246894A1F8AE0CBF1CCF
:10066000F70180819181907090936F0180936E016A
:10067000F1E0F093710180E890E00E949F0180E436
:1006800090E00E949F0180E290E00E949F0180E143
:1006900090E00E949F0188E090E00E949F0184E02A
:1006A00090E00E949F0182E090E00E949F01F10192
:1006B00080810E948C01D3011BC0AA24BB246894B2
:1006C000A1F8AE0CBF1CF70180810E948201D3010A
:1006D0000FC0AA24BB246894A1F8AE0CBF1CF7017C
:1006E000A081B18105C085E20E9482015701D3013A
:1006F000E0916001F09161011082B0936101A093DB
:100700006001FD0181917F01F0936101E09360013F
:10071000882389F010163CF50150E0916001F091BA
:1007200061018191F0936101E0936001882319F0E8
:10073000101694F318C01016B4F48C918D3211F089
:100740007D0103C08DE20E94EE03102F115099200D
:1007500011F4852D01C0882D0E94EE03111614F4AA
:100760001150F5CFD7018C91882349F08D010E945B
:10077000EE03F80181810F5F1F4F8823C1F77501D8
:10078000F6018081882309F0A0CECF91DF911F91DF
:100790000F91FF90EF90DF90CF90BF90AF909F9020
:1007A0008F907F906F905F904F903F902F90089523
:1007B00087E690E09093C5008093C40088E1809321
:1007C000C10086E08093C2000895982FE0ECF0E02D
:1007D000808185FFFDCF9093C60008950E94E503B8
:1007E0000895E0ECF0E080818823ECF78091C6006A
:1007F000089588E48093B80084E48093BC00089551
:10080000ECEBF0E080818823ECF7089584EA809394
:10081000BC000E940004089584E98093BC00089500
:1008200084EC8093BC000E9400048091BB0008957A
:1008300084E88093BC000E9400048091BB0008956E
:100840008093BB0084E88093BC000E94000408955C
:10085000EF92FF921F93CF93DF93EC017B0187E22E
:10086000C031D807C8F049E750E020E031E002C0CD
:100870002F5F3F5F223021F4F70115821482F8CFF9
:10088000822F90E0880F991FF701E80FF91F51831D
:100890004083353068F342C0CE0168EE73E00E94B9
:1008A000EA052DE431E0F901E60FF71F8081F70139
:1008B00080831182CE0168EE73E00E94EA05482F22
:1008C000192F64E670E00E94EA05F901E60FF71FB0
:1008D0008081F7018283138215821482842F912FE5
:1008E00064E670E00E94EA05482F192F6AE070E084
:1008F0000E94EA05F901E60FF71F8081F701868360
:100900001782842F912F6AE070E00E94EA05280F79
:10091000391FF9018081F70180871186DF91CF911E
:100920001F91FF90EF9008950F931F93CF93DF9344
:100930008C010E94060480EE0E94200480E00E9448
:100940002004C0E0D0E0F801EC0FFD1F80810E9480
:10095000200480E00E9420042296CA30D10599F735
:100960000E940C04DF91CF911F910F9108951F9366
:10097000182F0E94060480EE0E942004812F806EB2
:100980000E9420040E940C041F9108951F93182FA9
:100990000E94060480EE0E942004112321F481E8C5
:1009A0000E94200405C0123018F083E80E94200441
:1009B00085E80E9420040E940C041F9108950E9463
:1009C000060480EE0E94200481E20E9420040E941E
:1009D000060480EE0E94200481E80E9420040E9408
:1009E000060480EE0E94200487EE0E9420040E94EC
:1009F0000C040895EAE7F0E08081806480838081C0
:100A000086FDFDCF2091780030917900822F932FC1
:100A10000895982F882331F4ECE7F0E08081807FFF
:100A2000808318C0813031F4ECE7F0E08081816090
:100A3000808318C0823031F4ECE7F0E0808182607E
:100A400080830895833031F4ECE7F0E080818360A7
:100A500080830895943031F4ECE7F0E08081846085
:100A600080830895953029F4ECE7F0E0808185607B
:100A700080830895853049F4ECE7F0E0808180645C
:100A8000808380818F7780830895ECE7F0E0808118
:100A9000806C8083089585E00E943A0580E00E9482
:100AA0000905EAE7F0E080818760808380818068C3
:100AB000808308951F93182F0E94060482E30E94EA
:100AC0002004812F0E9420040E94060483E30E94D8
:100AD00020040E941804182F0E940C04812F1F91DB
:100AE0000895EF92FF921F937C0189E20E945A05BC
:100AF000182F88E20E945A05312F20E090E0282B21
:100B0000392BF701318320838BE20E945A05182F7D
:100B10008AE20E945A05312F20E090E0282B392BE1
:100B2000F701338322838DE20E945A05182F8CE24D
:100B30000E945A05312F20E090E0282B392BF70135
:100B4000358324831F91FF90EF9008950F931F9397
:100B5000182F062F0E94060482E30E942004812F92
:100B60000E942004802F0E9420040E940C041F91E8
:100B70000F9108958FE00E945A05833311F080E0B1
:100B8000089580E267E60E94A60583E260E00E9485
:100B9000A60581E00895629FD001739FF001829FB6
:100BA000E00DF11D649FE00DF11D929FF00D839FFC
:100BB000F00D749FF00D659FF00D9927729FB00D99
:100BC000E11DF91F639FB00DE11DF91FBD01CF01AC
:100BD00011240895AA1BBB1B51E107C0AA1FBB1F0C
:100BE000A617B70710F0A61BB70B881F991F5A95B9
:100BF000A9F780959095BC01CD010895A1E21A2E28
:100C0000AA1BBB1BFD010DC0AA1FBB1FEE1FFF1FB0
:100C1000A217B307E407F50720F0A21BB30BE40B00
:100C2000F50B661F771F881F991F1A9469F7609547
:100C30007095809590959B01AC01BD01CF01089501
:040C4000F894FFCF56
:100C4400506F74656E74696F6D657465722D636F32
:100C54006E74726F6C6C656420736572766F0A0DC6
:100C640000655F76616C75653D25642C2009206103
:100C74006E676C65203D2025642C20092070776DFB
:100C84005F76616C75653D25640A0D00703F065BF7
:0E0C94004F666D7D077F6F777C395E7971004A
:00000001FF
