:100000000C9434000C943E000C943E000C943E0082
:100010000C943E000C943E000C943E000C943E0068
:100020000C943E000C943E000C943E000C943E0058
:100030000C943E000C943E000C943E000C943E0048
:100040000C943E000C943E000C943E000C943E0038
:100050000C943E000C943E000C943E000C943E0028
:100060000C943E000C943E0011241FBECFEFD8E04C
:10007000DEBFCDBF0E9440000C9462000C940000D3
:10008000E4E2F0E0808180628083E5E2F0E0A4ECCD
:10009000B9E040E951E06CE47DE1808180628083D9
:1000A0009D01CA010197F1F721503040D1F78081BD
:1000B0008F7D80839B01CA010197F1F72150304069
:0800C000D1F7EBCFF894FFCF5C
:00000001FF
