:100000000C9434000C9446000C9446000C9446006A
:100010000C9446000C9446000C9446000C94460048
:100020000C9446000C9446000C9446000C9471000D
:100030000C9446000C9446000C9446000C94460028
:100040000C9446000C9446000C9446000C94460018
:100050000C9446000C9446000C9446000C94460008
:100060000C9446000C94460011241FBECFEFD8E03C
:10007000DEBFCDBF11E0A0E0B1E001C01D92A13014
:10008000B107E1F70E945A000C9480000C94000024
:10009000A1E8B0E02C9128602C93EFE6F0E02081FD
:1000A0002260208390938900809388008C918460E3
:1000B0008C930895E4E2F0E080818062808382E1A5
:1000C0009AE70E9448007894E5E2F0E090E280919F
:1000D00000018823E1F31092000180818927808349
:1000E000F6CF1F920F920FB60F9211248F9381E0DB
:1000F000809300018F910F900FBE0F901F90189565
:04010000F894FFCFA1
:00000001FF
