:100000000C9434000C9451000C9451000C94510049
:100010000C9451000C9451000C9451000C9451001C
:100020000C9451000C9451000C9451000C9451000C
:100030000C9451000C9451000C9451000C945100FC
:100040000C9451000C9451000C9451000C945100EC
:100050000C9451000C9451000C9451000C945100DC
:100060000C9451000C94510011241FBECFEFD8E026
:10007000DEBFCDBF11E0A0E0B1E0E6E0FCE002C0F1
:1000800005900D92AC33B107D9F711E0ACE3B1E0C4
:1000900001C01D92A235B107E1F70E9453000C94F4
:1000A00001060C9400008F929F92AF92BF92CF9264
:1000B000DF92EF92FF920F931F93DF93CF9300D0C5
:1000C00000D000D0CDB7DEB70E9466030E94450382
:1000D0000E94BD0500D080E091E0EDB7FEB79283AD
:1000E00081830E949E010F900F906E010894C11CA5
:1000F000D11C0F2EFBE1AF2EF1E0BF2EF02D0F2E05
:10010000F8EE8F2EF3E09F2EF02D0F2EF0E9EF2E5C
:10011000F1E0FF2EF02DC6010E9474058DB79EB749
:1001200008970FB6F8949EBF0FBE8DBF0DB71EB7D0
:100130000F5F1F4FF801B182A08269817A81882701
:1001400077FD8095982F20ED37E040E050E00E9449
:10015000CE05052E5FE095958795779567955A951D
:10016000D1F7502DF801738362836B817C818827DE
:1001700077FD8095982F0E94CE05052E5FE095951E
:100180008795779567955A95D1F7502DF801758326
:1001900064836D817E81882777FD8095982F0E94EA
:1001A000CE05052E5FE095958795779567955A95CD
:1001B000D1F7502DF801778366830E949E01940148
:1001C0008DB79EB708960FB6F8949EBF0FBE8DBF31
:1001D000C7010197F1F721503040D1F79CCFE09152
:1001E0003C01F0913D018193F0933D01E0933C018E
:1001F0000895982F8A3014F480E307C080914C0151
:10020000882311F487E501C087E3890F0E94EF007E
:1002100081E080934D010895AC0180914A01909155
:100220004B018417950710F4E0E017C06627772785
:10023000641B750B9C01241B350BE0E0EF5FF22F74
:10024000A32F260F371FC901840F951F8417950709
:10025000A8F7F0934A01A0934B0180914D018823A8
:1002600011F4EE2319F08E2F0E94F9000895EF92F9
:10027000FF920F931F930F2EF0E3EF2EF02D0F2E12
:10028000F0E3FF2EF02D00E30E945E03182F0E9482
:1002900052031D3021F0EF2CF02E012FF5CF802FCF
:1002A000805D24E69E2D920290011124820F2AE0A7
:1002B0009F2D920290011124820F1F910F91FF90A8
:1002C000EF900895EF92FF920F931F93CF93DF93D8
:1002D0007C0170E0EB0121971C161D0614F000E074
:1002E00012C000E00E945E03182F0E9452031D30CE
:1002F00051F0F701E00FF11D10830F5F802F90E0A8
:100300008C179D077CF3F701E00FF11D1082DF9140
:10031000CF911F910F91FF90EF900895CF93DF93AE
:10032000FC018081882339F0EF010E945B03898101
:1003300021968823D1F7DF91CF9108952F923F9294
:100340004F925F926F927F928F929F92AF92BF92E5
:10035000CF92DF92EF92FF920F931F93DF93CF9391
:10036000CDB7DEB70F2EF5E1EF2EFF24F02DEC0E0A
:10037000FD1EF701C190D1907F010F2EFEE36F2E7D
:10038000F1E07F2EF02D0F2EF0E34F2EF02D842C78
:100390005524689455F80F2EFAE42F2EF1E03F2EE5
:1003A000F02D5BC10894C11CD11C853221F00E9444
:1003B0005B03570151C1F60111916F01103311F028
:1003C000992404C011916F0199249394912F812F46
:1003D00080538A3010F000E012C000E0892F805373
:1003E000902F990F990F900F990F082F090FF60171
:1003F00011916F01912F812F80538A3078F3709281
:100400003D0160923C0110924D01133609F4C2C0C7
:1004100014369CF4183509F451C019355CF41234C3
:1004200009F478C01334ACF4112309F41BC115325C
:1004300081F4C6C0123669F46DC0133709F4B6C032
:1004400014371CF4143629F407C0153729F018376F
:10045000A9F15701D301B9C0F7012081318120935F
:100460004A0130934B01143669F433235CF4882736
:100470009927821B930B90934B0180934A018DE245
:100480000E94EF00AA24BB246894A1F8AE0CBF1C04
:1004900080E197E20E940C0188EE93E00E940C013B
:1004A00084E690E00E940C018AE090E00E940C013A
:1004B000F10180810E94F900D30187C0842D0E9440
:1004C000EF0088E70E94EF0010924C01183519F4F4
:1004D000F1E0F0934C01AA24BB246894A1F8AE0C7F
:1004E000BF1CF7018081918190934B0180934A0159
:1004F00080E090E10E940C0180E091E00E940C01FC
:1005000080E190E00E940C01F10180810E94F900DD
:10051000D3015BC0842D0E94EF0082E60E94EF00B1
:1005200010924C01123419F4F1E0F0934C01AA241A
:10053000BB246894A1F8AE0CBF1CF70180819181A7
:10054000907090934B0180934A01F1E0F0934D013C
:1005500080E890E00E940C0180E490E00E940C0191
:1005600080E290E00E940C0180E190E00E940C018A
:1005700088E090E00E940C0184E090E00E940C0171
:1005800082E090E00E940C01F10180810E94F9005C
:10059000D3011BC0AA24BB246894A1F8AE0CBF1CD5
:1005A000F70180810E94EF00D3010FC0AA24BB2471
:1005B0006894A1F8AE0CBF1CF701A081B18105C001
:1005C00085E20E94EF005701D301E0913C01F091D8
:1005D0003D011082B0933D01A0933C01FD0181914A
:1005E0007F01F0933D01E0933C01882389F01016D0
:1005F0003CF50150E0913C01F0913D018191F09377
:100600003D01E0933C01882319F0101694F318C0C3
:100610001016B4F48C918D3211F07D0103C08DE27F
:100620000E945B03102F1150992011F4852D01C0F9
:10063000882D0E945B03111614F41150F5CFD701D9
:100640008C91882349F08D010E945B03F801818120
:100650000F5F1F4F8823C1F77501F6018081882342
:1006600009F0A0CECF91DF911F910F91FF90EF90F5
:10067000DF90CF90BF90AF909F908F907F906F90C2
:100680005F904F903F902F90089587E690E0909371
:10069000C5008093C40088E18093C10086E0809308
:1006A000C2000895982FE0ECF0E0808185FFFDCF37
:1006B0009093C60008950E9452030895E0ECF0E084
:1006C00080818823ECF78091C600089588E48093A8
:1006D000B80084E48093BC000895ECEBF0E08081E6
:1006E0008823ECF7089584EA8093BC000E946D0390
:1006F000089584E98093BC00089584EC8093BC0045
:100700000E946D038091BB00089584E88093BC0033
:100710000E946D038091BB0008958093BB0084E824
:100720008093BC000E946D030895EF92FF921F9387
:10073000CF93DF93EC017B0187E2C031D807C8F08B
:1007400049E750E020E031E002C02F5F3F5F2230F8
:1007500021F4F70115821482F8CF822F90E0880FE0
:10076000991FF701E80FF91F51834083353068F373
:1007700042C0CE0168EE73E00E94ED052AE231E04E
:10078000F901E60FF71F8081F70180831182CE0106
:1007900068EE73E00E94ED05482F192F64E670E0C3
:1007A0000E94ED05F901E60FF71F8081F7018283B2
:1007B000138215821482842F912F64E670E00E94C8
:1007C000ED05482F192F6AE070E00E94ED05F90150
:1007D000E60FF71F8081F70186831782842F912F00
:1007E0006AE070E00E94ED05280F391FF901808151
:1007F000F70180871186DF91CF911F91FF90EF90D5
:1008000008950F931F93CF93DF938C010E9473037E
:1008100080EE0E948D0380E00E948D03C0E0D0E056
:10082000F801EC0FFD1F80810E948D0380E00E9483
:100830008D032296CA30D10599F70E947903DF9182
:10084000CF911F910F9108951F93182F0E9473034A
:1008500080EE0E948D03812F806E0E948D030E9486
:1008600079031F9108951F93182F0E94730380EE40
:100870000E948D03112321F481E80E948D0305C09D
:10088000123018F083E80E948D0385E80E948D03E2
:100890000E9479031F9108950E94730380EE0E94C5
:1008A0008D0381E20E948D030E94730380EE0E94FB
:1008B0008D0381E80E948D030E94730380EE0E94E5
:1008C0008D0387EE0E948D030E9479030895EAE765
:1008D000F0E0808180648083808186FDFDCF20915F
:1008E000780030917900822F932F0895982F8823D4
:1008F00031F4ECE7F0E08081807F808318C08130A4
:1009000031F4ECE7F0E080818160808318C08230B0
:1009100031F4ECE7F0E080818260808308958330D9
:1009200031F4ECE7F0E080818360808308959430B7
:1009300031F4ECE7F0E080818460808308959530A5
:1009400029F4ECE7F0E080818560808308958530AC
:1009500049F4ECE7F0E080818064808380818F77C8
:1009600080830895ECE7F0E08081806C80830895B7
:1009700085E00E94A70480E00E947604EAE7F0E0A8
:100980008081876080838081806880830895A0E86B
:10099000B0E08C9182608C93E1E8F0E08081886126
:1009A000808380818260808382EE94E090938700D0
:1009B000809386008C9180688C93109289001092AD
:1009C0008800E4E2F0E0808182608083089524E082
:1009D000823E920710F081EE94E09093890080931C
:1009E000880008950E94C70410925101109250018E
:1009F00010924E0110924F01089599231CF4909586
:100A000081959F4F9093510180935001E5E2F0E072
:100A1000208190914E0180914F01990F990F990F6C
:100A2000880F880F892B237F822B80838091500130
:100A3000909151010E94E7040895282F882359F4CA
:100A400083E090E090933B0180933A0110924E0135
:100A500010924F010895833061F482E090E090930A
:100A60003B0180933A0181E080934E0180934F01D6
:100A700008958150823000F580913A0190913B01B8
:100A8000892B31F080913A0190913B01019729F433
:100A900081E080934E0180934F01213031F481E059
:100AA00080934E0110924F010895223029F4109244
:100AB0004E0181E080934F0108951F93182F0E94EB
:100AC000730382E30E948D03812F0E948D030E9495
:100AD000730383E30E948D030E948503182F0E94F5
:100AE0007903812F1F910895EF92FF921F937C014C
:100AF00089E20E945D05182F88E20E945D05312F72
:100B000020E090E0282B392BF701318320838BE202
:100B10000E945D05182F8AE20E945D05312F20E0BA
:100B200090E0282B392BF701338322838DE20E943A
:100B30005D05182F8CE20E945D05312F20E090E0CA
:100B4000282B392BF701358324831F91FF90EF90D9
:100B500008950F931F93182F062F0E94730382E3AB
:100B60000E948D03812F0E948D03802F0E948D0390
:100B70000E9479031F910F9108958FE00E945D05F7
:100B8000833311F080E0089580E267E60E94A905B2
:100B900083E260E00E94A90581E00895629FD00190
:100BA000739FF001829FE00DF11D649FE00DF11D28
:100BB000929FF00D839FF00D749FF00D659FF00DD7
:100BC0009927729FB00DE11DF91F639FB00DE11DC4
:100BD000F91FBD01CF0111240895AA1BBB1B51E1D0
:100BE00007C0AA1FBB1FA617B70710F0A61BB70B9D
:100BF000881F991F5A95A9F780959095BC01CD0142
:060C00000895F894FFCFF7
:100C0600616363656C5F782C20616363656C5F79F3
:100C16002C20616363656C5F7A0A0025640925648C
:100C26000925640A0D000FD007703F065B4F666DFD
:0C0C36007D077F6F777C395E79710300C9
:00000001FF
