:100000000C944B000C9468000C9468000C946800ED
:100010000C9468000C9468000C9468000C946800C0
:100020000C9468000C9468000C9468000C946800B0
:100030000C9468000C9468000C947C000C9468008C
:100040000C9468000C9468000C9468000C94680090
:100050000C9468000C9468000C9468000C94680080
:100060000C9468000C946800084AD73B3BCE016EA4
:1000700084BCBFFDC12F3D6C74319ABD56833DDAFF
:100080003D00C77F11BED9E4BB4C3E916BAAAABE0E
:10009000000000803F0011241FBECFEFD8E0DEBF7C
:1000A000CDBF12E0A0E0B1E0E4EFFEE102C00590B8
:1000B0000D92A03BB107D9F712E0A0EBB2E001C06E
:1000C0001D92A73CB107E1F70E948B000C94780FBA
:1000D0000C940000E4E4F0E0908192609083EEE6FE
:1000E000F0E090819260908387BDE5E4F0E080814C
:1000F00085608083789408951F920F920FB60F92B7
:1001000011248F9381E08093B0028F910F900FBEE6
:100110000F901F9018952F923F924F925F926F927F
:100120007F928F929F92AF92BF92CF92DF92EF9287
:10013000FF920F931F93DF93CF93CDB7DEB7A897AE
:100140000FB6F894DEBF0FBECDBF8DE790E00E94E2
:100150006A000E9417050E94F6040E94FD058FE0C8
:100160000E94D50518861F821A8619861C861B8652
:100170001E861D86188A1F86CE0107960E94B2052C
:100180000E946E07882361F000D080E091E0EDB717
:10019000FEB7928381830E944F030F900F900BC094
:1001A00000D08EE191E0EDB7FEB7928381830E948B
:1001B0004F030F900F90EAE2F0E080818068808327
:1001C000808180648083808180628083808180617F
:1001D0008083CC24DD2400E010E08091B0028823ED
:1001E00029F01092B0020894C11CD11CCE010196D6
:1001F0000E94250729813A81EB80FC80AD80BE807A
:10020000FDE7CF16D10409F059C1B901882777FD60
:100210008095982F20ED37E040E050E00E94710C6F
:10022000052E5FE095958795779567955A95D1F757
:10023000502D788F6F8BB701882777FD8095982F89
:100240000E94710C052E5FE09595879577956795CF
:100250005A95D1F7502D7E8B6D8BB501882777FD90
:100260008095982F0E94710C052E5FE095958795DB
:10027000779567955A95D1F7502D7C8B6B8B2F898D
:10028000388DB901882777FD8095982F0E94230A21
:100290006D8F7E8F8F8F98A34D895E89BA018827D5
:1002A00077FD8095982F0E94230A69A37AA38BA3D8
:1002B0009CA36D8D7E8D8F8D98A129A13AA14BA114
:1002C0005CA10E94EA0C20EE3EE245E652E40E9468
:1002D00029090E94810E0E94810A6DA37EA38FA32B
:1002E00098A78DA19EA19A8B898B69A17AA18BA1D8
:1002F0009CA19B01AC010E942909662E772E882EB5
:10030000992EEB89FC89BF01882777FD8095982F6E
:100310000E94230A1B012C01A20191010E942909BC
:10032000A62EB72EC82ED92E6D8D7E8D8F8D98A1BD
:100330009B01AC010E942909E62EF72E082F192FE8
:10034000C401B301A80197010E94FC080E94A50EF8
:10035000A20191010E94EA0C20EE3EE245E652E441
:100360000E9429090E94810E698F7A8F8B8F9C8F42
:10037000C601B501A80197010E94FC080E94A50EC4
:100380009B01AC0169A17AA18BA19CA10E94EA0CFE
:1003900020EE3EE245E652E40E9429090E94810EC9
:1003A0001B012C01C401B301A60195010E94FC08A8
:1003B0000E94A50E9B01AC016D8D7E8D8F8D98A145
:1003C0000E94EA0C20EE3EE245E652E40E94290932
:1003D0000E94810E2DB73EB7285030400FB6F894DA
:1003E0003EBF0FBE2DBF0DB71EB70F5F1F4F24E4DA
:1003F00031E0F801318320830E94810AF801738380
:100400006283C201B1010E94810AF801758364838D
:10041000698D7A8D8B8D9C8D0E94810AF80177837E
:1004200066830E944F032DB73EB7285F3F4F0FB63C
:10043000F8943EBF0FBE2DBF8DA19EA199231CF441
:10044000909581959F4FBE01695F7F4F0E94460541
:1004500089899A8999234CF4E0E4F0E0F887EF83E6
:10046000CE0107960E94B20504C0CE0107960E94F5
:10047000B2052F89388D33231CF4309521953F4FD9
:100480008D899E8999231CF4909581959F4F2817FB
:1004900039072CF42D893E8933235CF51DC06B8907
:1004A0007C8977231CF4709561957F4F2617370759
:1004B0009CF04F89588D55234CF535C001301105FE
:1004C000D1F00130110550F00230110509F103306F
:1004D000110509F082CE29C0CC24DD24EBE2F0E046
:1004E00080818064808380818F74808300E010E04D
:1004F00074CECC24DD24EBE2F0E080818062808346
:1005000080818F72808301E010E067CECC24DD24EF
:10051000EBE2F0E080818061808380818F71808355
:1005200002E010E05ACECC24DD24EBE2F0E0808142
:100530008068808380818F78808303E010E04DCED7
:10054000E091B102F091B2028193F093B202E09394
:10055000B1020895982F8A3014F480E307C0809187
:10056000C102882311F487E501C087E3890F0E9447
:10057000A00281E08093C2020895AC018091BF0285
:100580009091C0028417950710F4E0E017C0662729
:100590007727641B750B9C01241B350BE0E0EF5F94
:1005A000F22FA32F260F371FC901840F951F841721
:1005B0009507A8F7F093BF02A093C0028091C202F2
:1005C000882311F4EE2319F08E2F0E94AA020895B9
:1005D000EF92FF920F931F930F2EF0E3EF2EF02D6B
:1005E0000F2EF0E3FF2EF02D00E30E940F05182FD1
:1005F0000E9403051D3021F0EF2CF02E012FF5CFC6
:10060000802F805D24E69E2D920290011124820F9E
:100610002AE09F2D920290011124820F1F910F91C9
:10062000FF90EF900895EF92FF920F931F93CF9357
:10063000DF937C0170E0EB0121971C161D0614F07E
:1006400000E012C000E00E940F05182F0E94030571
:100650001D3051F0F701E00FF11D10830F5F802F67
:1006600090E08C179D077CF3F701E00FF11D1082DD
:10067000DF91CF911F910F91FF90EF900895CF934D
:10068000DF93FC018081882339F0EF010E940C0583
:10069000898121968823D1F7DF91CF9108952F92F8
:1006A0003F924F925F926F927F928F929F92AF9202
:1006B000BF92CF92DF92EF92FF920F931F93DF933F
:1006C000CF93CDB7DEB70F2EF5E1EF2EFF24F02D3F
:1006D000EC0EFD1EF701C190D1907F010F2EF3EBC0
:1006E0006F2EF2E07F2EF02D0F2EF0E34F2EF02D27
:1006F000842C5524689455F80F2EFFEB2F2EF2E032
:100700003F2EF02D5BC10894C11CD11C853221F015
:100710000E940C05570151C1F60111916F01103370
:1007200011F0992404C011916F0199249394912F91
:10073000812F80538A3010F000E012C000E0892F32
:100740008053902F990F990F900F990F082F090F31
:10075000F60111916F01912F812F80538A3078F328
:100760007092B2026092B1021092C202133609F482
:10077000C2C014369CF4183509F451C019355CF424
:10078000123409F478C01334ACF4112309F41BC1FA
:10079000153281F4C6C0123669F46DC0133709F4FE
:1007A000B6C014371CF4143629F407C0153729F0E5
:1007B0001837A9F15701D301B9C0F7012081318160
:1007C0002093BF023093C002143669F433235CF4E3
:1007D00088279927821B930B9093C0028093BF02B6
:1007E0008DE20E94A002AA24BB246894A1F8AE0C5A
:1007F000BF1C80E197E20E94BD0288EE93E00E9458
:10080000BD0284E690E00E94BD028AE090E00E9472
:10081000BD02F10180810E94AA02D30187C0842D0C
:100820000E94A00288E70E94A0021092C10218351F
:1008300019F4F1E0F093C102AA24BB246894A1F852
:10084000AE0CBF1CF701808191819093C002809310
:10085000BF0280E090E10E94BD0280E091E00E9432
:10086000BD0280E190E00E94BD02F10180810E9402
:10087000AA02D3015BC0842D0E94A00282E60E94DE
:10088000A0021092C102123419F4F1E0F093C102F7
:10089000AA24BB246894A1F8AE0CBF1CF701808188
:1008A000918190709093C0028093BF02F1E0F09329
:1008B000C20280E890E00E94BD0280E490E00E94C5
:1008C000BD0280E290E00E94BD0280E190E00E94C3
:1008D000BD0288E090E00E94BD0284E090E00E94AA
:1008E000BD0282E090E00E94BD02F10180810E9481
:1008F000AA02D3011BC0AA24BB246894A1F8AE0CA1
:10090000BF1CF70180810E94A002D3010FC0AA245E
:10091000BB246894A1F8AE0CBF1CF701A081B18183
:1009200005C085E20E94A0025701D301E091B10207
:10093000F091B2021082B093B202A093B102FD0115
:1009400081917F01F093B202E093B102882389F094
:1009500010163CF50150E091B102F091B202819184
:10096000F093B202E093B102882319F0101694F3C9
:1009700018C01016B4F48C918D3211F07D0103C0B3
:100980008DE20E940C05102F1150992011F4852D35
:1009900001C0882D0E940C05111614F41150F5CFDA
:1009A000D7018C91882349F08D010E940C05F80134
:1009B00081810F5F1F4F8823C1F77501F601808188
:1009C000882309F0A0CECF91DF911F910F91FF9066
:1009D000EF90DF90CF90BF90AF909F908F907F90DF
:1009E0006F905F904F903F902F90089587E690E032
:1009F0009093C5008093C40088E18093C10086E095
:100A00008093C2000895982FE0ECF0E0808185FF8C
:100A1000FDCF9093C60008950E9403050895E0EC71
:100A2000F0E080818823ECF78091C600089588E487
:100A30008093B80084E48093BC000895ECEBF0E070
:100A400080818823ECF7089584EA8093BC000E949B
:100A50001E05089584E98093BC00089584EC80937A
:100A6000BC000E941E058091BB00089584E880931D
:100A7000BC000E941E058091BB0008958093BB00BE
:100A800084E88093BC000E941E050895EF92FF92B7
:100A90001F93CF93DF93EC017B0187E2C031D8072E
:100AA000C8F049E750E020E031E002C02F5F3F5F2F
:100AB000223021F4F70115821482F8CF822F90E0C2
:100AC000880F991FF701E80FF91F518340833530D4
:100AD00068F342C0CE0168EE73E00E94900C25E9F5
:100AE00031E0F901E60FF71F8081F7018083118261
:100AF000CE0168EE73E00E94900C482F192F64E637
:100B000070E00E94900CF901E60FF71F8081F70159
:100B10008283138215821482842F912F64E670E001
:100B20000E94900C482F192F6AE070E00E94900CF0
:100B3000F901E60FF71F8081F70186831782842F62
:100B4000912F6AE070E00E94900C280F391FF90184
:100B50008081F70180871186DF91CF911F91FF90EF
:100B6000EF9008950F931F93CF93DF938C010E9412
:100B7000240580EE0E943E0580E00E943E05C0E014
:100B8000D0E0F801EC0FFD1F80810E943E0580E05F
:100B90000E943E052296CA30D10599F70E942A0587
:100BA000DF91CF911F910F9108951F93182F0E94ED
:100BB000240580EE0E943E05812F806E0E943E0536
:100BC0000E942A051F9108951F93182F0E94240543
:100BD00080EE0E943E05112321F481E80E943E052B
:100BE00005C0123018F083E80E943E0585E80E9497
:100BF0003E050E942A051F9108950E94240580EE5B
:100C00000E943E0581E20E943E050E94240580EE7E
:100C10000E943E0581E80E943E050E94240580EE68
:100C20000E943E0587EE0E943E050E942A05089517
:100C3000EAE7F0E0808180648083808186FDFDCFDB
:100C40002091780030917900822F932F0895982F6A
:100C5000882331F4ECE7F0E08081807F808318C046
:100C6000813031F4ECE7F0E080818160808318C04E
:100C7000823031F4ECE7F0E0808182608083089577
:100C8000833031F4ECE7F0E0808183608083089565
:100C9000943031F4ECE7F0E0808184608083089543
:100CA000953029F4ECE7F0E0808185608083089539
:100CB000853049F4ECE7F0E08081806480838081B6
:100CC0008F7780830895ECE7F0E08081806C8083EB
:100CD000089585E00E94580680E00E942706EAE712
:100CE000F0E08081876080838081806880830895C0
:100CF000A0E8B0E08C9182608C93E1E8F0E0808124
:100D00008861808380818260808382EE94E090930A
:100D10008700809386008C9180688C931092890064
:100D200010928800E4E2F0E0808182608083089580
:100D300024E0823E920710F081EE94E090938900C7
:100D40008093880008950E9478061092C60210923F
:100D5000C5021092C3021092C402089599231CF494
:100D6000909581959F4F9093C6028093C502E5E2CE
:100D7000F0E020819091C3028091C402990F990FF5
:100D8000990F880F880F892B237F822B8083809176
:100D9000C5029091C6020E9498060895282F8823C4
:100DA00059F483E090E09093A6018093A5011092FE
:100DB000C3021092C4020895833061F482E090E08F
:100DC0009093A6018093A50181E08093C302809354
:100DD000C40208958150823000F58091A501909160
:100DE000A601892B31F08091A5019091A601019770
:100DF00029F481E08093C3028093C402213031F44E
:100E000081E08093C3021092C4020895223029F435
:100E10001092C30281E08093C40208951F93182F9B
:100E20000E94240582E30E943E05812F0E943E0518
:100E30000E94240583E30E943E050E943605182F78
:100E40000E942A05812F1F910895EF92FF921F9310
:100E50007C0189E20E940E07182F88E20E940E078B
:100E6000312F20E090E0282B392BF70131832083AC
:100E70008BE20E940E07182F8AE20E940E07312F84
:100E800020E090E0282B392BF701338322838DE279
:100E90000E940E07182F8CE20E940E07312F20E0CF
:100EA00090E0282B392BF701358324831F91FF9085
:100EB000EF9008950F931F93182F062F0E9424057B
:100EC00082E30E943E05812F0E943E05802F0E94F2
:100ED0003E050E942A051F910F9108958FE00E9400
:100EE0000E07833311F080E0089580E267E60E94E8
:100EF0005A0783E260E00E945A0781E00895A0E06B
:100F0000B0E0E5E8F7E00C94A40CDC012B01FA0159
:100F10009C91923008F439C1EB018881823008F449
:100F200033C1943069F4843009F02FC111969C913B
:100F300011978981981709F428C1A7EAB1E025C162
:100F4000843009F421C18230A9F4923009F01DC126
:100F50009A01AD0188E0EA010990AE01E901099228
:100F60009E018150C1F7E201898111969C918923EC
:100F7000818308C1923009F407C112962D903C90EC
:100F80001397EB018A819B811496AD90BD90CD9013
:100F9000DC901797EC80FD800E811F819101281B4A
:100FA000390BB90137FF04C066277727621B730B23
:100FB000603271050CF061C0121613066CF5370132
:100FC0004801062E04C096948794779467940A94F7
:100FD000D2F721E030E040E050E004C0220F331FA0
:100FE000441F551F6A95D2F7215030404040504071
:100FF0002E213F2140235123211531054105510563
:1010000021F021E030E040E050E079018A01E6285B
:10101000F728082919293CC0232BD1F1260E371EA9
:1010200035014601062E04C0969487947794679400
:101030000A94D2F721E030E040E050E004C0220FF3
:10104000331F441F551F6A95D2F72150304040404E
:1010500050402A213B214C215D21211531054105BC
:10106000510521F021E030E040E050E059016A01F3
:10107000A628B728C828D9280BC0821593052CF0BC
:101080001C01AA24BB24650103C0EE24FF248701B0
:1010900011969C91D20111968C91981709F445C034
:1010A000992339F0A80197012A193B094C095D09D8
:1010B00006C0A60195012E193F09400B510B57FDA3
:1010C00008C011823382228224833583468357836A
:1010D0001DC081E081833382228288279927DC0129
:1010E000821B930BA40BB50B84839583A683B783D4
:1010F0000DC0220F331F441F551F248335834683A1
:1011000057838281938101979383828324813581E0
:1011100046815781DA01C9010197A109B1098F5FA1
:101120009F4FAF4FBF4328F30BC09183338222827E
:10113000EA0CFB1C0C1D1D1DE482F582068317833F
:1011400083E08083248135814681578157FF1AC00F
:10115000C901AA2797FDA095BA2F81709070A07041
:10116000B0705695479537952795822B932BA42BD6
:10117000B52B84839583A683B7838281938101965F
:1011800093838283DF0101C0D201CD01CDB7DEB7E9
:10119000E2E10C94C00CA0E2B0E0E1EDF8E00C94C8
:1011A000B00C69837A838B839C832D833E834F832A
:1011B0005887E9E0EE2EF12CEC0EFD1ECE010196D3
:1011C000B7010E94F90B8E010F5E1F4FCE010596ED
:1011D000B8010E94F90B8A8991E089278A8BC7019F
:1011E000B801AE01475E5F4F0E947F070E94240B4B
:1011F000A096E6E00C94CC0CA0E2B0E0E2E0F9E0CE
:101200000C94B00C69837A838B839C832D833E83FB
:101210004F835887F9E0EF2EF12CEC0EFD1ECE0126
:101220000196B7010E94F90B8E010F5E1F4FCE0190
:101230000596B8010E94F90BC701B801AE01475EDF
:101240005F4F0E947F070E94240BA096E6E00C945B
:10125000CC0CA0E2B0E0EFE2F9E00C94A40C6983BE
:101260007A838B839C832D833E834F835887CE0163
:101270000196BE01675F7F4F0E94F90BCE01059674
:10128000BE016F5E7F4F0E94F90B9985923088F006
:1012900089898230C8F0943019F4823051F404C046
:1012A000843029F4923081F487EA91E0C6C092300C
:1012B00049F420E09A858A89981321E02A87CE0193
:1012C0000996BBC0823049F420E09A858A89981338
:1012D00021E02A8BCE014196B0C02D843E844F84FC
:1012E00058886D887E888F88988CEE24FF2487012B
:1012F000AA24BB24650140E050E060E070E0E0E03B
:10130000F0E0C10181709070892BE9F0E60CF71CC8
:10131000081D191D9A01AB012A0D3B1D4C1D5D1DB9
:1013200080E090E0A0E0B0E0E614F70408051905BD
:1013300020F481E090E0A0E0B0E0BA01A901480FFC
:10134000591F6A1F7B1FAA0CBB1CCC1CDD1C97FEFF
:1013500008C081E090E0A0E0B0E0A82AB92ACA2A3B
:10136000DB2A3196E032F10549F0660C771C881CC7
:10137000991C5694479437942794C3CFFA85EA89E9
:101380002B893C898B859C85280F391F2E5F3F4F09
:1013900017C0CA0181709070892B61F0169507956E
:1013A000F794E79480E090E0A0E0B0E8E82AF92A1A
:1013B0000A2B1B2B76956795579547952F5F3F4FC7
:1013C00077FDE7CF0CC0440F551F661F771F17FD31
:1013D0004160EE0CFF1C001F111F215030404030B7
:1013E00090E0590790E0690790E4790760F32B8F4C
:1013F0003C8FDB01CA018F779070A070B070803491
:101400009105A105B10561F447FD0AC0E114F1049D
:101410000105110529F0405C5F4F6F4F7F4F407809
:101420001A8EFE1711F081E08A8F4D8F5E8F6F8FBD
:1014300078A383E0898FCE0149960E94240BA09661
:10144000E2E10C94C00CA8E0B0E0E9E2FAE00C9410
:10145000AD0C9B01AC0183E08983DA01C9018827C7
:10146000B7FD83959927AA27BB27B82E21153105EB
:101470004105510519F482E089833AC08823A9F017
:10148000203080E0380780E0480780E8580729F4DA
:1014900060E070E080E09FEC30C0EE24FF24870124
:1014A000E21AF30A040B150B02C079018A018EE1DE
:1014B000C82ED12CDC82CB82ED82FE820F8318876E
:1014C000C801B7010E94D50A01971816190684F4BD
:1014D000082E04C0EE0CFF1C001F111F0A94D2F747
:1014E000ED82FE820F831887C81AD90ADC82CB826C
:1014F000BA82CE0101960E94240B2896E9E00C9452
:10150000C90CACE0B0E0E7E8FAE00C94B40C6983F5
:101510007A838B839C83CE010196BE016B5F7F4FE4
:101520000E94F90B8D81823061F1823050F184305C
:1015300021F48E81882351F12EC02F81388537FD0B
:1015400020C06E812F3131051CF06623F9F023C0D5
:101550008EE190E0821B930B29853A854B855C8553
:1015600004C056954795379527958A95D2F76623F7
:10157000B1F050954095309521953F4F4F4F5F4FBB
:101580000EC020E030E040E050E009C02FEF3FEF18
:101590004FEF5FE704C020E030E040E050E8B901E1
:1015A000CA012C96E2E00C94D00CEF92FF920F93BC
:1015B0001F937B018C0180E0E81680E0F80681E053
:1015C000080780E0180788F48FEFE816F10401059A
:1015D000110531F028F088E090E0A0E0B0E017C0FD
:1015E00080E090E0A0E0B0E012C080E0E81680E08B
:1015F000F80680E0080781E0180728F088E190E00D
:10160000A0E0B0E004C080E190E0A0E0B0E020E223
:1016100030E040E050E0281B390B4A0B5B0B04C064
:1016200016950795F794E7948A95D2F7F701E15557
:10163000FE4F8081281B310941095109C9011F91C1
:101640000F91FF90EF900895DF92EF92FF920F932A
:101650001F93FC01E480F58006811781D180808191
:10166000823048F480E090E0A0E1B0E0E82AF92A76
:101670000A2B1B2BA5C0843009F49FC0823021F4B3
:10168000EE24FF24870105C0E114F10401051105D2
:1016900019F4E0E0F0E096C0628173819FEF623858
:1016A00079070CF05BC022E83FEF261B370B2A318D
:1016B00031052CF020E030E040E050E02AC0B801D5
:1016C000A701022E04C076956795579547950A9411
:1016D000D2F781E090E0A0E0B0E004C0880F991F4D
:1016E000AA1FBB1F2A95D2F70197A109B1098E2124
:1016F0009F21A023B1230097A105B10521F081E02E
:1017000090E0A0E0B0E09A01AB01282B392B4A2BE6
:101710005B2BDA01C9018F779070A070B0708034B4
:101720009105A105B10539F427FF09C0205C3F4FA1
:101730004F4F5F4F04C0215C3F4F4F4F5F4FE0E082
:10174000F0E02030A0E03A07A0E04A07A0E45A0702
:1017500010F0E1E0F0E079018A0127C060387105FE
:1017600064F5FB01E158FF4FD801C7018F779070F6
:10177000A070B07080349105A105B10539F4E7FE81
:101780000DC080E490E0A0E0B0E004C08FE390E002
:10179000A0E0B0E0E80EF91E0A1F1B1F17FF05C0EE
:1017A00016950795F794E794319687E01695079577
:1017B000F794E7948A95D1F705C0EE24FF248701BA
:1017C000EFEFF0E06E2F679566276795902F9F7774
:1017D000D794DD24D7948E2F8695492F462B582FEA
:1017E0005D29B701CA011F910F91FF90EF90DF9023
:1017F0000895FC01DB01408151812281622F6F77C6
:1018000070E0221F2227221F9381892F880F822BAD
:10181000282F30E0991F9927991F11969C931197B3
:1018200021153105A9F5411551056105710511F421
:1018300082E037C082E89FEF13969C938E931297B5
:101840009A01AB0167E0220F331F441F551F6A95B1
:10185000D1F783E08C930DC0220F331F441F551F17
:1018600012968D919C911397019713969C938E934A
:101870001297203080E0380780E0480780E458075E
:1018800058F314962D933D934D935C9317970895B9
:101890002F3F310579F4411551056105710519F4A2
:1018A00084E08C93089564FF03C081E08C9312C0A0
:1018B0001C9210C02F57304013963C932E931297D2
:1018C00083E08C9387E0440F551F661F771F8A952E
:1018D000D1F7706414964D935D936D937C93179735
:1018E0000895629FD001739FF001829FE00DF11D6A
:1018F000649FE00DF11D929FF00D839FF00D749F8A
:10190000F00D659FF00D9927729FB00DE11DF91F35
:10191000639FB00DE11DF91FBD01CF011124089592
:10192000AA1BBB1B51E107C0AA1FBB1FA617B70705
:1019300010F0A61BB70B881F991F5A95A9F7809521
:101940009095BC01CD0108952F923F924F925F92E6
:101950006F927F928F929F92AF92BF92CF92DF92BF
:10196000EF92FF920F931F93CF93DF93CDB7DEB724
:10197000CA1BDB0B0FB6F894DEBF0FBECDBF0994B8
:101980002A88398848885F846E847D848C849B840F
:10199000AA84B984C884DF80EE80FD800C811B811D
:1019A000AA81B981CE0FD11D0FB6F894DEBF0FBE4C
:1019B000CDBFED010895F5D058F080E891E009F42D
:1019C0009EEFF6D028F040E851E059F45EEF09C0F0
:1019D000C0C028C1E92FE07803D168F3092E052A99
:1019E000C1F3261737074807590738F00E2E07F8B6
:1019F000E02569F0E025E0640AC0EF6307F8009491
:101A000007FADB01B9019D01DC01CA01AD01EF93C9
:101A100041D0D5D00AD05F91552331F02BED3FE076
:101A200049E450FD49ECE8CB0895DF93DD27B92F59
:101A3000BF7740E85FE31616170648075B0710F408
:101A4000D92FF7D09F938F937F936F93BCD1E8E604
:101A5000F0E082D0B4D02F913F914F915F91FAD0B6
:101A6000DD2349F09058A2EA2AED3FE049EC5FE31C
:101A7000D0785D27B8D1DF91A2C09AD040F091D044
:101A800030F021F45F3F19F05EC05111CCC061C04D
:101A9000A7D098F39923C9F35523B1F3951B550BA0
:101AA000BB27AA2762177307840738F09F5F5F4F31
:101AB000220F331F441FAA1FA9F333D00E2E3AF072
:101AC000E0E830D091505040E695001CCAF729D08C
:101AD000FE2F27D0660F771F881FBB1F26173707DB
:101AE0004807AB07B0E809F0BB0B802DBF01FF270B
:101AF00093585F4F2AF09E3F510568F024C093C071
:101B00005F3FECF3983EDCF3869577956795B79544
:101B1000F7959F5FC9F7880F911D9695879597F95F
:101B20000895E1E0660F771F881FBB1F62177307D8
:101B30008407BA0720F0621B730B840BBA0BEE1FED
:101B400088F7E095089597F99F6780E870E060E076
:101B500008959FEF80EC0895DF93CF931F930F9329
:101B6000FF92EF92DF927B018C01689405C0DA2E20
:101B7000EF0170D0FE01E894A59125913591459132
:101B80005591AEF3EF012FD1FE019701A801DA9430
:101B900079F7DF90EF90FF900F911F91CF91DF9138
:101BA000089500240A9416161706180609060895C3
:101BB00000240A9412161306140605060895092E29
:101BC0000394000C11F4882352F0BB0F40F4BF2B98
:101BD00011F460FF04C06F5F7F4F8F4F9F4F0895D8
:101BE00057FD9058440F551F59F05F3F71F04795CE
:101BF000880F97FB991F61F09F3F79F087950895B3
:101C0000121613061406551FF2CF4695F1DF08C0D1
:101C1000161617061806991FF1CF869571056105EE
:101C200008940895E894BB2766277727CB0197F996
:101C300008959B01AC0160E070E080E89FE326C15D
:101C4000B0DF28F0B5DF18F0952309F07CCF81CF05
:101C50001124E9CFC5DFA0F3959FD1F3950F50E094
:101C6000551F629FF001729FBB27F00DB11D639F4E
:101C7000AA27F00DB11DAA1F649F6627B00DA11DF4
:101C8000661F829F2227B00DA11D621F739FB00D9A
:101C9000A11D621F839FA00D611D221F749F33270A
:101CA000A00D611D231F849F600D211D822F762FA3
:101CB0006A2F11249F5750408AF0E1F088234AF0A0
:101CC000EE0FFF1FBB1F661F771F881F91505040EC
:101CD000A9F79E3F510570F036CFA5CF5F3FECF3DB
:101CE000983EDCF3869577956795B795F795E795D8
:101CF0009F5FC1F7FE2B880F911D9695879597F9E9
:101D0000089576DFE0F09E37D8F09639B8F49E3823
:101D100048F4672F782F8827985FF9CF86957795B5
:101D2000679593959539D0F3B62FB1706B0F711DF0
:101D3000811D20F48795779567959395A9C0C3C0B9
:101D400072CF11F40EF405CFBEC052DFD0F3992349
:101D5000D9F3CEF39F57550B87FFC3D00024A0E6DD
:101D600040EA900180585695979528F4805C660F5C
:101D7000771F881F20F026173707480730F4621BAB
:101D8000730B840B202931294A2BA69517940794AD
:101D9000202531254A2758F7660F771F881F20F026
:101DA00026173707480730F4620B730B840B200D9E
:101DB000311D411DA09581F7B901842F9158880FDD
:101DC0009695879508959B01AC0143CAEADE30F0F1
:101DD000EFDE20F031F49F3F11F41EF4BACE0EF482
:101DE000E095E7FBB0CEE92FFBDE80F3BA17620780
:101DF00073078407950718F071F49EF513CF0EF45E
:101E0000E0950B2EBA2FA02D0B01B90190010C010A
:101E1000CA01A0011124FF27591B99F0593F50F422
:101E2000503E68F11A16F040A22F232F342F44277A
:101E3000585FF3CF469537952795A795F040539572
:101E4000C9F77EF41F16BA0B620B730B840BBAF042
:101E50009150A1F0FF0FBB1F661F771F881FC2F7AD
:101E60000EC0BA0F621F731F841F48F487957795C1
:101E70006795B795F7959E3F08F0B3CF9395880F78
:101E800008F09927EE0F97958795089501DE97CE74
:101E9000882371F4772321F09850872B762F07C081
:101EA000662311F499270DC09051862B70E060E0F5
:101EB0002AF09A95660F771F881FDAF7880F969594
:101EC000879597F908959F3F31F0915020F48795B9
:101ED00077956795B795880F911D9695879597F992
:101EE000089591505040660F771F881FD2F70895CC
:041EF000F894FFCF94
:101EF400416363656C65726F6D6574657220696EAC
:101F0400697469616C697A656421200A0D00436F04
:101F1400756C64206E6F7420636F6E6E65637420DD
:101F2400746F20616363656C65726F6D657465724F
:101F3400200A0D0056616C7565206F662074696C0B
:101F4400745F782069733A2025642C2076616C755F
:101F540065206F662074696C745F7920697320252D
:101F6400642C20616E642076616C7565206F662038
:101F740074696C745F7A2069733A202564200D0AB1
:101F8400000FD007703F065B4F666D7D077F6F774C
:101F94007C395E797103000000000000000000003D
:101FA40001020203030303040404040404040405F7
:101FB40005050505050505050505050505050506CC
:101FC40006060606060606060606060606060606AD
:101FD400060606060606060606060606060606079C
:101FE400070707070707070707070707070707077D
:101FF400070707070707070707070707070707076D
:10200400070707070707070707070707070707075C
:10201400070707070707070707070707070707084B
:10202400080808080808080808080808080808082C
:10203400080808080808080808080808080808081C
:10204400080808080808080808080808080808080C
:1020540008080808080808080808080808080808FC
:1020640008080808080808080808080808080808EC
:1020740008080808080808080808080808080808DC
:1020840008080808080808080808080808080808CC
:1020940008080808080808080808080808080800C4
:00000001FF
