:100000000C9434000C9451000C9451000C94510049
:100010000C9451000C9451000C9451000C9451001C
:100020000C9451000C9451000C9451000C9451000C
:100030000C9451000C9451000C9451000C945100FC
:100040000C9451000C9451000C9451000C945100EC
:100050000C9451000C9451000C9451000C945100DC
:100060000C9451000C94510011241FBECFEFD8E026
:10007000DEBFCDBF11E0A0E0B1E0E8E0F7E002C0F4
:1000800005900D92A834B107D9F711E0A8E4B1E0CA
:1000900001C01D92AA35B107E1F70E9453000C94EC
:1000A00082030C9400006F927F928F929F92AF9286
:1000B000BF92CF92DF92EF92FF920F931F93CF9355
:1000C000DF930E94610300D080E091E0EDB7FEB7BE
:1000D000928381830E94BA0182E291E0EDB7FEB77C
:1000E000928381830E94BA018DB79EB70C970FB699
:1000F000F8949EBF0FBE8DBFEDB7FEB731968DE36E
:1001000091E0918380831282138214821582168279
:1001100017821086118612861386148615860E9411
:10012000BA01E4E2F0E0808181608083EE24FF2464
:100130008701EDB7FEB73E960FB6F894FEBF0FBE2F
:10014000EDBF0F2EF5E2CF2EDD24F02D0F2EF8EBB4
:10015000AF2EFBE0BF2EF02DC0E9D1E00F2EF0EC6A
:100160008F2E9924F02D0F2EFDE36F2EF1E07F2EC0
:10017000F02DF6018081816080839501CE01019789
:10018000F1F721503040D1F7F60180818E7F8083D6
:100190009501CE010197F1F721503040D1F7F401DC
:1001A0008081882334F70E947A03853711F08535E2
:1001B00029F40894E11CF11C011D111D843611F075
:1001C000843429F40894E108F108010911098DB774
:1001D0009EB70E970FB6F8949EBF0FBE8DBFEDB7BA
:1001E000FEB7319671826082E282F38204831583C6
:1001F000E682F78200871187E286F38604871587F7
:100200000E94BA01EDB7FEB73E960FB6F894FEBF56
:100210000FBEEDBFAECFE0914801F091490181934F
:10022000F0934901E09348010895982F8A3014F41F
:1002300080E307C080915801882311F487E501C04D
:1002400087E3890F0E940B0181E080935901089593
:10025000AC0180915601909157018417950710F4D5
:10026000E0E017C066277727641B750B9C01241BF1
:10027000350BE0E0EF5FF22FA32F260F371FC901E8
:10028000840F951F84179507A8F7F0935601A09344
:10029000570180915901882311F4EE2319F08E2F14
:1002A0000E9415010895EF92FF920F931F930F2E56
:1002B000F0E3EF2EF02D0F2EF0E3FF2EF02D00E3F4
:1002C0000E947A03182F0E946E031D3021F0EF2C3C
:1002D000F02E012FF5CF802F805D24E69E2D920217
:1002E00090011124820F2AE09F2D92029001112487
:1002F000820F1F910F91FF90EF900895EF92FF9260
:100300000F931F93CF93DF937C0170E0EB01219754
:100310001C161D0614F000E012C000E00E947A03D3
:10032000182F0E946E031D3051F0F701E00FF11DF0
:1003300010830F5F802F90E08C179D077CF3F701EF
:10034000E00FF11D1082DF91CF911F910F91FF906F
:10035000EF900895CF93DF93FC018081882339F0DB
:10036000EF010E947703898121968823D1F7DF91DD
:10037000CF9108952F923F924F925F926F927F920A
:100380008F929F92AF92BF92CF92DF92EF92FF92A5
:100390000F931F93DF93CF93CDB7DEB70F2EF5E109
:1003A000EF2EFF24F02DEC0EFD1EF701C190D19031
:1003B0007F010F2EFAE46F2EF1E07F2EF02D0F2E2D
:1003C000F0E34F2EF02D842C5524689455F80F2E11
:1003D000F6E52F2EF1E03F2EF02D5BC10894C11CF5
:1003E000D11C853221F00E947703570151C1F601DB
:1003F00011916F01103311F0992404C011916F0114
:1004000099249394912F812F80538A3010F000E02B
:1004100012C000E0892F8053902F990F990F900FF1
:10042000990F082F090FF60111916F01912F812F5C
:1004300080538A3078F3709249016092480110929B
:100440005901133609F4C2C014369CF4183509F466
:1004500051C019355CF4123409F478C01334ACF48B
:10046000112309F41BC1153281F4C6C0123669F498
:100470006DC0133709F4B6C014371CF4143629F4D0
:1004800007C0153729F01837A9F15701D301B9C0B2
:10049000F7012081318120935601309357011436A2
:1004A00069F433235CF488279927821B930B90937C
:1004B0005701809356018DE20E940B01AA24BB24B0
:1004C0006894A1F8AE0CBF1C80E197E20E9428015D
:1004D00088EE93E00E94280184E690E00E942801C3
:1004E0008AE090E00E942801F10180810E941501BC
:1004F000D30187C0842D0E940B0188E70E940B0165
:1005000010925801183519F4F1E0F0935801AA241B
:10051000BB246894A1F8AE0CBF1CF70180819181C7
:10052000909357018093560180E090E10E9428014A
:1005300080E091E00E94280180E190E00E94280183
:10054000F10180810E941501D3015BC0842D0E94BE
:100550000B0182E60E940B0110925801123419F42B
:10056000F1E0F0935801AA24BB246894A1F8AE0CE2
:10057000BF1CF70180819181907090935701809307
:100580005601F1E0F093590180E890E00E942801C3
:1005900080E490E00E94280180E290E00E9428011F
:1005A00080E190E00E94280188E090E00E9428010C
:1005B00084E090E00E94280182E090E00E942801FF
:1005C000F10180810E941501D3011BC0AA24BB2424
:1005D0006894A1F8AE0CBF1CF70180810E940B014A
:1005E000D3010FC0AA24BB246894A1F8AE0CBF1C91
:1005F000F701A081B18105C085E20E940B0157017E
:10060000D301E0914801F09149011082B093490172
:10061000A0934801FD0181917F01F0934901E0938E
:100620004801882389F010163CF50150E0914801FB
:10063000F09149018191F0934901E09348018823A9
:1006400019F0101694F318C01016B4F48C918D3272
:1006500011F07D0103C08DE20E947703102F11502D
:10066000992011F4852D01C0882D0E947703111661
:1006700014F41150F5CFD7018C91882349F08D01E6
:100680000E947703F80181810F5F1F4F8823C1F714
:100690007501F6018081882309F0A0CECF91DF910A
:1006A0001F910F91FF90EF90DF90CF90BF90AF9090
:1006B0009F908F907F906F905F904F903F902F9082
:1006C000089587E690E09093C5008093C40088E188
:1006D0008093C10086E08093C2000895982FE0ECDB
:1006E000F0E0808185FFFDCF9093C60008950E94C1
:1006F0006E030895E0ECF0E080818823ECF78091B0
:08070000C6000895F894FFCF34
:10070800436F756E746572207769746820736572BB
:1007180069616C206F75747075742064656D6F0DF8
:100728000A0042696E6172792020202020094865FC
:10073800782009446563696D616C0D0A00256209BA
:0807480025780925640D0A0063
:00000001FF
