:100000000C9434000C9451000C9451000C94510049
:100010000C9451000C9451000C9451000C9451001C
:100020000C9451000C9451000C9451000C948600D7
:100030000C9451000C9451000C9451000C945100FC
:100040000C9451000C9451000C9451000C945100EC
:100050000C9451000C9451000C9451000C945100DC
:100060000C9451000C94510011241FBECFEFD8E026
:10007000DEBFCDBF11E0A0E0B1E0E6EEF6E002C0E9
:1000800005900D92A634B107D9F711E0A6E4B1E0CE
:1000900001C01D92A935B107E1F70E9495000C94AB
:1000A00071030C940000ECE7F0E0808180648083B1
:1000B0008081807F8083EAE7F0E0808187608083B1
:1000C0008081806880830895EAE7F0E08081806421
:1000D0008083808186FDFDCF20917800309179006A
:1000E000822F932F0895A1E8B0E02C9128602C93E3
:1000F000EFE6F0E0208122602083909389008093D6
:1001000088008C9184608C93789408951F920F924C
:100110000FB60F9211248F9381E0809346018F9147
:100120000F900FBE0F901F901895CF93DF930E94F2
:1001300021030E94530084E294EF0E94730000D0D8
:1001400080E091E0EDB7FEB7928381830E947A014F
:100150000F900F90CDE2D1E0809146018823E1F32A
:100160000E94640000D000D000D0EDB7FEB73196F9
:10017000D183C08393838283958384830E947A0191
:10018000109246018DB79EB706960FB6F8949EBFA3
:100190000FBE8DBFE1CFE0914701F09148018193FF
:1001A000F0934801E09347010895982F8A3014F4A2
:1001B00080E307C080915701882311F487E501C0CF
:1001C00087E3890F0E94CB0081E080935801089556
:1001D000AC0180915501909156018417950710F458
:1001E000E0E017C066277727641B750B9C01241B72
:1001F000350BE0E0EF5FF22FA32F260F371FC90169
:10020000840F951F84179507A8F7F0935501A093C5
:10021000560180915801882311F4EE2319F08E2F96
:100220000E94D5000895EF92FF920F931F930F2E17
:10023000F0E3EF2EF02D0F2EF0E3FF2EF02D00E374
:100240000E943A03182F0E942E031D3021F0EF2C3C
:10025000F02E012FF5CF802F805D24E69E2D920297
:1002600090011124820F2AE09F2D92029001112407
:10027000820F1F910F91FF90EF900895EF92FF92E0
:100280000F931F93CF93DF937C0170E0EB012197D5
:100290001C161D0614F000E012C000E00E943A0394
:1002A000182F0E942E031D3051F0F701E00FF11DB1
:1002B00010830F5F802F90E08C179D077CF3F70170
:1002C000E00FF11D1082DF91CF911F910F91FF90F0
:1002D000EF900895CF93DF93FC018081882339F05C
:1002E000EF010E943703898121968823D1F7DF919E
:1002F000CF9108952F923F924F925F926F927F928B
:100300008F929F92AF92BF92CF92DF92EF92FF9225
:100310000F931F93DF93CF93CDB7DEB70F2EF5E189
:10032000EF2EFF24F02DEC0EFD1EF701C190D190B1
:100330007F010F2EF9E46F2EF1E07F2EF02D0F2EAE
:10034000F0E34F2EF02D842C5524689455F80F2E91
:10035000F5E52F2EF1E03F2EF02D5BC10894C11C76
:10036000D11C853221F00E943703570151C1F6019B
:1003700011916F01103311F0992404C011916F0194
:1003800099249394912F812F80538A3010F000E0AC
:1003900012C000E0892F8053902F990F990F900F72
:1003A000990F082F090FF60111916F01912F812FDD
:1003B00080538A3078F3709248016092470110921E
:1003C0005801133609F4C2C014369CF4183509F4E8
:1003D00051C019355CF4123409F478C01334ACF40C
:1003E000112309F41BC1153281F4C6C0123669F419
:1003F0006DC0133709F4B6C014371CF4143629F451
:1004000007C0153729F01837A9F15701D301B9C032
:10041000F701208131812093550130935601143624
:1004200069F433235CF488279927821B930B9093FC
:100430005601809355018DE20E94CB00AA24BB2473
:100440006894A1F8AE0CBF1C80E197E20E94E8001E
:1004500088EE93E00E94E80084E690E00E94E800C5
:100460008AE090E00E94E800F10180810E94D500BE
:10047000D30187C0842D0E94CB0088E70E94CB0067
:1004800010925701183519F4F1E0F0935701AA249E
:10049000BB246894A1F8AE0CBF1CF7018081918148
:1004A000909356018093550180E090E10E94E8000E
:1004B00080E091E00E94E80080E190E00E94E80086
:1004C000F10180810E94D500D3015BC0842D0E9480
:1004D000CB0082E60E94CB0010925701123419F42F
:1004E000F1E0F0935701AA24BB246894A1F8AE0C64
:1004F000BF1CF70180819181907090935601809389
:100500005501F1E0F093580180E890E00E94E80086
:1005100080E490E00E94E80080E290E00E94E80021
:1005200080E190E00E94E80088E090E00E94E8000E
:1005300084E090E00E94E80082E090E00E94E80001
:10054000F10180810E94D500D3011BC0AA24BB24E5
:100550006894A1F8AE0CBF1CF70180810E94CB000B
:10056000D3010FC0AA24BB246894A1F8AE0CBF1C11
:10057000F701A081B18105C085E20E94CB0057013F
:10058000D301E0914701F09148011082B0934801F6
:10059000A0934701FD0181917F01F0934801E09311
:1005A0004701882389F010163CF50150E09147017E
:1005B000F09148018191F0934801E093470188232D
:1005C00019F0101694F318C01016B4F48C918D32F3
:1005D00011F07D0103C08DE20E943703102F1150EE
:1005E000992011F4852D01C0882D0E943703111622
:1005F00014F41150F5CFD7018C91882349F08D0167
:100600000E943703F80181810F5F1F4F8823C1F7D4
:100610007501F6018081882309F0A0CECF91DF918A
:100620001F910F91FF90EF90DF90CF90BF90AF9010
:100630009F908F907F906F905F904F903F902F9002
:10064000089587E690E09093C5008093C40088E108
:100650008093C10086E08093C2000895982FE0EC5B
:10066000F0E0808185FFFDCF9093C60008950E9441
:100670002E030895E0ECF0E080818823ECF7809170
:10068000C600089588E48093B80084E48093BC0099
:100690000895ECEBF0E080818823ECF7089584EA7C
:1006A0008093BC000E944903089584E98093BC00B4
:1006B000089584EC8093BC000E9449038091BB00A4
:1006C000089584E88093BC000E9449038091BB0098
:1006D00008958093BB0084E88093BC000E94490386
:0606E0000895F894FFCF1D
:1006E60054657374696E6720414443207769746862
:1006F6002061207661726961626C6520766F6C7428
:1007060061676520736F757263650A0D0041444326
:100716002076616C7565203D2025782C20092020E7
:060726002575200D0A00FC
:00000001FF
