:100000000C9434000C9451000C9451000C94510049
:100010000C9451000C9453000C9451000C9451001A
:100020000C9451000C9451000C9451000C946200FB
:100030000C9451000C9451000C9451000C945100FC
:100040000C9451000C9451000C9451000C945100EC
:100050000C9451000C9451000C9451000C945100DC
:100060000C9451000C94510011241FBECFEFD8E026
:10007000DEBFCDBF11E0A0E0B1E0E6E2F7E002C0F4
:1000800005900D92A434B107D9F711E0A4E4B1E0D2
:1000900001C01D92A835B107E1F70E948F000C94B2
:1000A00091030C9400001F920F920FB60F9211242F
:1000B0008F9381E0809344018F910F900FBE0F903A
:1000C0001F9018951F920F920FB60F9211248F93C5
:1000D00081E0809345018F910F900FBE0F901F908C
:1000E0001895E8E6F0E0808184608083EDE6F0E03A
:1000F00080818068808378940895A1E8B0E02C9195
:1001000028602C93EFE6F0E020812260208390931A
:100110008900809388008C9184608C9308951F934C
:10012000CF93DF93EAE2F0E080818F778083EBE288
:10013000F0E08081806880830E9441030E9471000A
:1001400084E294EF0E947D0000D080E091E0EDB762
:10015000FEB7928381830E949A0182E291E0EDB71B
:10016000FEB7928381830E949A0110E00F900F9056
:10017000C9E3D1E001C010E080914501882301F17D
:100180008DB79EB708970FB6F8949EBF0FBE8DBF70
:10019000EDB7FEB73196D183C083128313821483E7
:1001A0001582168317820E949A01109245011F5FE3
:1001B000EDB7FEB738960FB6F894FEBF0FBEEDBF91
:1001C00080914401882321F01092440110E0D4CFA3
:1001D000133691F6D0CFE0914601F091470181931B
:1001E000F0934701E09346010895982F8A3014F464
:1001F00080E307C080915601882311F487E501C090
:1002000087E3890F0E94EB0081E0809357010895F6
:10021000AC0180915401909155018417950710F419
:10022000E0E017C066277727641B750B9C01241B31
:10023000350BE0E0EF5FF22FA32F260F371FC90128
:10024000840F951F84179507A8F7F0935401A09386
:10025000550180915701882311F4EE2319F08E2F58
:100260000E94F5000895EF92FF920F931F930F2EB7
:10027000F0E3EF2EF02D0F2EF0E3FF2EF02D00E334
:100280000E945A03182F0E944E031D3021F0EF2CBC
:10029000F02E012FF5CF802F805D24E69E2D920257
:1002A00090011124820F2AE09F2D920290011124C7
:1002B000820F1F910F91FF90EF900895EF92FF92A0
:1002C0000F931F93CF93DF937C0170E0EB01219795
:1002D0001C161D0614F000E012C000E00E945A0334
:1002E000182F0E944E031D3051F0F701E00FF11D51
:1002F00010830F5F802F90E08C179D077CF3F70130
:10030000E00FF11D1082DF91CF911F910F91FF90AF
:10031000EF900895CF93DF93FC018081882339F01B
:10032000EF010E945703898121968823D1F7DF913D
:10033000CF9108952F923F924F925F926F927F924A
:100340008F929F92AF92BF92CF92DF92EF92FF92E5
:100350000F931F93DF93CF93CDB7DEB70F2EF5E149
:10036000EF2EFF24F02DEC0EFD1EF701C190D19071
:100370007F010F2EF8E46F2EF1E07F2EF02D0F2E6F
:10038000F0E34F2EF02D842C5524689455F80F2E51
:10039000F4E52F2EF1E03F2EF02D5BC10894C11C37
:1003A000D11C853221F00E945703570151C1F6013B
:1003B00011916F01103311F0992404C011916F0154
:1003C00099249394912F812F80538A3010F000E06C
:1003D00012C000E0892F8053902F990F990F900F32
:1003E000990F082F090FF60111916F01912F812F9D
:1003F00080538A3078F370924701609246011092E0
:100400005701133609F4C2C014369CF4183509F4A8
:1004100051C019355CF4123409F478C01334ACF4CB
:10042000112309F41BC1153281F4C6C0123669F4D8
:100430006DC0133709F4B6C014371CF4143629F410
:1004400007C0153729F01837A9F15701D301B9C0F2
:10045000F7012081318120935401309355011436E6
:1004600069F433235CF488279927821B930B9093BC
:100470005501809354018DE20E94EB00AA24BB2415
:100480006894A1F8AE0CBF1C80E197E20E940801BD
:1004900088EE93E00E94080184E690E00E94080143
:1004A0008AE090E00E940801F10180810E94F5003D
:1004B000D30187C0842D0E94EB0088E70E94EB00E7
:1004C00010925601183519F4F1E0F0935601AA2460
:1004D000BB246894A1F8AE0CBF1CF7018081918108
:1004E000909355018093540180E090E10E940801AF
:1004F00080E091E00E94080180E190E00E94080104
:10050000F10180810E94F500D3015BC0842D0E941F
:10051000EB0082E60E94EB0010925601123419F4AF
:10052000F1E0F0935601AA24BB246894A1F8AE0C24
:10053000BF1CF70180819181907090935501809349
:100540005401F1E0F093570180E890E00E94080127
:1005500080E490E00E94080180E290E00E9408019F
:1005600080E190E00E94080188E090E00E9408018C
:1005700084E090E00E94080182E090E00E9408017F
:10058000F10180810E94F500D3011BC0AA24BB2485
:100590006894A1F8AE0CBF1CF70180810E94EB00AB
:1005A000D3010FC0AA24BB246894A1F8AE0CBF1CD1
:1005B000F701A081B18105C085E20E94EB005701DF
:1005C000D301E0914601F09147011082B0934701B9
:1005D000A0934601FD0181917F01F0934701E093D3
:1005E0004601882389F010163CF50150E091460140
:1005F000F09147018191F0934701E09346018823F0
:1006000019F0101694F318C01016B4F48C918D32B2
:1006100011F07D0103C08DE20E945703102F11508D
:10062000992011F4852D01C0882D0E9457031116C1
:1006300014F41150F5CFD7018C91882349F08D0126
:100640000E945703F80181810F5F1F4F8823C1F774
:100650007501F6018081882309F0A0CECF91DF914A
:100660001F910F91FF90EF90DF90CF90BF90AF90D0
:100670009F908F907F906F905F904F903F902F90C2
:10068000089587E690E09093C5008093C40088E1C8
:100690008093C10086E08093C2000895982FE0EC1B
:1006A000F0E0808185FFFDCF9093C60008950E9401
:1006B0004E030895E0ECF0E080818823ECF7809110
:1006C000C600089588E48093B80084E48093BC0059
:1006D0000895ECEBF0E080818823ECF7089584EA3C
:1006E0008093BC000E946903089584E98093BC0054
:1006F000089584EC8093BC000E9469038091BB0044
:10070000089584E88093BC000E9469038091BB0037
:1007100008958093BB0084E88093BC000E94690325
:060720000895F894FFCFDC
:10072600436F756E7465722077697468207365729D
:1007360069616C206F75747075742064656D6F0DDA
:100746000A0042696E617279200948657820094479
:100756006563696D616C0D0A0025620925780925B6
:04076600640D0A0014
:00000001FF
