:100000000C9434000C9449000C9449000C94490061
:100010000C9449000C9449000C9449000C9449003C
:100020000C9449000C9449000C9449000C9449002C
:100030000C9449000C9449000C9449000C9449001C
:100040000C9449000C9449000C9449000C9449000C
:100050000C9449000C9449000C9449000C944900FC
:100060000C9449000C94490011241FBECFEFD8E036
:10007000DEBFCDBF11E0A0E0B1E0E8E4F1E002C0F6
:1000800005900D92A230B107D9F70E944B000C9455
:10009000A2000C940000CF92DF92EF92FF920F9398
:1000A0001F93CF93DF93E4E2F0E08081816080834F
:1000B000808182608083808184608083808180628F
:1000C0008083EAE2F0E080818F778083EBE2F0E0EA
:1000D00080818068808370E021E030E060E0A9E208
:1000E000B0E0DD24D394CC24E5E2F0E0C8EBDBE023
:1000F00040E951E001E010E0EE24FF248C918823D8
:100100003CF0662331F421303105C9F06D2D07C074
:100110006C2D21153105A1F02130310579F7808151
:10012000887F80838081872B80839E01CA0101970D
:10013000F1F721503040D1F77F5F9801DFCF6D2D6F
:080140009701DCCFF894FFCF1A
:02014800800035
:00000001FF
